00                       20130603111432PREVIMONT                     RICARDO ELETRO                                                                                      64282601004457     100568    LAISA - 04                                                                                                                                                                                                                                                                                                                                                                                                                                                                                                                                                                                                                                                                                                                                                                                                                                                                                                                                                                                                                                                                                                                                                                                                                                        
01                              39532     213 199 9056075                                                                                   39894319931052013                                                              00010466480717MICHELE AUGUSTINHO DA SILVA                                                                         SANTA CECILIA 60 03 FUNDOS                                                                          PARQUE CACULA                 MAGE                                              RJ                    25900000                                                                                                                                                                                                                                                          OM0000000000000000NA RUA DA PADARIA EM FRENT A FUNERARIA DO MENEZES PROC PAULIN MECANICO - (21)27871597 - (21)86511626                                                                                                                                                                                                                                                                                                                                                                                                                                                                                                         
01                              39539     213 199 9056075                                                                                   39894519931052013                                                              00004158710774CARLOS SERGIO BARBOZA FERRARI                                                                       JOSE ZAZUR 89                                                                                       SURUI                         MAGE                                              RJ                    24210205                                                                                                                                                                                                                                                          OM0000000000000000                                                                                                                                                                                                                                                                                                                                                                                                                                                                                                                                                                                                             
01                              34600     274 199 9069492                                                                                   39894119931052013                                                              00048055999791CARLOS JOSE RODRIGUES                                                                               BEIRA RIO 600                                                                                       RONCADOR                      MAGE                                              RJ                    25900000                                                                                                                                                                                                                                                          OM0000000000000000PROXIMO A VILA DA LIBERDADE BARRACA DO PACHECA 2194225105                                                                                                                                                                                                                                                                                                                                                                                                                                                                                                                                                    
01                              37316     274 199 9069487                                                                                   40006619901062013                                                              00009753953780LEONARDO PINTO SALVADOR                                                                             BARAO DE VASSOURAS 32                                                                               LAGOA                         MAGE                                              RJ                    25900000                                                                                                                                                                                                                                                          OM0000002188007456DEPOIS DA BARRACA DO ROMEU NO QUINTAL DE LOLOI DE MONICA, PROCURAR OI LEO ESPOSO DA GREICE 21)88007456 - (21)86170257                                                                                                                                                                                                                                                                                                                                                                                                                                                                                        
01                              36013     213 199 9044560                                                                                   40006719901062013                                                              00033368511734EDIVALDO MARQUES DA COSTA                                                                           AVENIDA DUQUE DE CAXIAS 198 CASA                                                                    RAIZ DA SERRA                 MAGE                                              RJ                    25935000                                                                                                                                                                                                                                                          OM0000002126594095TROCA COM RECOLHIMENTO APOS O COLEGIO COZZOLINO TERCEIRA CASA NA VILA APOS A PRACINHA PROC EDIVALDO TEL 26594095                                                                                                                                                                                                                                                                                                                                                                                                                                                                                             
01                              36232     274 199 9052666                                                                                   40006819901062013                                                              00005318277713VAGNER DE SOUZA MEDEIROS                                                                            GEORGINA DUARTE 130                                                                                 SANTO ALEIXO                  MAGE                                              RJ                    25920000                                                                                                                                                                                                                                                          OM0000000000000000AO LADO DA POLI CLINICA DE SANTO ALEIXO PROC JOSE CARLOS TEL 88038031 26302304 CLI CIENTE PRAZO DE ENTREGA                                                                                                                                                                                                                                                                                                                                                                                                                                                                                                   
01                              37379     274 199 9058327                                                                                   40006919901062013                                                              00000307341771EDMILSON CALDEIRA DA SILVA                                                                          FRANCELINA ULMAN 913                                                                                SACO                          MAGE                                              RJ                    25900000                                                                                                                                                                                                                                                          OM0000000000000000PROX A BARRACA DE DELIS PROC EDMILSON   - (21)26330030 - (21)86513010                                                                                                                                                                                                                                                                                                                                                                                                                                                                                                                                        
01                              37338     274 199 9052666                                                                                   40007019901062013                                                              00075432242400ALBERIO NUNES                                                                                       DONA SANTINHA 1 TRAVESSA C QD 03 LT 06                                                              BARBUDA                       MAGE                                              RJ                    25900000                                                                                                                                                                                                                                                          OM0000000000000000APOS O SITIO DO CAIO PRIMEIRA ENTRADA ESQUERDA PROC ALBERIO ELAINE                                                                                                                                                                                                                                                                                                                                                                                                                                                                                                                                           
01                              39634     213 199 9056075                                                                                   40007219901062013                                                              00013368910760CREUSA ALVES MERCEDES                                                                               GUAXUPE 590 9 QD3D                                                                                  PIABETA                       MAGE                                              RJ                    25915000                                                                                                                                                                                                                                                          OM0000000000000000NA RUA DO COLEGIO DA APAE PROC CREUZA OU PAULO MOTO TAXI FUNDOS 68703237                                                                                                                                                                                                                                                                                                                                                                                                                                                                                                                                     
01                              39656     213 199 9070314                                                                                   40005819901062013                                                              00001909841714RENATO CAROLINO SABOIA                                                                              ESTRADA MUNICIPAL 103                                                                               CACHOEIRA GRANDEC             MAGE                                              RJ                    25915000                                                                                                                                                                                                                                                          OM0000002188553439DEPOIS DA PONTE DA CACHOEIRA GRANDE QUARTO SITIO A DIREITA AO LADO DE CASA 2 ANDARES MURADA 21)88553439                                                                                                                                                                                                                                                                                                                                                                                                                                                                                                      
01                              37331     274 199 9052666                                                                                   40006019901062013                                                              00080831494700VILMA DA SILVA                                                                                      FRANCELINA ULMAN 145 FDS                                                                            SACO                          MAGE                                              RJ                    25900000                                                                                                                                                                                                                                                          OM0000000000000000PROX AO BAR DA SIRLENE PROC VILMA TEL 36305835                                                                                                                                                                                                                                                                                                                                                                                                                                                                                                                                                               
01                              39639     213 199 9056075                                                                                   40006319901062013                                                              00012938764707MARTA REGINA DA SILVA GOMES                                                                         WALDEMAR LIMA TEIXEIRA 151 NA RIO MAGE BAIRRO PARAISO                                               PIABETA                       MAGE                                              RJ                    25915000                                                                                                                                                                                                                                                          OM0000000000000000AO LADO DO ESPACO CULTURAL PROC REGINA OU GRAZIELE - (21)74764722 - (21)91889845                                                                                                                                                                                                                                                                                                                                                                                                                                                                                                                             
01                              37083     274 199 9052666                                                                                   40098519903062013                                                              00014656673773UELINGTON DE CASTRO MEDEIROS                                                                        ESTRADA RIO FRIBURGO KM 11 15                                                                       ORINDI                        GUAPIMIRIM                                        RJ                    25900000                                                                                                                                                                                                                                                          OM0000000000000000NA RUA DA ESCOLA PROC TALZIM TEL 36332177 94217304                                                                                                                                                                                                                                                                                                                                                                                                                                                                                                                                                           
01                              39700     213 199 9056075                                                                                   40006219901062013                                                              00004382330777WANDERSON FERREIRA MENEZES                                                                          RUA A 37 QD 26 PARQUE SANTANA                                                                       PIABETA                       MAGE                                              RJ                    25900000                                                                                                                                                                                                                                                          OM0000002126599084INDO PELA NACIONALISTA ENTR NA SEG A DIREIT APOS A BATISTA PROC NEGUINHO OU NELZA- 87548825 87387091                                                                                                                                                                                                                                                                                                                                                                                                                                                                                                         
01                              39670     213 199 9056075                                                                                   40006519901062013                                                              00002519613700ROBSON BARRETO SANTOS                                                                               AVENIDA SAO JOAO 403                                                                                PIABETA CENTRO                MAGE                                              RJ                    25915000                                                                                                                                                                                                                                                          OM0000002192613519BAR EM FRENT A PONTE DO CONVENTO BEIRANDO O VALAO PROC SIMONE - (21)92613519 - (21)26597796                                                                                                                                                                                                                                                                                                                                                                                                                                                                                                                  
01                              37005     274 199 9052650                                                                                   40098719903062013                                                              00034408966843LUCINEIA CORREIA                                                                                    CINCO 1 LT22 QD 09                                                                                  VALE DAS PEDRINHAS            GUAPIMIRIM                                        RJ                    25900000                                                                                                                                                                                                                                                          OM0000002126335854ENTRAR NA RUA EM FRENTE  PADARIA DA NINA VIRAR PRIMEIRA DIREITA PERTO DA FABRICA DE BLOCO PROC ETIENE TEL 735388123                                                                                                                                                                                                                                                                                                                                                                                                                                                                                          
01                              24171     241 199 9029282                                                                                   40006419901062013                                                              00038558300704ARLINDO DIAS SA SILVA                                                                               CANTAGALO 395                                                                                       PARQUE IRIRI                  MAGE                                              RJ                    25900000                                                                                                                                                                                                                                                          OM0000000000000000TROCA REC SIM PROX A ANTIGA AGUA INDAIA ATRAS DO COLEGIO PROC TERESA OU ANTONIO 83432615 67263930 REC                                                                                                                                                                                                                                                                                                                                                                                                                                                                                                        
01                              37265     274 199 9069487                                                                                   39895019931052013                                                              00011150798750VILMA TEODORO                                                                                       QUATRO 46                                                                                           VILA ESPERANCA                MAGE                                              RJ                    24900000                                                                                                                                                                                                                                                          OM0000000000000000PROXIMO A IGREJA ASSEMBLEIA DE DEUS, PROCURAR POR DN VILMA OU FERNANDO  (21)86523310                                                                                                                                                                                                                                                                                                                                                                                                                                                                                                                         
01                              39522     213 199 9047261                                                                                   39895119931052013                                                              00010150731744IVANETE SANTOS DE SOUZA                                                                             CONDADO 64                                                                                          PIABETA                       MAGE                                              RJ                    25915000                                                                                                                                                                                                                                                          OM0000000000000000ENTRAR NA RUA JAPONES DEPOIS DA LOJA DA CLAUDIA ENTRA A DIREITA TRANSVERSAL A JAPONES PROC POR MARCIA                                                                                                                                                                                                                                                                                                                                                                                                                                                                                                        
01                              39322     213 199 9047261                                                                                   39895219931052013                                                              00013600314726LUIZ FERNANDO PROCOPIO CORREA                                                                       RUA J 355                                                                                           PIABETA                       MAGE                                              RJ                    25900000                                                                                                                                                                                                                                                          OM0000000000000000DEPOIS DA FABRICA DE MANILHA ENFRENTE A O 2 COLEGIO PROC POR LUIZ FERNANDO OU MARIA AMALIA TEL 75198600                                                                                                                                                                                                                                                                                                                                                                                                                                                                                                      
01                              32416     274 199 9052666                                                                                   39894619931052013                                                              00013510915739BRUNA PAIVA DE SOUZA                                                                                DINORAH ALVES ALONSO 111                                                                            MAUA                          MAGE                                              RJ                    25930000                                                                                                                                                                                                                                                          OM0000000000000000ENTREGA NA RUA JOSE INALDO 775 BAIRRO IMPERADOR MAUA PROX AO COLEGIO MODELO RAFAEL COZZOLINO TEL 88224323 MARCOS OU BRUN                                                                                                                                                                                                                                                                                                                                                                                                                                                                                     
01                              37223     274 199 9069487                                                                                   39892719931052013                                                              00045692920700MARIA DE FATIMA DA COSTA PINTO                                                                      PAQUETA 131                                                                                         ANDORINHAS                    MAGE                                              RJ                    25915000                                                                                                                                                                                                                                                          OM0000000000000000NA PRACA DE ANDORINHAS PROXIMO AO BAR DO CACULA PROCURAR POR DN FATIMA IRMA DO RUI - (21)26302426 - (21)81349399                                                                                                                                                                                                                                                                                                                                                                                                                                                                                             
01                              37182     274 199 9069487                                                                                   39892519931052013                                                              00061890081787GERALDO SILVERIO JUNIOR                                                                             RUA 6 180 CAMPINHO                                                                                  SURUI                         MAGE                                              RJ                    25000000                                                                                                                                                                                                                                                          OM0000002126474168AO LADO DO ANTIGO ORTO, PROCURAR POR MARQUINHOS TRICOLOR OU ELIZETE                                                                                                                                                                                                                                                                                                                                                                                                                                                                                                                                          
01                              39539     213 199 9056075                                                                                   39893119931052013                                                              00004158710774CARLOS SERGIO BARBOZA FERRARI                                                                       JOSE ZAZUR 89                                                                                       SURUI                         MAGE                                              RJ                    24210205                                                                                                                                                                                                                                                          OM0000000000000000AO LADO DO CESABI PROC CARLOS OU LEILA- (21)26479865 - (21)67451168                                                                                                                                                                                                                                                                                                                                                                                                                                                                                                                                          
01                              37236     274 199 9052666                                                                                   39893019931052013                                                              00011158363745ILDILEIDE ROCHA SIQUEIRA                                                                            PROFESSOR JOSE LEANDRO 601 60 FDS                                                                   CANAL                         MAGE                                              RJ                    25900000                                                                                                                                                                                                                                                          OM0000000000000000DEPOIS DO AVIARIO DA PONTE ATRAVESSA PISTA NOS FUNDOS DA CASA DE JOVINO DA BANCA DE PEIXE PROC DILEIDE TEL 87152130                                                                                                                                                                                                                                                                                                                                                                                                                                                                                          
01                              37016     274 199 9052650                                                                                   40097419903062013                                                              00013057930727ELCILENE ARAUJO COSTA                                                                               JOAQUIM COELHO 17                                                                                   CENTRO                        GUAPIMIRIM                                        RJ                    25940000                                                                                                                                                                                                                                                          OM0000000000000000ENTRA NA RUA DO COLEGIO ESTADUAL ALCINO GANABARA COLEGIO GRUPO PROC DEDAO TEL  (21)92170536 - (21)68461810                                                                                                                                                                                                                                                                                                                                                                                                                                                                                                   
01                              37192     274 199 9069487                                                                                   39892919931052013                                                              00077188462704LUCILEIA AMELIA DA SILVA CRUZ                                                                       DR CARLOS ESTEVES 336                                                                               MAUA                          MAGE                                              RJ                    25930000                                                                                                                                                                                                                                                          OM0000002126310084CASA PROXIMOA A TORRE DE CELULAR, PROCURAR POR JOELMA  (21)26310084  71127429                                                                                                                                                                                                                                                                                                                                                                                                                                                                                                                                
01                              36611     274 199 9052650                                                                                   39893619931052013                                                              00000575907703NALI PIRES DA SILVA                                                                                 30 20 LT 17                                                                                         JARDIM SANTO ANTONIO          MAGE                                              RJ                    25925000                                                                                                                                                                                                                                                          OM0000002195278637TROCA COM RECOLHIMENTO FICA BARRACA DA LILI EM FRENTE A IGREJA ASSEMBLEIA PROC LILI TEL (21)95278637 - (21)76837596                                                                                                                                                                                                                                                                                                                                                                                                                                                                                          
01                              37396     274 199 9055635                                                                                   40005219901062013                                                              00012277335770ALINE CURTY NOGUEIRA                                                                                LUIZ GAMA 568                                                                                       LAGOA                         MAGE                                              RJ                    25900000                                                                                                                                                                                                                                                          OM0000000000000000PERTO DA BARRACA DE ORNI PROC ALINE TEL 87732605 CONTEM 43 PECAS NO DEPOSITO                                                                                                                                                                                                                                                                                                                                                                                                                                                                                                                                 
01                              37161     274 199 9052666                                                                                   40097719903062013                                                              00011107436702LUANA RANGEL SIMEAO                                                                                 PETRONIO PACINTO 447                                                                                QUINTA MARIANA                GUAPIMIRIM                                        RJ                    25940000                                                                                                                                                                                                                                                          OM0000000000000000RUA EM FRENTE A PADARIA ESQUINA DO PAO PROC LUANA TEL 83816045                                                                                                                                                                                                                                                                                                                                                                                                                                                                                                                                               
01                              37299     274 199 9069487                                                                                   40005019901062013                                                              00078685087368JOSE RIBAMAR DOS SANTOS PAZ                                                                         DONA MARIA EMILIANA 13 QD 10                                                                        VARZEA ALEGRE                 MAGE                                              RJ                    25900000                                                                                                                                                                                                                                                          OM0000000000000000DE FRENTE PARA A MERVADO AROLDO, PROCURAR POR DN MARIA ELIZABETE                                                                                                                                                                                                                                                                                                                                                                                                                                                                                                                                             
01                              36975     274 199 9052650                                                                                   40097819903062013                                                              00008942543758MARIA DO CARMO MORENO DE SOUZA                                                                      RUA 101 181                                                                                         VALE DAS PEDRINHAS            GUAPIMIRIM                                        RJ                    25900000                                                                                                                                                                                                                                                          OM0000002188888888FICA NA RUA DO CANIL AO LADO DO SITIO TODO MURADO PROC MARIA DO CARMO OU VILSON TEL 84565524                                                                                                                                                                                                                                                                                                                                                                                                                                                                                                                 
01                              37180     274 199 9052666                                                                                   39893319931052013                                                              00010046611770ANDERSON NEVES ALVARENGA                                                                            BRASILIA 212                                                                                        BARBUDA                       MAGE                                              RJ                    25900000                                                                                                                                                                                                                                                          OM0000000000000000PASSANDO O CAMPO BEIRANDO O VALAO PROC ANDERSON TEL 85669938 CASA EM OBRAS FAVOR LIGAR NO DIA DA ENTREGA                                                                                                                                                                                                                                                                                                                                                                                                                                                                                                     
01                              39568     213 199 9056075                                                                                   40005119901062013                                                              00009695453716ANA CRISTINA JORGE                                                                                  GERALDO AMERICO DE SOUZA 39                                                                         PIABETA                       MAGE                                              RJ                    25915000                                                                                                                                                                                                                                                          OM0000000000000000SEM RECOLHIMENTO EM FRENT A PIZZARIA RENATA PROC SR GESSI  - (21)36559905                                                                                                                                                                                                                                                                                                                                                                                                                                                                                                                                    
01                              37304     274 199 9069487                                                                                   40098319903062013                                                              00095602674772TANIA MARUSCA DUARTE DOS ANJOS                                                                      SEBASTIAO PEREIRA DE SOUZA 350                                                                      QUINTA ROSANGELA              GUAPIMIRIM                                        RJ                    25940000                                                                                                                                                                                                                                                          OM0000002126328012NA 3 RUA A DIREITA DEPOIS DA MERCEARIA DO CHIQUINHO, PROCURAR POR DN TANIA 21)26328012 - (21)89053255                                                                                                                                                                                                                                                                                                                                                                                                                                                                                                        
01                              36981     274 199 9069487                                                                                   40098119903062013                                                              00012039941762MARIA DAS GRACAS DOS SANTOS                                                                         7 25                                                                                                CITROLANDIA                   GUAPIMIRIM                                        RJ                    25940000                                                                                                                                                                                                                                                          OM0000000000000000PERTO DO CAMPO DE FUTEBOL, PROCURAR POR DN MARIA OU MARCIA DO TREILLER  (21)36306267 99752984                                                                                                                                                                                                                                                                                                                                                                                                                                                                                                                
01                              37365     274 199 9052666                                                                                   40004419901062013                                                              00002333919752ROSANA DE MOURA SILVA                                                                               ALVARO GAVEA 288                                                                                    LAGOA                         MAGE                                              RJ                    25900000                                                                                                                                                                                                                                                          OM0000002126336448EM FRENTE AO CAMPO DO FAZENDA CASA DE VARANDA COLONIAL PROC VILMA TEL 26336448                                                                                                                                                                                                                                                                                                                                                                                                                                                                                                                               
01                              37353     274 199 9055635                                                                                   40004319901062013                                                              00011252114745PATRICIA FREITAS DE SOUZA                                                                           62 13                                                                                               NOVA MARILIA                  MAGE                                              RJ                    25900000                                                                                                                                                                                                                                                          OM0000002167409012PROX A ANTIGA GRANJA DEP DO SITIO PANTANAL PROX AO BAR DA CIDA PROC PATRICIA OU ANDREIA  (21)67409012                                                                                                                                                                                                                                                                                                                                                                                                                                                                                                        
01                              37370     274 199 9055635                                                                                   40004919901062013                                                              00012398670775VIVIANE SILVA DA CUNHA                                                                              DAS OLIVEIRAS 105 SANTO ALEIXO                                                                      GANDE                         MAGE                                              RJ                    25900000                                                                                                                                                                                                                                                          OM0000000000000000NA RUA DO BAR GAROTA DE GANDE PROC VALTER TEL 36320459                                                                                                                                                                                                                                                                                                                                                                                                                                                                                                                                                       
01                              39541     213 199 9056075                                                                                   40004819901062013                                                              00002141129770JUPIRACY FERREIRA                                                                                   126 111 JARDIM DA PAZ                                                                               MAUA                          MAGE                                              RJ                    25930000                                                                                                                                                                                                                                                          OM0000002186032653                                                                                                                                                                                                                                                                                                                                                                                                                                                                                                                                                                                                             
01                              39662     213 199 9056075                                                                                   40004719901062013                                                              00012067136747MARCIA LEANDRA LIMA RODRIGUES                                                                       126 304                                                                                             MAUA                          MAGE                                              RJ                    25930000                                                                                                                                                                                                                                                          OM0000000000000000ENTRAR NA RUA 57 SETIMA RUA A ESQ PROC MARILDA  - (21)97904197 - (21)97744189                                                                                                                                                                                                                                                                                                                                                                                                                                                                                                                                
01                              37139     274 199 9052650                                                                                   40004619901062013                                                              00088626920725VALDEIR SILVA CONDE                                                                                 E 0 QD 07 LT 08 CASA 01                                                                             BARAO DE IRIRI                MAGE                                              RJ                    25900000                                                                                                                                                                                                                                                          OM0000002136328095TROCA SEM RECOLHER PROX AO BAR DA TIA PROC POR VAL TEL - (21)36328095 - (21)97528658 LIGAR ANTES DA ENTREGA E DA MONTAGE                                                                                                                                                                                                                                                                                                                                                                                                                                                                                     
02                                         743110                        39532     185263    G.ROUPA ARAMOVEIS 6P2G BRASIL CZ/PTO                                                                1                      10062013                                                                                                                                                                                                                                                          000000000000000000000000000000000000000100                                                                                                                                                                                                                                                                                                                                                                                                                                                                                                                                                                                                                                                                                                                                                                                                                                                                                                                    
02                                         743111                        39539     137048    CADEIRA RUFATO VENEZA AMEN/PTO                                                                      1                      10062013                                                                                                                                                                                                                                                          000000000000000000000000000000000000000400                                                                                                                                                                                                                                                                                                                                                                                                                                                                                                                                                                                                                                                                                                                                                                                                                                                                                                                    
02                                         743112                        34600     142397    EST HOME DJ BRAVO VULC/PTO                                                                          1                      10062013                                                                                                                                                                                                                                                          000000000000000000000000000000000000000100                                                                                                                                                                                                                                                                                                                                                                                                                                                                                                                                                                                                                                                                                                                                                                                                                                                                                                                    
02                                         743113                        37316     142397    EST HOME DJ BRAVO VULC/PTO                                                                          1                      10062013                                                                                                                                                                                                                                                          000000000000000000000000000000000000000100                                                                                                                                                                                                                                                                                                                                                                                                                                                                                                                                                                                                                                                                                                                                                                                                                                                                                                                    
02                                         743114                        36013     155455    G.ROUPA EURO 3P ORION PAT/TE/CI                                                                     1                      10062013                                                                                                                                                                                                                                                          000000000000000000000000000000000000000100                                                                                                                                                                                                                                                                                                                                                                                                                                                                                                                                                                                                                                                                                                                                                                                                                                                                                                                    
02                                         743115                        36232     154454    COMODA ESC RV IMOLA II IMB/PTO                                                                      1                      10062013                                                                                                                                                                                                                                                          000000000000000000000000000000000000000100                                                                                                                                                                                                                                                                                                                                                                                                                                                                                                                                                                                                                                                                                                                                                                                                                                                                                                                    
02                                         743116                        37379     185260    G.ROUPA ARAMOVEIS  4P3G BRASIL BR/FE                                                                1                      10062013                                                                                                                                                                                                                                                          000000000000000000000000000000000000000100                                                                                                                                                                                                                                                                                                                                                                                                                                                                                                                                                                                                                                                                                                                                                                                                                                                                                                                    
02                                         743117                        37338     182574    COZINHA INDEKES BIA BR/ACA                                                                          1                      10062013                                                                                                                                                                                                                                                          000000000000000000000000000000000000000100                                                                                                                                                                                                                                                                                                                                                                                                                                                                                                                                                                                                                                                                                                                                                                                                                                                                                                                    
02                                         743118                        39634     183255    COZ ARAMOVEIS CRIS BR/CZ                                                                            1                      10062013                                                                                                                                                                                                                                                          000000000000000000000000000000000000000100                                                                                                                                                                                                                                                                                                                                                                                                                                                                                                                                                                                                                                                                                                                                                                                                                                                                                                                    
02                                         743119                        39656     185260    G.ROUPA ARAMOVEIS  4P3G BRASIL BR/FE                                                                1                      10062013                                                                                                                                                                                                                                                          000000000000000000000000000000000000000100                                                                                                                                                                                                                                                                                                                                                                                                                                                                                                                                                                                                                                                                                                                                                                                                                                                                                                                    
02                                         743119                        39656     185260    G.ROUPA ARAMOVEIS  4P3G BRASIL BR/FE                                                                1                      10062013                                                                                                                                                                                                                                                          000000000000000000000000000000000000000200                                                                                                                                                                                                                                                                                                                                                                                                                                                                                                                                                                                                                                                                                                                                                                                                                                                                                                                    
02                                         743120                        37331     185260    G.ROUPA ARAMOVEIS  4P3G BRASIL BR/FE                                                                1                      10062013                                                                                                                                                                                                                                                          000000000000000000000000000000000000000100                                                                                                                                                                                                                                                                                                                                                                                                                                                                                                                                                                                                                                                                                                                                                                                                                                                                                                                    
02                                         743121                        39639     183255    COZ ARAMOVEIS CRIS BR/CZ                                                                            1                      10062013                                                                                                                                                                                                                                                          000000000000000000000000000000000000000100                                                                                                                                                                                                                                                                                                                                                                                                                                                                                                                                                                                                                                                                                                                                                                                                                                                                                                                    
02                                         743122                        37083     156271    CAB BOX GELIUS MELISSA 1,40 AMEN/PTO                                                                1                      10062013                                                                                                                                                                                                                                                          000000000000000000000000000000000000000100                                                                                                                                                                                                                                                                                                                                                                                                                                                                                                                                                                                                                                                                                                                                                                                                                                                                                                                    
02                                         743123                        39700     185260    G.ROUPA ARAMOVEIS  4P3G BRASIL BR/FE                                                                1                      10062013                                                                                                                                                                                                                                                          000000000000000000000000000000000000000100                                                                                                                                                                                                                                                                                                                                                                                                                                                                                                                                                                                                                                                                                                                                                                                                                                                                                                                    
02                                         743124                        39670     185260    G.ROUPA ARAMOVEIS  4P3G BRASIL BR/FE                                                                1                      10062013                                                                                                                                                                                                                                                          000000000000000000000000000000000000000100                                                                                                                                                                                                                                                                                                                                                                                                                                                                                                                                                                                                                                                                                                                                                                                                                                                                                                                    
02                                         743125                        37005     185397    G.ROUPA ARAPLAC 6P4G FRANCA BR/MOSA                                                                 1                      10062013                                                                                                                                                                                                                                                          000000000000000000000000000000000000000100                                                                                                                                                                                                                                                                                                                                                                                                                                                                                                                                                                                                                                                                                                                                                                                                                                                                                                                    
02                                         743126                        24171     140092    G.ROUPA BERGAMO 6P LAZIO IMB/PTO                                                                    1                      10062013                                                                                                                                                                                                                                                          000000000000000000000000000000000000000100                                                                                                                                                                                                                                                                                                                                                                                                                                                                                                                                                                                                                                                                                                                                                                                                                                                                                                                    
02                                         743127                        37265     185263    G.ROUPA ARAMOVEIS 6P2G BRASIL CZ/PTO                                                                1                      10062013                                                                                                                                                                                                                                                          000000000000000000000000000000000000000100                                                                                                                                                                                                                                                                                                                                                                                                                                                                                                                                                                                                                                                                                                                                                                                                                                                                                                                    
02                                         743128                        39522     185263    G.ROUPA ARAMOVEIS 6P2G BRASIL CZ/PTO                                                                1                      10062013                                                                                                                                                                                                                                                          000000000000000000000000000000000000000100                                                                                                                                                                                                                                                                                                                                                                                                                                                                                                                                                                                                                                                                                                                                                                                                                                                                                                                    
02                                         743129                        39322     185256    G.ROUPA ARAMOVEIS 3P3G NAPOLE BR/FE                                                                 1                      10062013                                                                                                                                                                                                                                                          000000000000000000000000000000000000000100                                                                                                                                                                                                                                                                                                                                                                                                                                                                                                                                                                                                                                                                                                                                                                                                                                                                                                                    
02                                         743130                        32416     154614    G.ROUPA EURO 2P ESP.GALATA PAT/CIL                                                                  1                      10062013                                                                                                                                                                                                                                                          000000000000000000000000000000000000000100                                                                                                                                                                                                                                                                                                                                                                                                                                                                                                                                                                                                                                                                                                                                                                                                                                                                                                                    
02                                         743131                        37223     185263    G.ROUPA ARAMOVEIS 6P2G BRASIL CZ/PTO                                                                1                      10062013                                                                                                                                                                                                                                                          000000000000000000000000000000000000000100                                                                                                                                                                                                                                                                                                                                                                                                                                                                                                                                                                                                                                                                                                                                                                                                                                                                                                                    
02                                         743132                        37182     185263    G.ROUPA ARAMOVEIS 6P2G BRASIL CZ/PTO                                                                1                      10062013                                                                                                                                                                                                                                                          000000000000000000000000000000000000000100                                                                                                                                                                                                                                                                                                                                                                                                                                                                                                                                                                                                                                                                                                                                                                                                                                                                                                                    
02                                         743133                        39539     137021    MESA RUFATO VENEZA VD1.60 AMEN/PTO                                                                  1                      10062013                                                                                                                                                                                                                                                          000000000000000000000000000000000000000100                                                                                                                                                                                                                                                                                                                                                                                                                                                                                                                                                                                                                                                                                                                                                                                                                                                                                                                    
02                                         743133                        39539     137048    CADEIRA RUFATO VENEZA AMEN/PTO                                                                      1                      10062013                                                                                                                                                                                                                                                          000000000000000000000000000000000000000300                                                                                                                                                                                                                                                                                                                                                                                                                                                                                                                                                                                                                                                                                                                                                                                                                                                                                                                    
02                                         743133                        39539     137048    CADEIRA RUFATO VENEZA AMEN/PTO                                                                      1                      10062013                                                                                                                                                                                                                                                          000000000000000000000000000000000000000500                                                                                                                                                                                                                                                                                                                                                                                                                                                                                                                                                                                                                                                                                                                                                                                                                                                                                                                    
02                                         743134                        37236     185263    G.ROUPA ARAMOVEIS 6P2G BRASIL CZ/PTO                                                                1                      10062013                                                                                                                                                                                                                                                          000000000000000000000000000000000000000100                                                                                                                                                                                                                                                                                                                                                                                                                                                                                                                                                                                                                                                                                                                                                                                                                                                                                                                    
