00                       20130603120127PREVIMONT                     RICARDO ELETRO                                                                                      64282601004457     100646    JULIANA - 14                                                                                                                                                                                                                                                                                                                                                                                                                                                                                                                                                                                                                                                                                                                                                                                                                                                                                                                                                                                                                                                                                                                                                                                                                                      
01                              23332     198 199 9050821                                                                                   39941719901062013                                                              00009238005737VANESSA FISCHER DE CASTILHO                                                                         LOURENCO CAMPOS 127 FRENTE                                                                          VILA TIRADENTES               SAO JOAO DE MERITI                                RJ                    25520711                                                                                                                                                                                                                                                          OM0000000000000000                                                                                                                                                                                                                                                                                                                                                                                                                                                                                                                                                                                                             
01                              131185    179 199 9028414                                                                                   39941919901062013                                                              00007650073718ROSANE SOARES DE OLIVEIRA                                                                           TULIPA 0 28 QD 128                                                                                  JARDIM METROPOLE              SAO JOAO DE MERITI                                RJ                    25580500                                                                                                                                                                                                                                                          OM0000002127530534PROX AO PONTO FINAL DO ONIBUS CORREA MEIER PROC FABRICA DE GAIOLA (21)27530534 - (21)84389793                                                                                                                                                                                                                                                                                                                                                                                                                                                                                                                
01                              131052    179 199 9051404                                                                                   39941819901062013                                                              00092822215715CARLOS JOSE DO NASCIMENTO                                                                           BENEDITO DE MOURA 18                                                                                SAO JOAO DE MERITI            SAO JOAO DE MERITI                                RJ                    25510370                                                                                                                                                                                                                                                          OM0000000000000000DEPOIS DA FABIUS EM FRENTE A FABRICA DE PANELAS PROC PELO CARLOS (21)26746934                                                                                                                                                                                                                                                                                                                                                                                                                                                                                                                                
01                              30392     236 199 9054814                                                                                   39942119901062013                                                              00000497880784LUIZ ELIAS DO AMARAL                                                                                CHUMBO 334                                                                                          COELHO DA ROCHA               SAO JOAO DE MERITI                                RJ                    25550270                                                                                                                                                                                                                                                          OM0000000000000000PROX HOSPITAL INFANTIL JOAO 23                                                                                                                                                                                                                                                                                                                                                                                                                                                                                                                                                                               
01                              26537     198 199 9039455                                                                                   39942319901062013                                                              00011432718746DANIELLE FIRMINO DA SILVA                                                                           TOQUIO 77                                                                                           AGOSTINHO PORTO               SAO JOAO DE MERITI                                RJ                    25525360                                                                                                                                                                                                                                                          OM0000000000000000X A RUA GUIMARAES PRC DANIELLE                                                                                                                                                                                                                                                                                                                                                                                                                                                                                                                                                                               
01                              43019     195 199 9064538                                                                                   39941519901062013                                                              00009884196702SANDRA JACQUELINE DIAS DA SILVA                                                                     SAPARUI 0 LT 13 QD B                                                                                COELHO DA ROCHA               SAO JOAO DE MERITI                                RJ                    25550531                                                                                                                                                                                                                                                          OM0000002127573589PROX AO POSTO DE SAUDE DO SARAPUI FALAR COM SANDRA 37570587                                                                                                                                                                                                                                                                                                                                                                                                                                                                                                                                                  
01                              44033     195 199 9069391                                                                                   39942419901062013                                                              00010553065793ANDERSON VICTOR DA SILVA                                                                            RUA TOQUIO 1778 FUNDOS                                                                              AGOSTINHO PORTO               SAO JOAO DE MERITI                                RJ                    78978978                                                                                                                                                                                                                                                          OM0000000000000000PROX A DUTRA A IGREJA BASTISTA  PROC ADRIANA TEL (21)97693903 - (21)9775018                                                                                                                                                                                                                                                                                                                                                                                                                                                                                                                                  
01                              44024     195 199 9058186                                                                                   39954819901062013                                                              00003359388763REGINA ALVES MACIEL                                                                                 SALVADOR 16                                                                                         VILA SAO JOAO                 SAO JOAO DE MERITI                                RJ                    25570242                                                                                                                                                                                                                                                          OM0000002192420430PRX A QUADRA DO COQUITO CHAMAR POR DANIELA TEL 21 75611613                                                                                                                                                                                                                                                                                                                                                                                                                                                                                                                                                   
01                              42893     195 199 9064538                                                                                   40074619902062013                                                              00070054827787VERA LUCIA JANUARIO DE MOURA                                                                        TUCAO 290                                                                                           JARDIM PARAISO                SAO JOAO DE MERITI                                RJ                    25561231                                                                                                                                                                                                                                                          OM0000000000000000PROX A BARRACA DO PONPEU FALAR CO TATIANA OU VERA - (21)27527954                                                                                                                                                                                                                                                                                                                                                                                                                                                                                                                                             
01                              131047    179 199 9067767                                                                                   39955819901062013                                                              00085831247791MARCUS DE CASTRO LIMA                                                                               COPACABANA 22                                                                                       VILAR DOS TELES               SAO JOAO DE MERITI                                RJ                    25580000                                                                                                                                                                                                                                                          OM0000002127511563PROX AO SUPERMECADO UNIDOS PROC POR SR MARCUS OU NICE TEL  (21)27511563 - (21)74845469                                                                                                                                                                                                                                                                                                                                                                                                                                                                                                                       
01                              115537    179 199 9051404                                                                                   39955719901062013                                                              00058141324772DAVILSON PEDRO FELIX                                                                                AV AUTOMOVEL CLUBE 0 LT 15 QD J                                                                     VILAR DOS TELES               SAO JOAO DE MERITI                                RJ                    25561170                                                                                                                                                                                                                                                          OM0000000000000000PROXIMO AS TRES PONTES MINI POSTO DE SAUDE TUCAO PROC PELA ROSE TEL 27574319                                                                                                                                                                                                                                                                                                                                                                                                                                                                                                                                 
01                              131258    179 199 9067767                                                                                   39954619901062013                                                              00016173458730BEATRIZ MOUTINHO ATAIDE SANTOS                                                                      OUVIDOR 87 QD135                                                                                    JARDIM OLAVO BILAC            SAO JOAO DE MERITI                                RJ                    25580451                                                                                                                                                                                                                                                          OM0000002137579025FICA AO LADO DA CASA DO CARROSSEIRO PESCOCO PROCPORBEATRIZ OU DEBORA TEL  (21)37579025 - (21)88037053                                                                                                                                                                                                                                                                                                                                                                                                                                                                                                        
01                              38684     195 199 9036477                                                                                   39955419901062013                                                              00014915153762DANIEL DE SOUZA COUTO                                                                               CAMBUCI 0 QD 49 LT 3                                                                                VILA SAO JOAO                 SAO JOAO DE MERITI                                RJ                    25570173                                                                                                                                                                                                                                                          OM0000002137521834TROCA COM RECOLHIMENTO DEPOIS DO SOBEC A PRIMEIRA A ESQUERDA RECEB SR DANIEL TEL 37521834                                                                                                                                                                                                                                                                                                                                                                                                                                                                                                                    
01                              129443    179 199 9067767                                                                                   39955319901062013                                                              00001384519742MARIA HELENA VIEIRA CORREA                                                                          JOAO VENANCIO ROSA 9 QD3                                                                            JARDIM METROPOLE              SAO JOAO DE MERITI                                RJ                    25575241                                                                                                                                                                                                                                                          OM0000002137573363CASA AGARRADO NO COLEGIO MSILA RESENDE PROC POR SRA MARIA HELENA TEL- (21)37573363                                                                                                                                                                                                                                                                                                                                                                                                                                                                                                                           
01                              34102     236 199 9062288                                                                                   39954019901062013                                                              00014876747750DAIANA CRISTINA PINTO VILLELA                                                                       JOAO DE DEUS MENEZES 4 FUNDUS                                                                       VENDA VELHA                   SAO JOAO DE MERITI                                RJ                    25565540                                                                                                                                                                                                                                                          OM0000000000000000PX A ANTIGA GARAGEM DA VIACAO BEIRA MAR ANTES DO CEMITERIO TEL 71917799                                                                                                                                                                                                                                                                                                                                                                                                                                                                                                                                      
01                              31068     236 199 9068726                                                                                   39953919901062013                                                              00009124050741CARLOS ALBERTO DELFINO MARTINS                                                                      AUSTRALIANA 2 20 QD46                                                                               JARDIM MERITI                 SAO JOAO DE MERITI                                RJ                    25555580                                                                                                                                                                                                                                                          OM0000000000000000PROXIMO AO BATALHAO 21 OU EM FRENTE AO TRT 2195732601 97988697                                                                                                                                                                                                                                                                                                                                                                                                                                                                                                                                               
01                              44016     195 199 9069866                                                                                   39956319901062013                                                              00001125635703LUIZ CARLOS                                                                                         PRINCESA ISABEL 0 LT 23 QD 27 F                                                                     VILAR DOS TELES               SAO JOAO DE MERITI                                RJ                    25561110                                                                                                                                                                                                                                                          OM0000000000000000                                                                                                                                                                                                                                                                                                                                                                                                                                                                                                                                                                                                             
01                              45286     169 199 9033939                                                                                   39954219901062013                                                              00013560371783THUANNY ANDRADE DA COSTA                                                                            JACATIRAO 182 111                                                                                   VILAR DOS TELES               SAO JOAO DE MERITI                                RJ                    25561411                                                                                                                                                                                                                                                          OM0000002180963620REF PX AO BANCO ITAU TEL 80963620 PROC  ELIAS CARLOS                                                                                                                                                                                                                                                                                                                                                                                                                                                                                                                                                         
01                              26665     198 199 9050821                                                                                   39954119901062013                                                              00010237139774VALERIA TAVARES DO DESTERRO                                                                         AV NILO PECANHA 8 QD 0 CASA 03                                                                      VILAR DOS TELES               SAO JOAO DE MERITI                                RJ                    25560520                                                                                                                                                                                                                                                          OM0000002137577165FABRICA DE GELO AO EM FRENTE A PADARIA PROC RONALDO OU VALERIA                                                                                                                                                                                                                                                                                                                                                                                                                                                                                                                                               
01                              29991     236 199 9062288                                                                                   39956019901062013                                                              00014187290788RAQUEL ELANE TAVARES DE MELLO                                                                       MARICA 259 L CSA 1                                                                                  VILA SAO JOAO                 SAO JOAO DE MERITI                                RJ                    25570669                                                                                                                                                                                                                                                          OM0000000000000000PX A PRACA DO CAMILO ATRAS DO COLEGIO VASCO AFONSO TEL 77088249                                                                                                                                                                                                                                                                                                                                                                                                                                                                                                                                              
01                              43339     195 199 9058696                                                                                   39953819901062013                                                              00003551605793MARDONIO DOS SANTOS                                                                                 SEVERINO TOME DOS SANTOS 213 CASA                                                                   VILAR DOS TELES               SAO JOAO DE MERITI                                RJ                    25560472                                                                                                                                                                                                                                                          OM0000002137549872TROCA SEM RECOLHIMENTO PROX PROX DO TOLDO DO FLUMINENCE PROX DO CIEP 73736608                                                                                                                                                                                                                                                                                                                                                                                                                                                                                                                                
01                              131132    179 199 9067767                                                                                   39956219901062013                                                              00088311511772JORGINA NUNES DE SOUZA                                                                              ESTUDANTE GALDENCIO MIGUEL 472                                                                      JARDIM MERITI                 SAO JOAO DE MERITI                                RJ                    25555240                                                                                                                                                                                                                                                          OM0000000000000000PROX AO MUNDO DOS PISOS ANTIGA RUA NATAL PROC POR SRA JORGINA TEL32464774                                                                                                                                                                                                                                                                                                                                                                                                                                                                                                                                    
01                              34035     212 199 9031512                                                                                   39953719901062013                                                              00005692419793ROMUALDO ALVES SILVEIRA JUNIOR                                                                      TUBIACANGA 100                                                                                      PARQUE ARARUAMA               SAO JOAO DE MERITI                                RJ                    25585210                                                                                                                                                                                                                                                          OM0000000000000000EM FRENTE A IGREJA BATISTA NO SALAO DE CABELEIREIRA STUDIO MONICA ALVES PROC MONICA OU JUNIOR TEL 78848070                                                                                                                                                                                                                                                                                                                                                                                                                                                                                                   
01                              26705     198 199 9050026                                                                                   39940019901062013                                                              00072913711715ZENAIDE DA CRUZ MARCELINO                                                                           LAURINDA COSTA 76                                                                                   VILA TIRADENTES               SAO JOAO DE MERITI                                RJ                    25525390                                                                                                                                                                                                                                                          OM0000002176846294ESQ CM A RUA DR LUCIO PERTTO DO TRAILLER DO CARLAO PRC SRA ZENAIDE DEP 67 PCS 73782579                                                                                                                                                                                                                                                                                                                                                                                                                                                                                                                       
01                              30373     236 199 9062288                                                                                   39940719901062013                                                              00011941706762LEONARDO SOUZA DA ROCHA                                                                             MARIA EMILIA 685 SBD                                                                                CENTRO                        SAO JOAO DE MERITI                                RJ                    25515011                                                                                                                                                                                                                                                          OM0000000000000000PROXIMO AO RODO NA ENTRADA DA RUA DO HOTEL PRINCIPAL PX AO VIADULTO TEL 87887376                                                                                                                                                                                                                                                                                                                                                                                                                                                                                                                             
01                              30624     236 199 9062288                                                                                   39940419901062013                                                              00014601751748MURILO BARRETO CARREIRO DE ABREU                                                                    SANTO ANTONIO 66 102                                                                                CENTRO                        SAO JOAO DE MERITI                                RJ                    25515260                                                                                                                                                                                                                                                          OM0000000000000000AO LADO DO MERCADOS EXTRA DE SAO JOAO DE MERITI TEL 71211944 AC SRA CRISTINA                                                                                                                                                                                                                                                                                                                                                                                                                                                                                                                                 
02                                         743183                        23332     154614    G.ROUPA EURO 2P ESP.GALATA PAT/CIL                                                                  1                      12062013                                                                                                                                                                                                                                                          000000000000000000000000000000000000000300                                                                                                                                                                                                                                                                                                                                                                                                                                                                                                                                                                                                                                                                                                                                                                                                                                                                                                                    
02                                         743184                        131185    158440    MESA COMP.CAEMMUN TECNO NEBL/PTO                                                                    1                      12062013                                                                                                                                                                                                                                                          000000000000000000000000000000000000000100                                                                                                                                                                                                                                                                                                                                                                                                                                                                                                                                                                                                                                                                                                                                                                                                                                                                                                                    
02                                         743185                        131052    185264    G.ROUPA ARAMOVEIS 6P2G BRASIL BR/FE                                                                 1                      12062013                                                                                                                                                                                                                                                          000000000000000000000000000000000000000100                                                                                                                                                                                                                                                                                                                                                                                                                                                                                                                                                                                                                                                                                                                                                                                                                                                                                                                    
02                                         743186                        30392     154739    G.ROUPA EURO 3P ESP.PALLAS BR/PTO                                                                   1                      12062013                                                                                                                                                                                                                                                          000000000000000000000000000000000000000100                                                                                                                                                                                                                                                                                                                                                                                                                                                                                                                                                                                                                                                                                                                                                                                                                                                                                                                    
02                                         743187                        26537     140095    G.ROUPA BERGAMO 5P LISBOA IMB/PTO                                                                   1                      12062013                                                                                                                                                                                                                                                          000000000000000000000000000000000000000100                                                                                                                                                                                                                                                                                                                                                                                                                                                                                                                                                                                                                                                                                                                                                                                                                                                                                                                    
02                                         743188                        43019     88621     COZ COMP COLOR ECLIPSE TOP BR                                                                       1                      12062013                                                                                                                                                                                                                                                          000000000000000000000000000000000000000100                                                                                                                                                                                                                                                                                                                                                                                                                                                                                                                                                                                                                                                                                                                                                                                                                                                                                                                    
02                                         743189                        44033     152556    KIT COZ.IRMOL ACUCENA BR/PTO                                                                        1                      12062013                                                                                                                                                                                                                                                          000000000000000000000000000000000000000100                                                                                                                                                                                                                                                                                                                                                                                                                                                                                                                                                                                                                                                                                                                                                                                                                                                                                                                    
02                                         743190                        44024     185263    G.ROUPA ARAMOVEIS 6P2G BRASIL CZ/PTO                                                                1                      12062013                                                                                                                                                                                                                                                          000000000000000000000000000000000000000100                                                                                                                                                                                                                                                                                                                                                                                                                                                                                                                                                                                                                                                                                                                                                                                                                                                                                                                    
02                                         743191                        42893     185776    GR ARAPLAC 10PC/P VIENA PLUS TB/GRAF                                                                1                      12062013                                                                                                                                                                                                                                                          000000000000000000000000000000000000000100                                                                                                                                                                                                                                                                                                                                                                                                                                                                                                                                                                                                                                                                                                                                                                                                                                                                                                                    
02                                         743192                        131047    183255    COZ ARAMOVEIS CRIS BR/CZ                                                                            1                      12062013                                                                                                                                                                                                                                                          000000000000000000000000000000000000000100                                                                                                                                                                                                                                                                                                                                                                                                                                                                                                                                                                                                                                                                                                                                                                                                                                                                                                                    
02                                         743193                        115537    154739    G.ROUPA EURO 3P ESP.PALLAS BR/PTO                                                                   1                      12062013                                                                                                                                                                                                                                                          000000000000000000000000000000000000000100                                                                                                                                                                                                                                                                                                                                                                                                                                                                                                                                                                                                                                                                                                                                                                                                                                                                                                                    
02                                         743194                        131258    185263    G.ROUPA ARAMOVEIS 6P2G BRASIL CZ/PTO                                                                1                      12062013                                                                                                                                                                                                                                                          000000000000000000000000000000000000000100                                                                                                                                                                                                                                                                                                                                                                                                                                                                                                                                                                                                                                                                                                                                                                                                                                                                                                                    
02                                         743195                        38684     152539    G.ROUPA IRMOL 8P3G FORTALEZA BR/PTO                                                                 1                      12062013                                                                                                                                                                                                                                                          000000000000000000000000000000000000000200                                                                                                                                                                                                                                                                                                                                                                                                                                                                                                                                                                                                                                                                                                                                                                                                                                                                                                                    
02                                         743196                        129443    139496    KIT ITAT.I3 PREMIUM 6P/3G BR                                                                        1                      12062013                                                                                                                                                                                                                                                          000000000000000000000000000000000000000100                                                                                                                                                                                                                                                                                                                                                                                                                                                                                                                                                                                                                                                                                                                                                                                                                                                                                                                    
02                                         743197                        34102     185263    G.ROUPA ARAMOVEIS 6P2G BRASIL CZ/PTO                                                                1                      12062013                                                                                                                                                                                                                                                          000000000000000000000000000000000000000100                                                                                                                                                                                                                                                                                                                                                                                                                                                                                                                                                                                                                                                                                                                                                                                                                                                                                                                    
02                                         743198                        31068     154740    G.ROUPA EURO 3P ESP.PALLAS PAT/TE/CI                                                                1                      12062013                                                                                                                                                                                                                                                          000000000000000000000000000000000000000100                                                                                                                                                                                                                                                                                                                                                                                                                                                                                                                                                                                                                                                                                                                                                                                                                                                                                                                    
02                                         743199                        44016     152556    KIT COZ.IRMOL ACUCENA BR/PTO                                                                        1                      12062013                                                                                                                                                                                                                                                          000000000000000000000000000000000000000100                                                                                                                                                                                                                                                                                                                                                                                                                                                                                                                                                                                                                                                                                                                                                                                                                                                                                                                    
02                                         743200                        45286     182314    COZINHA INDEKES BIA BR/GRAF                                                                         1                      12062013                                                                                                                                                                                                                                                          000000000000000000000000000000000000000100                                                                                                                                                                                                                                                                                                                                                                                                                                                                                                                                                                                                                                                                                                                                                                                                                                                                                                                    
02                                         743200                        45286     182316    BALCAO INDEKES BIA BR/GRAF                                                                          1                      12062013                                                                                                                                                                                                                                                          000000000000000000000000000000000000000200                                                                                                                                                                                                                                                                                                                                                                                                                                                                                                                                                                                                                                                                                                                                                                                                                                                                                                                    
02                                         743201                        26665     155899    MESA COMP.EDN LIVIA CARV/PTO                                                                        1                      12062013                                                                                                                                                                                                                                                          000000000000000000000000000000000000000100                                                                                                                                                                                                                                                                                                                                                                                                                                                                                                                                                                                                                                                                                                                                                                                                                                                                                                                    
02                                         743202                        29991     154614    G.ROUPA EURO 2P ESP.GALATA PAT/CIL                                                                  1                      12062013                                                                                                                                                                                                                                                          000000000000000000000000000000000000000100                                                                                                                                                                                                                                                                                                                                                                                                                                                                                                                                                                                                                                                                                                                                                                                                                                                                                                                    
02                                         743203                        43339     155462    G.ROUPA EURO 3P RUBI ESP PL/PT/PL                                                                   1                      12062013                                                                                                                                                                                                                                                          000000000000000000000000000000000000000100                                                                                                                                                                                                                                                                                                                                                                                                                                                                                                                                                                                                                                                                                                                                                                                                                                                                                                                    
02                                         743204                        131132    185263    G.ROUPA ARAMOVEIS 6P2G BRASIL CZ/PTO                                                                1                      12062013                                                                                                                                                                                                                                                          000000000000000000000000000000000000000100                                                                                                                                                                                                                                                                                                                                                                                                                                                                                                                                                                                                                                                                                                                                                                                                                                                                                                                    
02                                         743205                        34035     156361    PAINEL DJ ASTRO CARV/PTO                                                                            1                      12062013                                                                                                                                                                                                                                                          000000000000000000000000000000000000000100                                                                                                                                                                                                                                                                                                                                                                                                                                                                                                                                                                                                                                                                                                                                                                                                                                                                                                                    
02                                         743206                        26705     185264    G.ROUPA ARAMOVEIS 6P2G BRASIL BR/FE                                                                 1                      12062013                                                                                                                                                                                                                                                          000000000000000000000000000000000000000100                                                                                                                                                                                                                                                                                                                                                                                                                                                                                                                                                                                                                                                                                                                                                                                                                                                                                                                    
02                                         743207                        30373     154739    G.ROUPA EURO 3P ESP.PALLAS BR/PTO                                                                   1                      12062013                                                                                                                                                                                                                                                          000000000000000000000000000000000000000100                                                                                                                                                                                                                                                                                                                                                                                                                                                                                                                                                                                                                                                                                                                                                                                                                                                                                                                    
02                                         743208                        30624     154740    G.ROUPA EURO 3P ESP.PALLAS PAT/TE/CI                                                                1                      12062013                                                                                                                                                                                                                                                          000000000000000000000000000000000000000100                                                                                                                                                                                                                                                                                                                                                                                                                                                                                                                                                                                                                                                                                                                                                                                                                                                                                                                    
99                       000055                                                                                                                                                                                                                                                                                                                                                                                                                                                                                                                                                                                                                                                                                                                                                                                                                                                                                                                                                                                                                                                                                                                                                                                                                                                                                                                                                                                                                         