00                       20130603144653PREVIMONT                     RICARDO ELETRO                                                                                      64282601004457     100377    NITERÓI                                                                                                                                                                                                                                                                                                                                                                                                                                                                                                                                                                                                                                                                                                                                                                                                                                                                                                                                                                                                                                                                                                                                                                                                                                           
01                              45438     169 199 9033939                                                                                   39977919901062013                                                              00010867870729RAFAEL CARVALHO DE LUCENA                                                                           CAMELIAS 0 23 LT 17 CASA 06                                                                         COSTA VERDE                   MARICA                                            RJ                    24900000                                                                                                                                                                                                                                                          OM0000002127102340REF PX AO COLEGIO CEI TEL 88302151  PROC SRA VALERIA                                                                                                                                                                                                                                                                                                                                                                                                                                                                                                                                                         
01                              42742     181 199 9030013                                                                                   39977819901062013                                                              00026227886734EDSON SOARES PINTO                                                                                  RODRIGUES ALVES DE ABREU RANGEL 117 4 PORT 117                                                      CENTRO                        MARICA                                            RJ                    24900000                                                                                                                                                                                                                                                          OM000000000000000098059328 98930090 AO LADO DO COLEGIO HMS ATRAZ DA RODOVIARIA PROC EDSON OU MARILDA                                                                                                                                                                                                                                                                                                                                                                                                                                                                                                                           
01                              65471     215 199 9029518                                                                                   39978419901062013                                                              00009970361767ELIANE PINTO DO ROSARIO                                                                             RUA DO CANAL 120 CASA                                                                               SAO JOSE DE IMBASAI           MARICA                                            RJ                    24901000                                                                                                                                                                                                                                                          OM0000002195233042ENTRAR NA RUA DA PASSARELA APOS A PONTE 1 RUA DIR PROX AO BAR DA DONA PENHA PRC ELIANE FILHA DE DEMIR PESCADOR 95233042                                                                                                                                                                                                                                                                                                                                                                                                                                                                                      
01                              45408     169 199 9033916                                                                                   39976219901062013                                                              00058797580287WESLEY FERREIRA DA SILVA                                                                            TRINTA 0 16 QUADRA 94 CASA 02                                                                       ITAIPUACU                     MARICA                                            RJ                    24900001                                                                                                                                                                                                                                                          OM0000000000000000FICA PROX   PRACA DA AV VITORIA REGIA CONTATO CLIENTE ELAINE TEL 80275646 URGENCIA                                                                                                                                                                                                                                                                                                                                                                                                                                                                                                                           
01                              42451     181 199 9030013                                                                                   39976119901062013                                                              00012620035716RODRIGO DE AZEVEDO FARIAS                                                                           ESTRADA VELHA DE MARICA 1 LT 06 CS 03                                                               PONTA GROSSA                  MARICA                                            RJ                    24900000                                                                                                                                                                                                                                                          OM000000000000000075000704 APOS O BAR DO ISALTINO AO LADO DA MARCENARIA DO WILLIAM PROC JULIANA OU RODRIGO                                                                                                                                                                                                                                                                                                                                                                                                                                                                                                                     
01                              66475     215 199 9069402                                                                                   39976019901062013                                                              00013529615714MARCIO DE ABREU MALDONADO                                                                           AURELIO SIMAO DE FREITAS 23                                                                         SAO JOSE DE IMBASAI           MARICA                                            RJ                    24900000                                                                                                                                                                                                                                                          OM0000002126368121FICA DEPOS DA PASSARELA DO KM21 EM SAO J DE EMBASSAI PROX DO BAR DO LUIZ PROC MARCIO OU ADELIR TEL 88051058                                                                                                                                                                                                                                                                                                                                                                                                                                                                                                  
01                              45122     169 199 9033916                                                                                   39976519901062013                                                              00002239139790JOSE ROBERTO MARCOLINO DA SILVA                                                                     MARQUES DE MARICA 0 28 QUADRA 11                                                                    MARQUES DE MARICA             MARICA                                            RJ                    24900000                                                                                                                                                                                                                                                          OM0000000000000000ENTRAR NO KM 31 DA AMARAL PEIXOTO APOS O BAR DO ADELAR CONT TELE FONICO CLIENTE 37314486 OU 72348078                                                                                                                                                                                                                                                                                                                                                                                                                                                                                                         
01                              42621     181 199 9058566                                                                                   39976419901062013                                                              00004809898776CATIA MARIA DOS SANTOS                                                                              ESPERANCA 8 QD 19                                                                                   CHACARA DE INOA               MARICA                                            RJ                    24910000                                                                                                                                                                                                                                                          OM0000000000000000(21)26364060 - (21)95952594 500 M APOS AO CIEP ROBSON MENDONCA LOU PROC CATIA OU ANTONIO                                                                                                                                                                                                                                                                                                                                                                                                                                                                                                                     
01                              64737     215 199 9009244                                                                                   39975319901062013                                                              00054950015753CRISTINA ANTUNES DE MELO                                                                            SESSENTA E SEIS 0 47 QD 317                                                                         JARDIM ATLANTICO              MARICA                                            RJ                    24900012                                                                                                                                                                                                                                                          OM0000002199534661ENTRAR NA ESTRADO DO CAJUEIRO SAIDA 17 APOS PONTE E O COLEGIO DIRECAO A PRAIA  PROCMARGARET CHAMAR NA LOJA TRC RECOLHIME                                                                                                                                                                                                                                                                                                                                                                                                                                                                                     
01                              25360     249 199 9068608                                                                                   39975819901062013                                                              00007715391778LUCIANA GONCALVES                                                                                   ESTRADA DO RETIRO 16 LT16 QD1                                                                       RETIRO                        MARICA                                            RJ                    24000000                                                                                                                                                                                                                                                          OM0000000000000000DO LADO DA ESCOLA DO RETIRO EM MARICA PROC POR LAERTE OU CARMEM 96604638                                                                                                                                                                                                                                                                                                                                                                                                                                                                                                                                     
01                              26131     196 199 9031799                                                                                   39975719901062013                                                              00008628045740MARIA LUIZA L PINTO                                                                                 RUA 90 9 LT 10 QD 78                                                                                ITAIPUACU                     MARICA                                            RJ                    24900000                                                                                                                                                                                                                                                          OM0000000000000000PROX AO DPO DO BARROCO REFENTE RUA 9 LT 10 QD 78 SAO BENTO CEL 91782273                                                                                                                                                                                                                                                                                                                                                                                                                                                                                                                                      
01                              41655     181 199 9058566                                                                                   39977019901062013                                                              00003226267736ALEXANDRA DA SILVA MOREIRA                                                                          B 6 QD 02 CASA 02                                                                                   ITAPEBA                       MARICA                                            RJ                    24900001                                                                                                                                                                                                                                                          OM0000000000000000(21)73950731 APOS A HIDRAULICA RUFINO ENFRENT A LOJA DJOTAS MOVEIS PROC ALEXANDRA OU MARCIO                                                                                                                                                                                                                                                                                                                                                                                                                                                                                                                  
01                              65266     215 199 9066626                                                                                   39976919901062013                                                              00000216269792ALCENIR BERNARDES RIBEIRO DA SILVA                                                                  55 43                                                                                               JARDIM ATLANTICO              MARICA                                            RJ                    24900000                                                                                                                                                                                                                                                          OM0000002126031163PEGAR ESTR DO CAJUEIRO SENTIDO PRAIA SENG ANTIG RUA AV 2 PROC ALCENIR LIGAR TEL 99641486 26031163                                                                                                                                                                                                                                                                                                                                                                                                                                                                                                            
01                              35372     242 199 9039554                                                                                   39977119901062013                                                              00041035275791PAULO CESAR PEREIRA                                                                                 MINAS GERAIS 9 QD C                                                                                 PONTA NEGRA                   MARICA                                            RJ                    24900000                                                                                                                                                                                                                                                          OM0000000000000000RUA DO CANAL SENTIDO FAROL TERCEIRA RUA ESQUERDA PRX PENSAO NOEMIA 21 75384544                                                                                                                                                                                                                                                                                                                                                                                                                                                                                                                               
01                              42643     181 199 9030013                                                                                   40001219901062013                                                              00092341268749ELI DA SILVA MONTEIRO                                                                               ALAMEDA SAO BOAVENTURA 890 01 APT C404                                                              FONSECA                       NITEROI                                           RJ                    24400000                                                                                                                                                                                                                                                          OM000000000000000088113555 AO ANTES DA CAIXA ECONOMICA PROC ELI OU MARCIA                                                                                                                                                                                                                                                                                                                                                                                                                                                                                                                                                      
01                              42309     181 199 9030013                                                                                   39724519930052013                                                              00010425031764ANA CAROLINA DE SOUZA FERREIRA                                                                      OITENTA E OITO 7 07 QD 95                                                                           PIRATININGA                   NITEROI                                           RJ                    24350025                                                                                                                                                                                                                                                          OM000000000000000098164033 CAFUBA RESIDENCIAL FAZENDINHA SEG RUA DIREITA APOS A PRACA PROC MARCIA OU TATIANA                                                                                                                                                                                                                                                                                                                                                                                                                                                                                                                   
01                              25211     249 199 9066284                                                                                   39724619930052013                                                              00010091049776ADRIANA NEGREIROS PEREIRA                                                                           JOAO BATISTA 288 08                                                                                 CHARITAS                      NITEROI                                           RJ                    24370010                                                                                                                                                                                                                                                          OM0000002127104537AO LADO DO BAR DE AMANDA ENTREGAR SOMENTE NA CASA DA PROPRIA PROC POR ADRIANA ESPOSA DE BAIXINHO 74167183                                                                                                                                                                                                                                                                                                                                                                                                                                                                                                    
01                              41553     181 199 9058566                                                                                   39984819901062013                                                              00004794265700JESSY QUITETE FERREIRA                                                                              JOAQUIM TAVORA 122 BL 01 APTO 1301                                                                  ICARAI                        NITEROI                                           RJ                    24230541                                                                                                                                                                                                                                                          OM0000000000000000(21)26049839 - (21)77164865 ENTRADA SAIDA RUA MOREIRA CESAR ENTREGAR DIA 22 QUARTA FEIRA PROC JESSY                                                                                                                                                                                                                                                                                                                                                                                                                                                                                                          
01                              42705     181 199 9058566                                                                                   40002019901062013                                                              00072033800768ELIETE TEOFILO                                                                                      SAO SEBASTIAO 7 QD 22                                                                               ITAIPU                        NITEROI                                           RJ                    24346190                                                                                                                                                                                                                                                          OM0000000000000000(21)37015126 - (21)92105609 PROX AO HARAS NA VILA DA CASA AMARELA PROC SERGIO LUIZ OU ELIETE                                                                                                                                                                                                                                                                                                                                                                                                                                                                                                                 
01                              41268     181 199 9058566                                                                                   39725419930052013                                                              00001901231330ELISSANDRA ALVES NASCIMENTO                                                                         MARIA DE FATIMA 5                                                                                   ITITIOCA                      NITEROI                                           RJ                    24000000                                                                                                                                                                                                                                                          OM0000000000000000- (21)76874544 PROX AO PONTO FINAL DO ONIBUS 44 PROC SANDRA OU JEIFE OU ANA BEATRIZ OU MARLI OU RAIMUNDA                                                                                                                                                                                                                                                                                                                                                                                                                                                                                                     
01                              42651     181 199 9030013                                                                                   40001919901062013                                                              00005657932765LEANDRO OLIVEIRA DOS SANTOS                                                                         DE MARICA 9780 302 BL 01                                                                            VARZEA DAS MOCAS              NITEROI                                           RJ                    24330000                                                                                                                                                                                                                                                          OM000000212718726399647515 PROX AO CAMPO DO CROL PONTO FINAL DAS VANS COND DOS MORADORES DO BUMBA PROC LEANDRO OU JESSICA                                                                                                                                                                                                                                                                                                                                                                                                                                                                                                      
01                              42533     181 199 9030013                                                                                   39845319930052013                                                              00003243977711GERALDA MOREIRA RAMOS                                                                               22 41 6 QD 103                                                                                      ITAIPU                        NITEROI                                           RJ                    24335020                                                                                                                                                                                                                                                          OM000000212709147567055287 R 23 NA RUA DA LAN HOUSE PROC DONA MARIA DA GLORIA                                                                                                                                                                                                                                                                                                                                                                                                                                                                                                                                                  
01                              42617     181 199 9030013                                                                                   40001819901062013                                                              00067621619791MARTELENA DE SOUZA BASTOS                                                                           JANDIRA FROES 114 25                                                                                SAO FRANCISCO                 NITEROI                                           RJ                    24360016                                                                                                                                                                                                                                                          OM000000212610653571760636 95371858 PROX O BAR DO ZE BINHO NO CAMPO PROC ROSA                                                                                                                                                                                                                                                                                                                                                                                                                                                                                                                                                  
01                              42695     181 199 9058566                                                                                   40000419901062013                                                              00005144039774DANIEL SOUZA RODRIGUES                                                                              AUREA LIMA 53 FUNDOS                                                                                CENTRO                        NITEROI                                           RJ                    24030150                                                                                                                                                                                                                                                          OM0000000000000000(21)85148284 PROX A FACULDADE UNIVERSO ENTREGAR SO NO SABADO PROC ANA LUIZA                                                                                                                                                                                                                                                                                                                                                                                                                                                                                                                                  
01                              42694     181 199 9058566                                                                                   40001719901062013                                                              00051988984734ANGELICA RAQUEL PINHEIRO                                                                            DOIS 21 QD 32                                                                                       ITAIPU                        NITEROI                                           RJ                    24340210                                                                                                                                                                                                                                                          OM0000000000000000(21)35871102 AO LADO DO LAVA JATO PONTO LIMPO PROC MARINA OU FERNANADA                                                                                                                                                                                                                                                                                                                                                                                                                                                                                                                                       
01                              21649     247 199 9053871                                                                                   40000519901062013                                                              00011916936784BRUNO ANASTACIO GUAHY SILVARES CORREA                                                               MARIZ E BARROS 260 202                                                                              ICARAI                        NITEROI                                           RJ                    24220120                                                                                                                                                                                                                                                          OM0000000000000000NA RUA DO BARKANA PROX AO REST ZAGATI CLT SO PD REC DIA DE SABADO 1 DE JUNHO APOS DAS 14H FAVOR LG CONF PRO BRUNO                                                                                                                                                                                                                                                                                                                                                                                                                                                                                            
01                              42367     181 199 9030013                                                                                   39725219930052013                                                              00046185623404EDMILSON CEZAR COUTINHO                                                                             DAS CRIANCAS 16 02                                                                                  BADU                          NITEROI                                           RJ                    24320200                                                                                                                                                                                                                                                          OM000000000000000077040492 NCAMPO DO CRUZEIRO PROC EDMILSON OU FABRICIA                                                                                                                                                                                                                                                                                                                                                                                                                                                                                                                                                        
01                              41791     181 199 9029236                                                                                   39724919930052013                                                              00000648679780PAULO DA COSTA ROQUE                                                                                MONAN PEQUENO 60                                                                                    BADU                          NITEROI                                           RJ                    24320110                                                                                                                                                                                                                                                          OM0000002126161592TEL 21 26161592 OU 76939421 REF ENTREGAR AO LADO DO BAR DO JAPA PROC POR ELBERT OU LUCIANA                                                                                                                                                                                                                                                                                                                                                                                                                                                                                                                   
01                              25408     249 199 9068608                                                                                   40001419901062013                                                              00089270290700LUCILENE HORTENCIO DA SILVA                                                                         ADELAIDE ARAUJO DE OLIVEIRA 34 CASA 5                                                               LARGO DA BATALHA              NITEROI                                           RJ                    24310395                                                                                                                                                                                                                                                          OM0000000000000000PERTO DO POSTO DE SAUDE DO LARGO DA BATALHA PROC POR LIENE                                                                                                                                                                                                                                                                                                                                                                                                                                                                                                                                                   
01                              25145     249 199 9069399                                                                                   39724719930052013                                                              00003606744706SEVERINA SIMPLICA MACHADO                                                                           ALBINO PEREIRA 624                                                                                  SAO FRANCISCO                 NITEROI                                           RJ                    24365170                                                                                                                                                                                                                                                          OM0000000000000000PROXIMO AO TERMINAL DO ONIBUS DA LINHA 32 PROC POR DONA TERZA OU BINA TEL 27094189                                                                                                                                                                                                                                                                                                                                                                                                                                                                                                                           
01                              25366     249 199 9066284                                                                                   39999919901062013                                                              00081390440753ROSANE DA SILVA VASCONCELOS                                                                         FONTE 53                                                                                            SAO LOURENCO                  NITEROI                                           RJ                    24060020                                                                                                                                                                                                                                                          OM0000000000000000SUBIR A RUA INDIGENA TODA VIRAR A ESQUERDA SE ENFORMAR NA PRACA PROC POR CASA DE DONGA TEL 91837783                                                                                                                                                                                                                                                                                                                                                                                                                                                                                                          
01                              25393     249 199 9068608                                                                                   39999819901062013                                                              00014357430755VANESSA MARCELA OLIVEIRA DA SILVA                                                                   NOSSA SENHORA DAS GRACAS 27 FUNDOS CASA26                                                           SANTA ROSA                    NITEROI                                           RJ                    24240380                                                                                                                                                                                                                                                          OM0000000000000000PONTO FINAL DO 53 ENTRADA AO LADO DO BAR DO LUIZAO PROC POR VANESSA                                                                                                                                                                                                                                                                                                                                                                                                                                                                                                                                          
01                              41845     181 199 9058566                                                                                   39726019930052013                                                              00013678873723FERNANDA GONCALVES DE SOUZA                                                                         GENERAL CASTRO GUIMARAES 735 03 FUNDOS                                                              LARGO DA BATALHA              NITEROI                                           RJ                    24310350                                                                                                                                                                                                                                                          OM0000000000000000- (21)26111857 - (21)99934141 ENTRAR PELO QUINTAL DA IGREJA CAMINHO DE DEUS EVANGELICA PROC FERNANDA OU SEBASTIAO                                                                                                                                                                                                                                                                                                                                                                                                                                                                                            
01                              42483     181 199 9058566                                                                                   39999719901062013                                                              00016570496808REGINA MARCIA RODRIGUES DE CARVALHO                                                                 ZALMIR GARCIA 29                                                                                    ENGENHOCA                     NITEROI                                           RJ                    24110600                                                                                                                                                                                                                                                          OM0000000000000000(21)75148658 OU 68027368 PROX AO BAR DA MARIA PROC AFONSINHO                                                                                                                                                                                                                                                                                                                                                                                                                                                                                                                                                 
01                              41746     181 199 9030013                                                                                   39725919930052013                                                              00095590390753ROBERTO CANDIDO DE SOUZA                                                                            SAO JOSE 184 04                                                                                     VENDA DA CRUZ                 NITEROI                                           RJ                    24110678                                                                                                                                                                                                                                                          OM000000000000000037197290 67222806 PROX A IGREJA SAO JOAO TENETE JARDIM PROC ANGELA                                                                                                                                                                                                                                                                                                                                                                                                                                                                                                                                           
01                              66912     215 199 9064765                                                                                   39999619901062013                                                              00011612672710ALINE GOMES DO AMARAL                                                                               SAO JOSE 838 CS02                                                                                   CUBANGO                       NITEROI                                           RJ                    24140295                                                                                                                                                                                                                                                          OM0000002127158033RUA EEM FRENTE A NPCA DO BUMBA PERTO DA ASSEMBLEIA DE DEUS PROC ALINE OU DANIEL                                                                                                                                                                                                                                                                                                                                                                                                                                                                                                                              
01                              41734     181 199 9030013                                                                                   39725819930052013                                                              00003683824786CLAUDIO NUNES DA SILVA                                                                              WASHINGTON LUIS 331 RUA C CASA 3                                                                    SAPE                          NITEROI                                           RJ                    24315375                                                                                                                                                                                                                                                          OM000000212718304395951467 PROX A BARRACA DO JOAO                                                                                                                                                                                                                                                                                                                                                                                                                                                                                                                                                                              
01                              22487     239 199 9040397                                                                                   39844919930052013                                                              00005550613700RAFAELA DA COSTA OLIVEIRA                                                                           ALARICO DE SOUZA 512                                                                                SANTA ROSA                    NITEROI                                           RJ                    24315000                                                                                                                                                                                                                                                          OM0000000000000000SUBIDA DO COLEGIO SALESIANO PROC BRUNO GOIABA 21)27050897 - (21)71128125                                                                                                                                                                                                                                                                                                                                                                                                                                                                                                                                     
01                              41986     181 199 9058566                                                                                   39725719930052013                                                              00001011400707LIDIA UMBELINO F CAVALCANTI                                                                         ESTEVAO FASCIOTTI 19 FUNDOS                                                                         SAPE                          NITEROI                                           RJ                    24315656                                                                                                                                                                                                                                                          OM0000000000000000(21)27183883 - (21)94274573 PRIME A ESQUERD DO SINDIC RODOVIAR ATRAS DA ASSEMBLEIA DE DEUS ENTR DO BECO PROC SILVIANE                                                                                                                                                                                                                                                                                                                                                                                                                                                                                        
01                              42684     181 199 9058566                                                                                   40000219901062013                                                              00037654047720JANETE DE OLIVEIRA QUINTANILHA                                                                      SALGADO FILHO 27                                                                                    BARRETO                       NITEROI                                           RJ                    24110420                                                                                                                                                                                                                                                          OM000000000000000021)26289120 - (21)99135359 PROX AO MERCADO RB PROC JANETE OU GUSTAVO                                                                                                                                                                                                                                                                                                                                                                                                                                                                                                                                         
01                              25413     249 199 9068608                                                                                   40000119901062013                                                              00013030871703CRISTIANE CAETANO DA SILVA DELFINO                                                                  DOUTOR CELESTINO 78                                                                                 CENTRO                        NITEROI                                           RJ                    24020091                                                                                                                                                                                                                                                          OM0000000000000000SUBIDA DA APAE PROC POR CREUZA TEL 36084528 9685 4024                                                                                                                                                                                                                                                                                                                                                                                                                                                                                                                                                        
01                              22493     239 199 9040416                                                                                   39845019930052013                                                              00001289924767GIOVANI DOS SANTOS MOREIRA                                                                          PREFEITO SILVIO PICANCO 40 AP 306 BLOCO B                                                           CHARITAS                      NITEROI                                           RJ                    24370001                                                                                                                                                                                                                                                          OM0000002126043157PREDIOS AMARELOS EM FRENTE AO CATAMARA PROC BETI 26043157 84679744 LIG ANTES                                                                                                                                                                                                                                                                                                                                                                                                                                                                                                                                 
01                              24754     249 199 9050287                                                                                   39999119901062013                                                              00001426148747LUIZ ANDRADE DE CARVALHO JUNIOR                                                                     VICOSO JARDIM 387                                                                                   CUBANGO                       NITEROI                                           RJ                    24140169                                                                                                                                                                                                                                                          OM0000002126036298DEPOIS DO MORO DO BUMBA 1 ESQ DEPOIS 1 ESQ NOVAMENTE PROC SABRINA TEL 81169877 OU 36016412                                                                                                                                                                                                                                                                                                                                                                                                                                                                                                                   
01                              21936     239 199 9040397                                                                                   39726619930052013                                                              00008673210755MARIA DAS GRACAS BORGES DOS SANTOS                                                                  MATO GROSSO 79 1                                                                                    SAPE                          NITEROI                                           RJ                    24315460                                                                                                                                                                                                                                                          OM0000000000000000PROX A BARRACA DO ELSO PROC RICARDO 21 2616 1845 21 7981 3062 21 9574 3430 21 8341 9923                                                                                                                                                                                                                                                                                                                                                                                                                                                                                                                      
01                              25405     249 199 9068608                                                                                   39999519901062013                                                              00003684115754EDSON RODRIGUES CARVALHO                                                                            SILVEIRA DA MOTA 429                                                                                SAO LOURENCO                  NITEROI                                           RJ                    24060060                                                                                                                                                                                                                                                          OM0000000000000000PERTO DA SANTA PROXIMO AO POCO PROC EDSON OU DOCA TEL 75525836                                                                                                                                                                                                                                                                                                                                                                                                                                                                                                                                               
01                              21874     239 199 9040397                                                                                   39726519930052013                                                              00013122984725LEANDRO SILVEIRA DE OLIVEIRA                                                                        DEPUTADO JOSE MAURICIO 10 4                                                                         CANTAGALO                     NITEROI                                           RJ                    24310565                                                                                                                                                                                                                                                          OM0000000000000000SUBIDA EM FRENTE AO SACOLAO DO CARLINHO PROC ROSA (21)26167793 - (21)79475385                                                                                                                                                                                                                                                                                                                                                                                                                                                                                                                                
01                              42658     181 199 9030013                                                                                   39999419901062013                                                              00078380073720RUTH DE JESUS                                                                                       BAHIA 4 A                                                                                           FONSECA                       NITEROI                                           RJ                    24130200                                                                                                                                                                                                                                                          OM000000000000000093506959 PROX AO BAR DO ALBINO PROC MONICA MANICURE                                                                                                                                                                                                                                                                                                                                                                                                                                                                                                                                                          
01                              25160     249 199 9050287                                                                                   39726419930052013                                                              00013676772709GISELY PEREIRA DA SILVA                                                                             PARIS DIVINEIA 162                                                                                  SAO FRANCISCO                 NITEROI                                           RJ                    24360018                                                                                                                                                                                                                                                          OM0000000000000000NO MORRO CAVALAO MERC BOM PRECO PROC TATIANE CEL 27043261                                                                                                                                                                                                                                                                                                                                                                                                                                                                                                                                                    
01                              22574     239 199 9040416                                                                                   39999319901062013                                                              00011665847719DIEGO CANDIGO SOARES                                                                                JONATAS BOTELHO 137                                                                                 SANTA ROSA                    NITEROI                                           RJ                    24240415                                                                                                                                                                                                                                                          OM0000000000000000EM CIMA DO BAR DA ELZA PROC PAOLA TEL 27043558 95520792                                                                                                                                                                                                                                                                                                                                                                                                                                                                                                                                                      
01                              35823     181 199 9029312                                                                                   39772919930052013                                                              00008716937716ALEXANDRE CAVALCANTE OLIVEIRA                                                                       LEMOS CUNHA 609 CS FDS                                                                              ICARAI                        NITEROI                                           RJ                    24230131                                                                                                                                                                                                                                                          OM000000000000000091483883 OU 71145055 PROC CLEBER OU FRANCE ENCIMA DO TUNEL SENTIDO SAO FRANCISCO NA COMUNIDADE CAVALAO                                                                                                                                                                                                                                                                                                                                                                                                                                                                                                       
01                              25292     249 199 9069399                                                                                   39773519930052013                                                              00002233692764SEBASTIANA JARDELINO DA SILVA                                                                       JORNALISTA MOACIR PADILHA 115                                                                       CENTRO                        NITEROI                                           RJ                    24020350                                                                                                                                                                                                                                                          OM0000000000000000ENTREGAR NO BAR DA DONA ANTONIA PROC POR DONA ANTONIA                                                                                                                                                                                                                                                                                                                                                                                                                                                                                                                                                        
01                              42101     181 199 9030013                                                                                   39840719930052013                                                              00067555870797SUELI RICARDO DE SOUZA                                                                              DONA GALDINA 168 168                                                                                JURUJUBA                      NITEROI                                           RJ                    24370287                                                                                                                                                                                                                                                          OM000000213702013771646436 SUB BAIRRO PEIXE GALO PROX AO PROJETO GRAEL BAR DA DONA NEGA PROC RAQUEL OU FRANCISCO                                                                                                                                                                                                                                                                                                                                                                                                                                                                                                               
01                              22479     239 199 9040416                                                                                   39774819930052013                                                              00001123999759MARCOS SILVA DE OLIVEIRA                                                                            DOUTOR ARAUJO PIMENTA 132 01                                                                        INGA                          NITEROI                                           RJ                    24210070                                                                                                                                                                                                                                                          OM0000002126205374ENTRG NO CAMPINHO NA BARRACA DE MOCOTO PROC IRACI 26205374                                                                                                                                                                                                                                                                                                                                                                                                                                                                                                                                                   
01                              25180     249 199 9068608                                                                                   39840919930052013                                                              00009508865725ADELINO DA SILVA FREIXO                                                                             FRANCISCO DA CRUZ NUNES 29 RUA J CASA 29                                                            ITAIPU                        NITEROI                                           RJ                    24340000                                                                                                                                                                                                                                                          OM0000000000000000ANTIGA RUA J ENFRENTE AO CEMITERIO PARQUE DA COLINA ENTREGAR NO BAR SR JORGE 76169852                                                                                                                                                                                                                                                                                                                                                                                                                                                                                                                        
01                              42275     181 199 9058566                                                                                   39840819930052013                                                              00008449493706JOSIAS JOSE DE SANTANA                                                                              RONALDO GOMES DE MENEZES 810 FUNDOS                                                                 SAO FRANCISCO                 NITEROI                                           RJ                    24365210                                                                                                                                                                                                                                                          OM0000000000000000- (21)26121495 - (21)92643016 PROX AO BAR DO BIGODE PROC JOSIAS OU MARIA                                                                                                                                                                                                                                                                                                                                                                                                                                                                                                                                     
01                              21333     173 199 9066557                                                                                   40000719901062013                                                              00008797997498AYONNE LIMA DE ARAUJO                                                                               LADEIRA DO QUEBRA 10                                                                                TENENTE JARDIM                NITEROI                                           RJ                    24110770                                                                                                                                                                                                                                                          OM0000002137148745SUBIR NO MORRO DO CASTRO ENTRAR NA R CAMPO DO JAIR (OBS) CS CLI SEM NUMERO AO LADO DO OFIC DO JIJI PROC JIJI 75094866                                                                                                                                                                                                                                                                                                                                                                                                                                                                                        
01                              42597     181 199 9030013                                                                                   40000919901062013                                                              00071710540630MARIA VANEIDE DE OLIVEIRA                                                                           EXPEDICIONARIO CELSO LIMA 74 CASA                                                                   CUBANGO                       NITEROI                                           RJ                    24240580                                                                                                                                                                                                                                                          OM000000212715743981806456 ENTRAR NA NORONHA TORREZAO ENTER O PREDIO E O POSTO DE GASOLINA PROC PEDRO PALOTI                                                                                                                                                                                                                                                                                                                                                                                                                                                                                                                   
01                              22519     239 199 9040375                                                                                   39775019930052013                                                              00001295972794ROSANE DA CONCEICAO                                                                                 LEMOS CUNHA 609 FUNDOS                                                                              ICARAI                        NITEROI                                           RJ                    24230131                                                                                                                                                                                                                                                          OM0000000000000000ESCADARIA NA BOCA DO TUNEL LADO ESQ AO LD DA SUB ESTACAO PROC ROSANA OU ADALTIVA TEL 92000723                                                                                                                                                                                                                                                                                                                                                                                                                                                                                                                
02                                         742644                        45438     183255    COZ ARAMOVEIS CRIS BR/CZ                                                                            1                      01072013                                                                                                                                                                                                                                                          000000000000000000000000000000000000000100                                                                                                                                                                                                                                                                                                                                                                                                                                                                                                                                                                                                                                                                                                                                                                                                                                                                                                                    
02                                         742645                        42742     185260    G.ROUPA ARAMOVEIS  4P3G BRASIL BR/FE                                                                1                      01072013                                                                                                                                                                                                                                                          000000000000000000000000000000000000000100                                                                                                                                                                                                                                                                                                                                                                                                                                                                                                                                                                                                                                                                                                                                                                                                                                                                                                                    
02                                         742646                        65471     185776    GR ARAPLAC 10PC/P VIENA PLUS TB/GRAF                                                                1              1706201301072013                                                                                                                                                                                                                                                          000000000000000000000000000000000000000100                                                                                                                                                                                                                                                                                                                                                                                                                                                                                                                                                                                                                                                                                                                                                                                                                                                                                                                    
02                                         742647                        45408     155462    G.ROUPA EURO 3P RUBI ESP PL/PT/PL                                                                   1                      01072013                                                                                                                                                                                                                                                          000000000000000000000000000000000000000100                                                                                                                                                                                                                                                                                                                                                                                                                                                                                                                                                                                                                                                                                                                                                                                                                                                                                                                    
02                                         742648                        42451     182314    COZINHA INDEKES BIA BR/GRAF                                                                         1                      01072013                                                                                                                                                                                                                                                          000000000000000000000000000000000000000100                                                                                                                                                                                                                                                                                                                                                                                                                                                                                                                                                                                                                                                                                                                                                                                                                                                                                                                    
02                                         742648                        42451     182316    BALCAO INDEKES BIA BR/GRAF                                                                          1                      01072013                                                                                                                                                                                                                                                          000000000000000000000000000000000000000200                                                                                                                                                                                                                                                                                                                                                                                                                                                                                                                                                                                                                                                                                                                                                                                                                                                                                                                    
02                                         742649                        66475     182314    COZINHA INDEKES BIA BR/GRAF                                                                         1                      01072013                                                                                                                                                                                                                                                          000000000000000000000000000000000000000100                                                                                                                                                                                                                                                                                                                                                                                                                                                                                                                                                                                                                                                                                                                                                                                                                                                                                                                    
02                                         742649                        66475     185260    G.ROUPA ARAMOVEIS  4P3G BRASIL BR/FE                                                                1                      01072013                                                                                                                                                                                                                                                          000000000000000000000000000000000000000200                                                                                                                                                                                                                                                                                                                                                                                                                                                                                                                                                                                                                                                                                                                                                                                                                                                                                                                    
02                                         742650                        45122     185254    G.ROUPA ARAMOVEIS 3P3G NAPOLE BR/PTO                                                                1                      01072013                                                                                                                                                                                                                                                          000000000000000000000000000000000000000100                                                                                                                                                                                                                                                                                                                                                                                                                                                                                                                                                                                                                                                                                                                                                                                                                                                                                                                    
02                                         742651                        42621     185263    G.ROUPA ARAMOVEIS 6P2G BRASIL CZ/PTO                                                                1                      01072013                                                                                                                                                                                                                                                          000000000000000000000000000000000000000100                                                                                                                                                                                                                                                                                                                                                                                                                                                                                                                                                                                                                                                                                                                                                                                                                                                                                                                    
02                                         742652                        64737     140096    G.ROUPA BERGAMO 5P LISBOA BR/PTO                                                                    1                      01072013                                                                                                                                                                                                                                                          000000000000000000000000000000000000000100                                                                                                                                                                                                                                                                                                                                                                                                                                                                                                                                                                                                                                                                                                                                                                                                                                                                                                                    
02                                         742653                        25360     185263    G.ROUPA ARAMOVEIS 6P2G BRASIL CZ/PTO                                                                1                      01072013                                                                                                                                                                                                                                                          000000000000000000000000000000000000000100                                                                                                                                                                                                                                                                                                                                                                                                                                                                                                                                                                                                                                                                                                                                                                                                                                                                                                                    
