00                       20130603105200PREVIMONT                     RICARDO ELETRO                                                                                      64282601004457     100568    LAISA - 04                                                                                                                                                                                                                                                                                                                                                                                                                                                                                                                                                                                                                                                                                                                                                                                                                                                                                                                                                                                                                                                                                                                                                                                                                                        
01                              131031    179 199 9045796                                                                                   39757219930052013                                                              00009942251723ANDRE LUIZ DA SILVA OLIVEIRA                                                                        BELA 15                                                                                             PARQUE VILA NOVA              DUQUE DE CAXIAS                                   RJ                    25010160                                                                                                                                                                                                                                                          OM0000002136582780PROX  A GARAGEM DA JUREMA PROX  A BARRACA DA DONA ROSA PROC DONA CASTELO OU LENIRA TEL 85109187 OU 36514212                                                                                                                                                                                                                                                                                                                                                                                                                                                                                                  
01                              21258     173 199 9066557                                                                                   39963619901062013                                                              00000365587702FATIMA CASTRO DE OLIVEIRA                                                                           JOAO PERESTRELO 42 A                                                                                CENTENARIO                    DUQUE DE CAXIAS                                   RJ                    25030030                                                                                                                                                                                                                                                          OM0000000000000000PROX A ESTACAO DE TREM CORTE 8 E DA PASSARELA PS KENIDY  PROC GUAIRA CASTRO D OLIVEIRA 24677781 74068417                                                                                                                                                                                                                                                                                                                                                                                                                                                                                                     
01                              131422    179 199 9051404                                                                                   39963719901062013                                                              00003323299760ANDREA MENEZES DA SILVA                                                                             BOA SORTE 16 04                                                                                     VILA LEOPOLDINA               DUQUE DE CAXIAS                                   RJ                    25035050                                                                                                                                                                                                                                                          OM0000000000000000FICA EM FRENTE A BARACA DO BAYBY PROC PELA ANDREIA OU ALINE  TEL 37748562                                                                                                                                                                                                                                                                                                                                                                                                                                                                                                                                    
01                              131211    179 199 9045796                                                                                   39923119931052013                                                              00012115219740MONICA DIAS DE MORAES                                                                               RIO DOURO 41 KM 51  S N                                                                             XEREM                         DUQUE DE CAXIAS                                   RJ                    25245810                                                                                                                                                                                                                                                          OM0000002137771044CARVOEIRA DO CLOVIS ASSEMBLEIA DO CINQUENTA PROC DONA MONICA TEL 87405642                                                                                                                                                                                                                                                                                                                                                                                                                                                                                                                                    
01                              131382    179 199 9067767                                                                                   39922619931052013                                                              00079031609749GILDO DA CONCEICAO GAUDARD                                                                          SAO PAULO 0 LT 52 QD B CS 3                                                                         VILA SANTA CRUZ               DUQUE DE CAXIAS                                   RJ                    25240050                                                                                                                                                                                                                                                          OM0000000000000000ATRAS DA ANTIGA POLYGRAM FICA NA BARRACA DO ANTONIO LOPES PROC POR SR ANTONIO LOPEZ OU GILDO                                                                                                                                                                                                                                                                                                                                                                                                                                                                                                                 
01                              131432    179 199 9051404                                                                                   39963119901062013                                                              00086644416772MARIA APARECIDA DUTRA DE SOUZA                                                                      CINCO DE JULHO 1601 201                                                                             JARDIM OLAVO BILAC            DUQUE DE CAXIAS                                   RJ                    25036270                                                                                                                                                                                                                                                          OM0000000000000000PROX A CALCADA DA ACADEMA PROC PELA APARECIDA TEL - (21)37774502                                                                                                                                                                                                                                                                                                                                                                                                                                                                                                                                             
01                              130194    179 199 9051404                                                                                   39922419931052013                                                              00033128391572CLAUDIA DA SILVA SANTOS                                                                             ABELARDO PINTO 87 BECO 06                                                                           CAMPOS ELISEOS                DUQUE DE CAXIAS                                   RJ                    25225470                                                                                                                                                                                                                                                          OM0000000000000000FICA EM FRENTE A ESTACAO DE TREM PERTO DO CELIO DA BOMBA PROC PELA CLAUDIA OU CHICAO  (21)26767208 - (21)67269013                                                                                                                                                                                                                                                                                                                                                                                                                                                                                            
01                              130999    179 199 9045796                                                                                   39963319901062013                                                              00011312502495FRANCISCO MARINHO PEREIRA                                                                           VINTE UM DE ABRIL AC R CAPINEIRA 121                                                                VILA IDEAL                    DUQUE DE CAXIAS                                   RJ                    25011160                                                                                                                                                                                                                                                          OM0000002179076375TROCA SEM RECOLHIMENTO PROX  ACOLEGIO E PADARIA DA RITA .PROC DONA GRACA TEL(21)79076375 - (21)92807354                                                                                                                                                                                                                                                                                                                                                                                                                                                                                                      
01                              130263    179 199 9068087                                                                                   39922219931052013                                                              00010375502777MARIA ANGELICA DA SILVA                                                                             MINISTRO LINDOLFO COLLOR 35 QD J                                                                    PARQUE JOAO PESSOA            DUQUE DE CAXIAS                                   RJ                    25220050                                                                                                                                                                                                                                                          OM0000002127780669PROX IGREJA ASSENBLEIA DE DEUS PROCURA MARLENE (21) 27780669 OU 73452926                                                                                                                                                                                                                                                                                                                                                                                                                                                                                                                                     
01                              131514    179 199 9066910                                                                                   39963519901062013                                                              00083793810330LAERCIO GOMES DE ARAUJO                                                                             JOSE LAGES DE BARROS 49                                                                             VILA IDEAL                    DUQUE DE CAXIAS                                   RJ                    25010390                                                                                                                                                                                                                                                          OM0000002127720317RUA DA CRECHE EM FRENTE AO BAR DO PEIXE PROC ZEZA (21)27720317 - (21)82850952                                                                                                                                                                                                                                                                                                                                                                                                                                                                                                                                
01                              131452    179 199 9051404                                                                                   39963419901062013                                                              00064791939700NEILCE MONTEIRO DA SILVA                                                                            BAGDA 27 CASA                                                                                       NOSSA SENHORA DO CARMO        DUQUE DE CAXIAS                                   RJ                    25040400                                                                                                                                                                                                                                                          OM0000002127815048PROX AO ARCO COM A PLACA BEM VINDO A BELFORD ROXO RUA DE TRAS TORRES PROC PELO CICERO (21)27815048                                                                                                                                                                                                                                                                                                                                                                                                                                                                                                           
01                              130189    179 199 9033581                                                                                   39961319901062013                                                              00004154984730MARLENE SEBASTIANA DA SILVA JACINTO                                                                 JUTAI 0 30 QD 153                                                                                   JARDIM OLAVO BILAC            DUQUE DE CAXIAS                                   RJ                    25025290                                                                                                                                                                                                                                                          OM0000000000000000IR PELO MACUBAL PROX BARRACA DA PRISCILA  PROC JEFFERSON TEL (21)37712396                                                                                                                                                                                                                                                                                                                                                                                                                                                                                                                                    
01                              118684    179 199 9045796                                                                                   39921519931052013                                                              00012020235765MERIAN DE SOUZA DA SILVA                                                                            MARANHAO 40                                                                                         CAMPOS ELISEOS                DUQUE DE CAXIAS                                   RJ                    25225590                                                                                                                                                                                                                                                          OM0000000000000000NA ESQUINA DO BORRACHEIRO NA AV SAO PAULO PROX COLE GIO MARILANDI PROC DONA MIRIAN OU RODOLFO ENTR 04/05 PELA MANHA                                                                                                                                                                                                                                                                                                                                                                                                                                                                                          
01                              131358    179 199 9045796                                                                                   39921319931052013                                                              00013571421701LEILA DA SILVA GARCIA                                                                               SAO FRANCISCO 7 CS 7                                                                                FIGUEIRA                      DUQUE DE CAXIAS                                   RJ                    25231000                                                                                                                                                                                                                                                          OM0000000000000000ATRAS DO CIEP 340 PROC DONA LEILA                                                                                                                                                                                                                                                                                                                                                                                                                                                                                                                                                                            
01                              131715    179 199 9067767                                                                                   40085919902062013                                                              00076406121791THEREZINHA PEREIRA DO NASCIMENTO                                                                    MARIO BEHRING 122                                                                                   VILA ROSARIO                  DUQUE DE CAXIAS                                   RJ                    25040140                                                                                                                                                                                                                                                          OM0000000000000000EM FRENTE AO COLEGIO RAUL FERNANDES NA RUA DO ONIBUS PANTANAL TERCEIRA A ESQUERDA PROC POR SRA THERESINHA                                                                                                                                                                                                                                                                                                                                                                                                                                                                                                    
01                              131118    179 199 9067767                                                                                   39920719931052013                                                              00067803466753DIAMANTINA DE MOURA BITTENCOURT                                                                     DO ROSARIO 26                                                                                       CAMPOS ELISEOS                DUQUE DE CAXIAS                                   RJ                    25000000                                                                                                                                                                                                                                                          OM0000000000000000PROX AO BRECHO DO IRAN PROC POR SRA DIAMANTINA TEL  (21)36569618 - (21)97393042                                                                                                                                                                                                                                                                                                                                                                                                                                                                                                                              
01                              123181    179 199 9051404                                                                                   40075219902062013                                                              00008414526799JANILVA ABREU DE OLIVEIRA                                                                           DARCY VARGAS 246                                                                                    CIDADE DOS MENINOS            DUQUE DE CAXIAS                                   RJ                    25010020                                                                                                                                                                                                                                                          OM0000000000000000ENTRE PILAR E LOTE 15 FABRICA DE GELO BEIRA RIO PASSA DE BAIXO DA PONTE OBS CARRO PEQUENO 21)92349281 27764888                                                                                                                                                                                                                                                                                                                                                                                                                                                                                               
01                              131595    179 199 9033617                                                                                   40086319902062013                                                              00009261410740ADEMAR FERREIRA DE LIMA                                                                             IMPERATRIZ 14                                                                                       JARDIM GRAMACHO               DUQUE DE CAXIAS                                   RJ                    25051270                                                                                                                                                                                                                                                          OM0000000000000000TRANSV A RUA PAROPEBA OU PROX A RODOVIA WASHINGTON LUIS TEL 73501449 AC  DE ADEMAR FERREIRA                                                                                                                                                                                                                                                                                                                                                                                                                                                                                                                  
01                              131676    179 199 9066910                                                                                   40086219902062013                                                              00071129537749IVAN FLORENCIO DE SOUZA                                                                             FAUSTO CARDOSO 42 38                                                                                CENTRO                        DUQUE DE CAXIAS                                   RJ                    25010050                                                                                                                                                                                                                                                          OM0000002137741337PROX A IGREJA UNIVERSAL E AO JUSTINUS BAR PROC SR IVAN OBS: LIGAR ANTES PARA O CLIENTE  (21)37741337 - (21)94671344                                                                                                                                                                                                                                                                                                                                                                                                                                                                                          
01                              130263    179 199 9068087                                                                                   39920319931052013                                                              00010375502777MARIA ANGELICA DA SILVA                                                                             MINISTRO LINDOLFO COLLOR 35 QD J                                                                    PARQUE JOAO PESSOA            DUQUE DE CAXIAS                                   RJ                    25220050                                                                                                                                                                                                                                                          OM0000002127780669PROX IGREJA ASSENBLEIA DE DEUS PROCURA MARLENE (21) 27780669 OU 73452926                                                                                                                                                                                                                                                                                                                                                                                                                                                                                                                                     
01                              131920    179 199 9033581                                                                                   40086019902062013                                                              00014648033744BETINA MANHAES PACHECO                                                                              SETE DE SETEMBRO 600 03                                                                             CENTRO                        DUQUE DE CAXIAS                                   RJ                    25020190                                                                                                                                                                                                                                                          OM0000000000000000PROX COLEGIO CASIMIRO DE ABREU O COCA NA RUA DO MUNDO DA BOLA PROC BETINA TEL (21)94951355                                                                                                                                                                                                                                                                                                                                                                                                                                                                                                                   
01                              131964    179 199 9067767                                                                                   40086719902062013                                                              00079095224791ELIETE SANTOS SIMOES                                                                                INDEPENDENCIA 182                                                                                   PARQUE SENHOR DO BONFIM       DUQUE DE CAXIAS                                   RJ                    25025315                                                                                                                                                                                                                                                          OM0000000000000000PROX AO HOSPITAL DUQUE DE CAXIAS PROC POR ELIETE TEL  (21)37747934 - (21)75155580                                                                                                                                                                                                                                                                                                                                                                                                                                                                                                                            
01                              131079    179 199 9028414                                                                                   39862219931052013                                                              00058417966749MARICELIA DE DEUS MATOS                                                                             BAHIA 42 A                                                                                          PARQUE CENTENARIO             DUQUE DE CAXIAS                                   RJ                    25030390                                                                                                                                                                                                                                                          OM0000002132417911APOS O CAMPO TRICOLOR AO LADO DO BECO DO BAIXINHO - (21)32417911                                                                                                                                                                                                                                                                                                                                                                                                                                                                                                                                             
01                              130361    179 199 9067767                                                                                   39920019931052013                                                              00008606829781ADRIANO DUTRA DE OLIVEIRA                                                                           SAO PAULO 595 202                                                                                   CAMPOS ELISEOS                DUQUE DE CAXIAS                                   RJ                    25025222                                                                                                                                                                                                                                                          OM0000000000000000DEPOIS DA RUA DO QUINTAL EM CIMA DA LAN HOUSE DO MAX  PROC POR SR ADRIANO                                                                                                                                                                                                                                                                                                                                                                                                                                                                                                                                    
01                              131636    179 199 9067767                                                                                   40086519902062013                                                              00011609218736LUANA APARECIDA LIMA DA SILVA                                                                       TENENTE CLETO CAMPELO 109                                                                           VILA LEOPOLDINA               DUQUE DE CAXIAS                                   RJ                    25035360                                                                                                                                                                                                                                                          OM0000002126529269PROX A IGREJA ASSEMBLEIA DE DEUS PRIMEIRA SUBIDA A ESQUERDA PROC POR LUANA TEL 21)26529269                                                                                                                                                                                                                                                                                                                                                                                                                                                                                                                   
01                              129981    179 199 9068115                                                                                   39920119931052013                                                              00011016904703VERONICA REGINA DA SILVA E SILVA                                                                    ODESSIA 549 01                                                                                      JARDIM PRIMAVERA              DUQUE DE CAXIAS                                   RJ                    25000000                                                                                                                                                                                                                                                          OM0000000000000000NA RUA DO COLEGIO HELIO RANGEL (21)72340682 - (21)97676082 E PROX A CANCELA                                                                                                                                                                                                                                                                                                                                                                                                                                                                                                                                  
01                              131945    179 199 9067767                                                                                   40086919902062013                                                              00010351142754ROMULO CARMO DE SOUZA                                                                               DARCY VARGAS 758                                                                                    GRAMACHO                      DUQUE DE CAXIAS                                   RJ                    25035250                                                                                                                                                                                                                                                          OM0000002136522002PROX A IGREJA ASSEMBLEIA DE DEUS CENTRAL DO GRAMACHO ENTREGAR NA LOJA MATERIAL DE CONSTRUCAO RENOVA                                                                                                                                                                                                                                                                                                                                                                                                                                                                                                          
01                              131954    179 199 9068087                                                                                   40113019903062013                                                              00009145595755JOSIEL DE SOUZA LINHARES                                                                            SANTA ALICE 47                                                                                      XEREM                         DUQUE DE CAXIAS                                   RJ                    25250150                                                                                                                                                                                                                                                          OM0000000000000000UMA RUA ANTES DA PONTE DA IGRJA VELHA RUA DA MANGUEIRA CASA VERDE PROCURA JOSIEL (21)26792900 - (21)26548594                                                                                                                                                                                                                                                                                                                                                                                                                                                                                                 
01                              132236    179 199 9067767                                                                                   40112719903062013                                                              00010641480776JANAINA GOMES DA SILVA                                                                              NATAL 57 FUNDOS                                                                                     VILA SANTA CRUZ               DUQUE DE CAXIAS                                   RJ                    25240090                                                                                                                                                                                                                                                          OM0000002126744579PROX AO COLEGIO MARECHAL RONDON PROC POR JAQUELINE TEL 21)26744579 - (21)76508741                                                                                                                                                                                                                                                                                                                                                                                                                                                                                                                            
01                              129988    179 199 9033581                                                                                   39964519901062013                                                              00045646201772ANTONIO JANUARIO                                                                                    DEZOITO 14                                                                                          VILA SANTO ANTONIO            DUQUE DE CAXIAS                                   RJ                    25040240                                                                                                                                                                                                                                                          OM0000002127592115PROX DO ANTIGO COLEGIO MARIA TENORIO ATUAL COLEGIO MARIA CLARA MACHADO PC SEU ANTONIO TEL  (21)27592115 - (21)94090840                                                                                                                                                                                                                                                                                                                                                                                                                                                                                       
01                              129907    179 199 9033617                                                                                   39786119930052013                                                              00009567525781MARIA DAS DORES VIRGINA DOS SANTOS                                                                  CASTRO RABELO 733                                                                                   BANANAL                       DUQUE DE CAXIAS                                   RJ                    25036110                                                                                                                                                                                                                                                          OM0000000000000000PROXIMO AO ANTIGO POSTO DE SAUDE DO BANANAL TEL 85233390 OU 27822246                                                                                                                                                                                                                                                                                                                                                                                                                                                                                                                                         
01                              131954    179 199 9068087                                                                                   40110919903062013                                                              00009145595755JOSIEL DE SOUZA LINHARES                                                                            SANTA ALICE 47                                                                                      XEREM                         DUQUE DE CAXIAS                                   RJ                    25250150                                                                                                                                                                                                                                                          OM0000000000000000                                                                                                                                                                                                                                                                                                                                                                                                                                                                                                                                                                                                             
01                              128583    179 199 9031651                                                                                   40110719903062013                                                              00009900327799JOAO EURICO BORGES DE ALBUQUERUQE                                                                   NOSSA SENHORA DAS GRACAS 14                                                                         XEREM                         DUQUE DE CAXIAS                                   RJ                    25250020                                                                                                                                                                                                                                                          OM0000002126792303NA RUA DO RESTAURANTE PANELA IMPERIAL 26792303 OU 74026734                                                                                                                                                                                                                                                                                                                                                                                                                                                                                                                                                   
01                              131459    179 199 9033617                                                                                   39962119901062013                                                              00058692495700rosa angela campos de queiroz                                                                       8 14                                                                                                TREVO DAS MISSOES             DUQUE DE CAXIAS                                   RJ                    25086520                                                                                                                                                                                                                                                          OM0000000000000000PROXIMO A ASSOCIACAO DE MORADORES TEL 99929084                                                                                                                                                                                                                                                                                                                                                                                                                                                                                                                                                               
01                              131422    179 199 9051404                                                                                   39965319901062013                                                              00003323299760ANDREA MENEZES DA SILVA                                                                             BOA SORTE 16 04                                                                                     VILA LEOPOLDINA               DUQUE DE CAXIAS                                   RJ                    25035050                                                                                                                                                                                                                                                          OM0000000000000000FICA EM FRENTE A BARACA DO BAYBY PROC PELA ANDREIA OU ALINE  TEL 37748562                                                                                                                                                                                                                                                                                                                                                                                                                                                                                                                                    
01                              131142    179 199 9069861                                                                                   40111019903062013                                                              00056749481787VALDIR NUNES MATOS                                                                                  RIO DOURO 871 2                                                                                     XEREM                         DUQUE DE CAXIAS                                   RJ                    25245810                                                                                                                                                                                                                                                          OM0000000000000000PROX AO CEMITERIO ANTES  (21)86833763                                                                                                                                                                                                                                                                                                                                                                                                                                                                                                                                                                        
01                              131037    179 199 9067767                                                                                   39964919901062013                                                              00015480656767WALLACE FERNANDES GALAS                                                                             FRANCISCO FALEIRO DE FREITAS LIMA 745 02                                                            VILA LEOPOLDINA               DUQUE DE CAXIAS                                   RJ                    25035030                                                                                                                                                                                                                                                          OM0000000000000000EM FRENTE A ASSOCIACAO AMAVIL PROC POR SRA GLEICE OU ANA TEL (21)92644098 - (21)73637648                                                                                                                                                                                                                                                                                                                                                                                                                                                                                                                     
01                              130442    179 199 9069861                                                                                   39785819930052013                                                              00011841947776ROBERTO CARLOS CORE SOUZA                                                                           IVAI 0 26 QD 37                                                                                     JARDIM OLAVO BILAC            DUQUE DE CAXIAS                                   RJ                    25036230                                                                                                                                                                                                                                                          OM0000000000000000PROXIMO A PA OLAVO BILAC E FABRICA DE LAJE 21)91488817                                                                                                                                                                                                                                                                                                                                                                                                                                                                                                                                                       
01                              131630    179 199 9033617                                                                                   40108919903062013                                                              00000055337759SANDRA DAS NEVES DO NASCIMENTO                                                                      H 75 1 FUNDOS                                                                                       NOVA CAMPINAS                 DUQUE DE CAXIAS                                   RJ                    25268280                                                                                                                                                                                                                                                          OM0000000000000000PROXIMO AO BAR DO PQD OU ESQUINA COM A RUA 17 TEL 26750253 OU 86933068 AC DE DONA                                                                                                                                                                                                                                                                                                                                                                                                                                                                                                                            
01                              129998    179 199 9067767                                                                                   39787619930052013                                                              00037266535700JOSE PEDRO DA SILVA                                                                                 ORLANDO TEIXEIRA 22 LT 02 QD 22                                                                     PARQUE DUQUE                  DUQUE DE CAXIAS                                   RJ                    25085105                                                                                                                                                                                                                                                          OM0000002126532583PROX AO HOSPITAL COTERFIL PROC POR SR JOSE PEDRO TEL  (21)26532583                                                                                                                                                                                                                                                                                                                                                                                                                                                                                                                                           
01                              129677    179 199 9033581                                                                                   39862119931052013                                                              00065067410744ANNA REGINA DE OLIVEIRA                                                                             MANOEL RAMOS 865                                                                                    VILA LEOPOLDINA               DUQUE DE CAXIAS                                   RJ                    25060230                                                                                                                                                                                                                                                          OM0000002126538395ESQUINA DA RUA FEIA PROX DO CAMPO DO FRANCISCAO PROC JURANDI OU MIRIAM TEL 26538395                                                                                                                                                                                                                                                                                                                                                                                                                                                                                                                          
01                              132067    179 199 9051404                                                                                   40109019903062013                                                              00010728269767ANTONIO ALEXANDRE DA ROCHA VIEIRA                                                                   BOTELHO DE OLIVEIRA 0 LT 07 QD 302                                                                  MORABI                        DUQUE DE CAXIAS                                   RJ                    25264155                                                                                                                                                                                                                                                          OM0000000000000000PROXIMO AO BAZAR MORABI FICA DE ESQUINA PROC PELO ZENILDO 21)27772034                                                                                                                                                                                                                                                                                                                                                                                                                                                                                                                                        
01                              132050    179 199 9033617                                                                                   40108719903062013                                                              00010911361731JOUSE CRISTINA DA SILVEIRA                                                                          DOUTOR BORGES DE MEDEIROS 107 CASA1                                                                 PARQUE JOAO PESSOA            DUQUE DE CAXIAS                                   RJ                    25220750                                                                                                                                                                                                                                                          OM0000000000000000PROXIMO AO COLEGIO DARCIR VARGAS TERCEIRA RUA DO LADO DIREITO TEL 27787617 OU 91296539                                                                                                                                                                                                                                                                                                                                                                                                                                                                                                                       
01                              130438    179 199 9051404                                                                                   39787819930052013                                                              00007130711760WEDER RODRIGUES PIRES                                                                               BARBOSA RODRIGUES 86 QD 41                                                                          PARQUE DUQUE                  DUQUE DE CAXIAS                                   RJ                    25085040                                                                                                                                                                                                                                                          OM0000000000000000FICA NA RUA DA LOCANTE PROC PELA CRISTIANE - (21)77790363                                                                                                                                                                                                                                                                                                                                                                                                                                                                                                                                                    
01                              131679    179 199 9067767                                                                                   40087919902062013                                                              00089955099704KATIA REGINA TAVARES DO NASCIMENTO                                                                  JOAO BATISTA 246                                                                                    PARQUE NOVA ESPERANCA         DUQUE DE CAXIAS                                   RJ                    25045070                                                                                                                                                                                                                                                          OM0000000000000000FICA NA RUA DA PIZZARIA MASTER PIZZA CONJUNTO RESIDENCIAL PROC POR SRA KATIA  (21)31344103                                                                                                                                                                                                                                                                                                                                                                                                                                                                                                                   
01                              130193    179 199 9045796                                                                                   39861819931052013                                                              00008939133404JOSELIA TEIXEIRA DA ROCHA                                                                           SETE DE JANEIRO 0 ENFRENTE  AO N 15                                                                 SAO BENTO                     DUQUE DE CAXIAS                                   RJ                    25040030                                                                                                                                                                                                                                                          OM0000002131357971PROX  AVAGUINHO CASA DE MATERIAL E MERCADINHO TUDO DE BOM PROC DONA JOSELIA TEL - (21)31357971 - (21)93673306                                                                                                                                                                                                                                                                                                                                                                                                                                                                                                
01                              39868     213 199 9056075                                                                                   40109319903062013                                                              00012246915716HENDSON CARLOS BOTELHO GUIMARAES                                                                    AIALA 19 QD 100B                                                                                    PARQUE PAULISTA               DUQUE DE CAXIAS                                   RJ                    25261160                                                                                                                                                                                                                                                          OM0000002136584667RUA ATRS DO CIEP HENFIL PROC GLORIA  - (21)36584667 - (21)77572809                                                                                                                                                                                                                                                                                                                                                                                                                                                                                                                                           
01                              115255    179 199 9045796                                                                                   39861719931052013                                                              00008224568776SOLANGE CERRI DOS SANTOS                                                                            JOAQUIM TENORIO 20 CS 2                                                                             PARQUE FELICIDADE             DUQUE DE CAXIAS                                   RJ                    25080340                                                                                                                                                                                                                                                          OM0000000000000000ENTREGA COM  URGENCIA                                                                                                                                                                                                                                                                                                                                                                                                                                                                                                                                                                                        
01                              131869    179 199 9067767                                                                                   40109419903062013                                                              00009876184741EDSON NOGUEIRA DE BARROS                                                                            TARIJA 23 03                                                                                        PARQUE MARILANDIA             DUQUE DE CAXIAS                                   RJ                    25225654                                                                                                                                                                                                                                                          OM0000000000000000FICA NA ESQUINA DO FERRO VELHO DO KIKO ESQUINA COM AVENIDA SAO PAULO PROC POR EDSON OU CRISTIANE                                                                                                                                                                                                                                                                                                                                                                                                                                                                                                             
01                              39512     213 199 9056075                                                                                   40109119903062013                                                              00092033636704CLEUNICE GOMES DE FREITAS                                                                           RODRIGUES ALVES 1                                                                                   IMBARIE                       DUQUE DE CAXIAS                                   RJ                    25275440                                                                                                                                                                                                                                                          OM0000002126780741PROX AO VALAO PERTO DO ANT CCI PREFEREN NO HORARIO DA MANHA PROC CLEUNICE- (21)26780741 - (21)97992414                                                                                                                                                                                                                                                                                                                                                                                                                                                                                                       
01                              130299    179 199 9033611                                                                                   39786819930052013                                                              00014705115767WEMERSON ALBERTO SOARES                                                                             GARIBALDI 12 LT 12 QD 1                                                                             JARDIM VINTE E CINCO DE AGOSTODUQUE DE CAXIAS                                   RJ                    25075080                                                                                                                                                                                                                                                          OM0000000000000000PROX AO FORUM NA RUA DO CENTRO ESPORTE PROC MARIA DO JOEL TEL 75509822 OU 74535341                                                                                                                                                                                                                                                                                                                                                                                                                                                                                                                           
01                              130413    179 199 9051404                                                                                   39786919930052013                                                              00072969121700MARLI DOS SANTOS SILVA                                                                              CORONEL CARLOS DE MATOS 245                                                                         VILA CENTENARIO               DUQUE DE CAXIAS                                   RJ                    25030140                                                                                                                                                                                                                                                          OM0000000000000000FICA NA RUA DA IGREJINHA PROXIMO AO SANTUARIO PROC PELO TOQUINHO 21)27833526 - (21)73553599                                                                                                                                                                                                                                                                                                                                                                                                                                                                                                                  
01                              45531     169 199 9033939                                                                                   40088019902062013                                                              00084764490625DARIO CESAR BARCELAR                                                                                SAO MARCOS 0 10 LT 07                                                                               JARDIM ROSARIO                DUQUE DE CAXIAS                                   RJ                    25220160                                                                                                                                                                                                                                                          OM0000002127787854REF PX AO COLEGIO PEDRO RODRIGUES TEL 84258459                                                                                                                                                                                                                                                                                                                                                                                                                                                                                                                                                               
01                              131789    179 199 9051404                                                                                   40088319902062013                                                              00004474195795JOAO LUIZ DE OLIVEIRA FERREIRA                                                                      EUZEBIO DE QUEIROZ 4                                                                                JARDIM TRES MARIAS            DUQUE DE CAXIAS                                   RJ                    25080130                                                                                                                                                                                                                                                          OM0000002126747500PROXIMO AO MERCADO BIZ PROC PELACRISTIANE (21)26747500                                                                                                                                                                                                                                                                                                                                                                                                                                                                                                                                                       
01                              131261    179 199 9068087                                                                                   40109919903062013                                                              00000213005778ELISABETE GOMES DE SOUZA                                                                            RIO GRANDE DO NORTE 23 TRAVESSA                                                                     SANTA CRUZ DA SERRA           DUQUE DE CAXIAS                                   RJ                    25260030                                                                                                                                                                                                                                                          OM0000002126797928PROX A FACUDADE UNIGRARIO ANTIGO LELES PROCURA BETE (21)26797928                                                                                                                                                                                                                                                                                                                                                                                                                                                                                                                                             
01                              130687    179 199 9069887                                                                                   39952419901062013                                                              00012027620770RAFAEL DOS SANTOS FELICIANO                                                                         AUGUSTO JOSE 1 LT 03 QD 98                                                                          PARQUE CAPIVARI               DUQUE DE CAXIAS                                   RJ                    25245290                                                                                                                                                                                                                                                          OM0000000000000000PRX AO TIME SACO MUCHO FICA DE ESQUINA PROC SR ARI OU MARCIA FONE 26505290                                                                                                                                                                                                                                                                                                                                                                                                                                                                                                                                   
01                              131478    179 199 9051404                                                                                   39961119901062013                                                              00010537822763FABIO SILVA DOS SANTOS                                                                              DARCY VARGAS 115 3                                                                                  CIDADE DOS MENINOS            DUQUE DE CAXIAS                                   RJ                    25237010                                                                                                                                                                                                                                                          OM0000000000000000PROXIMO AO BAR DO ZE PROC PELA ELZA TIA DO RICARDO DO GAZ TEL 21)27579568 - (21)84411097                                                                                                                                                                                                                                                                                                                                                                                                                                                                                                                     
01                              45367     169 199 9033916                                                                                   40108419903062013                                                              00082115524500CRISTIANE JESUS DA SILVA                                                                            DOZE DE OUTUBRO 12 03                                                                               IMBARIE                       DUQUE DE CAXIAS                                   RJ                    25000000                                                                                                                                                                                                                                                          OM0000002130237113FICA  PROX  A IGREJA ASSEMBELIA DE DESU                                                                                                                                                                                                                                                                                                                                                                                                                                                                                                                                                                      
01                              131552    179 199 9041617                                                                                   39960719901062013                                                              00068367325753AURECI FRANCISCA DA SILVA DE SOUZA                                                                  SETE DE SETEMBRO 629                                                                                CENTRO                        DUQUE DE CAXIAS                                   RJ                    25020190                                                                                                                                                                                                                                                          OM0000000000000000PROX A PIZZARIA PROC POR DONA AURECI TEL 8318-5620                                                                                                                                                                                                                                                                                                                                                                                                                                                                                                                                                           
01                              39779     213 199 9056075                                                                                   40108319903062013                                                              00000677684746MARCOS ANTONIO DA SILVA                                                                             ALAMEDA 0 LT15 QD 42                                                                                JARDIM PRIMAVERA              DUQUE DE CAXIAS                                   RJ                    25000000                                                                                                                                                                                                                                                          OM0000002127763456PROX A CS DA CLEIDE PROC JOICE OU THIAGO DO GAS 87209512 92357861                                                                                                                                                                                                                                                                                                                                                                                                                                                                                                                                            
01                              131810    179 199 9066910                                                                                   40108619903062013                                                              00013870057742FERNANDA RIBEIRO DUARTE                                                                             LOMBARDIA 0 LT 29 QD 50 CS 01                                                                       PARQUE PAULISTA               DUQUE DE CAXIAS                                   RJ                    25261420                                                                                                                                                                                                                                                          OM0000000000000000PROX AO CAMPO PAULISTANO E A ANTIGA PADARIA DO VERDAO PROC FERNANDA (21)34777673 - (21)76463006                                                                                                                                                                                                                                                                                                                                                                                                                                                                                                              
01                              131362    179 199 9067767                                                                                   39960519901062013                                                              00015242014725LUIS FILIPE PEREIRA DA SILVA                                                                        AV GOVERNADOR LEONEL DE MOURA BRIZOLA 1060 904                                                      CENTRO                        DUQUE DE CAXIAS                                   RJ                    25010002                                                                                                                                                                                                                                                          OM0000000000000000EM FRENTE AO CURSO PROGRESSAO EDIFICIO CINE RIVER PROC POR LUIS FELIPE OU JOSE LUIS TEL 75931040                                                                                                                                                                                                                                                                                                                                                                                                                                                                                                             
01                              131262    179 199 9028414                                                                                   39952719901062013                                                              00026893860706URBANO DE JESUS PIRES                                                                               NOSSA SENHORA DA CONCEICAO 0 01 QD 04                                                               PILAR                         DUQUE DE CAXIAS                                   RJ                    25233070                                                                                                                                                                                                                                                          OM0000002130652531PROX AO DEPOSITO DE BEBIDAS DO REINALDO PROX A LANCHONETE NELSUCOS TEL  - (21)30652531 - (21)82956883 PROC SRA AVNER                                                                                                                                                                                                                                                                                                                                                                                                                                                                                         
01                              39244     213 199 9056075                                                                                   39952119901062013                                                              00073121185772TERESINHA BRANDAO TARANTO                                                                           BARAO DE SURUI 5 QD13                                                                               TAQUARA                       DUQUE DE CAXIAS                                   RJ                    25275030                                                                                                                                                                                                                                                          OM0000000000000000RUA EM FRENT AO COLEGIO NOVA AMERICA ENTREGAR PREFEN AOS SABADOS PROC HAIDE BRANDAO- (21)36666621 - (21)9807137 96203021                                                                                                                                                                                                                                                                                                                                                                                                                                                                                     
01                              131343    179 199 9067767                                                                                   39952619901062013                                                              00048673269768JORGE DE SOUZA                                                                                      MARIA LOMAR 1 QD D                                                                                  SAO BENTO                     DUQUE DE CAXIAS                                   RJ                    25040380                                                                                                                                                                                                                                                          OM0000000000000000FICA NO PANTANAL SAO BENTO PROX AO PRIMEIRO PONTO DO MORRO SOSSEGO PROC POR JORGE COPAO                                                                                                                                                                                                                                                                                                                                                                                                                                                                                                                      
01                              131281    179 199 9045796                                                                                   39855419931052013                                                              00094187991700AUREA DO NASCIMENTO SILVEIRA                                                                        CAMORIM 260                                                                                         DOUTOR LAUREANO               DUQUE DE CAXIAS                                   RJ                    25060210                                                                                                                                                                                                                                                          OM0000000000000000ENTRE A RUA BANGU E SURUI PROC DONA AUREA TEL  (21)76103969 - (21)76103969                                                                                                                                                                                                                                                                                                                                                                                                                                                                                                                                   
01                              131229    179 199 9069861                                                                                   39951919901062013                                                              00093051719587JOSE NASCIMENTO                                                                                     QUATRO 282                                                                                          NOVA CAMPINAS                 DUQUE DE CAXIAS                                   RJ                    25268070                                                                                                                                                                                                                                                          OM0000002136528225ENTREGAR NA CASA 2 PROXIMO A ANTIGA FABRICA DE PAPELAO E PROX AO DPO AREA 2 (21)36528225                                                                                                                                                                                                                                                                                                                                                                                                                                                                                                                     
01                              131413    179 199 9051404                                                                                   39962019901062013                                                              00003265517780HELIO RICARDO MOREIRA                                                                               ITACIBA 230 FDS                                                                                     VILA ITAMARATI                DUQUE DE CAXIAS                                   RJ                    25070170                                                                                                                                                                                                                                                          OM0000000000000000PROXIMO A IGREJA MARANATA PROC PELA EDNA TEL (21)26723690                                                                                                                                                                                                                                                                                                                                                                                                                                                                                                                                                    
01                              45337     169 199 9033939                                                                                   39952819901062013                                                              00008285663728RENATO PAULINO DOS SANTOS                                                                           PRESIDENTE ROOSEVELT 55                                                                             JARDIM BALNEARIO ANA CLARA    DUQUE DE CAXIAS                                   RJ                    25221160                                                                                                                                                                                                                                                          OM0000002127731405REF PX A PADARIA DO BRUNO TEL 75030587 30456137                                                                                                                                                                                                                                                                                                                                                                                                                                                                                                                                                              
01                              131297    179 199 9069861                                                                                   39953119901062013                                                              00007608495790ROSEMARY BERNARDO DOS SANTOS                                                                        MARIA NUNES CORREIA 37 03                                                                           PANTANAL                      DUQUE DE CAXIAS                                   RJ                    25040340                                                                                                                                                                                                                                                          OM0000000000000000DO LADO DA OFICINA DO CARLAO  (21)76774539 - (21)35224460                                                                                                                                                                                                                                                                                                                                                                                                                                                                                                                                                    
