00                       20130603083000PREVIMONT                     RICARDO ELETRO                                                                                      64282601004457     100570    ISABELA- 07                                                                                                                                                                                                                                                                                                                                                                                                                                                                                                                                                                                                                                                                                                                                                                                                                                                                                                                                                                                                                                                                                                                                                                                                                                       
01                              19089     175 199 9069789                                                                                   40015219901062013                                                              00088455173491JOSEFA EDVANE MAIA                                                                                  AURELIANO PORTUGAL 220 220                                                                          RIO COMPRIDO                  RIO DE JANEIRO                                    RJ                    20261004                                                                                                                                                                                                                                                          OM0000000000000000ANTES DA FACULTADE ESTACIO DE SA FICA ENFRENTE AO PONTO FINAL DO ONIBUS 202                                                                                                                                                                                                                                                                                                                                                                                                                                                                                                                                  
01                              31159     281 199 9055798                                                                                   40032419901062013                                                              00002897908599WALDSON MIRANDA MOURA                                                                               CHACARA DA ALVORADA 4 NA ESCADA                                                                     ROCINHA                       RIO DE JANEIRO                                    RJ                    22451261                                                                                                                                                                                                                                                          OM0000002180956534ATRAS DA UPA LIGAR PARA CLIENTE 80956534 OU 82928856 TROCA COM RECOLHIMENTO                                                                                                                                                                                                                                                                                                                                                                                                                                                                                                                                  
01                              29789     167 199 9033881                                                                                   40032519901062013                                                              00000325415706CLAUDIA DE SOUZA TEIXEIRA                                                                           RUA MAJOR TOJA MARTINEZ FILHO 19 CASA                                                               VIDIGAL                       RIO DE JANEIRO                                    RJ                    22450270                                                                                                                                                                                                                                                          OM0000000000000000TROCA COM RECOLHIMENTO ESQUINA DA OFICINA DO CELESTINO PORTAO E MURO VERDE LADO ESQUERDO96127276 PEDRO                                                                                                                                                                                                                                                                                                                                                                                                                                                                                                       
01                              45373     169 199 9033916                                                                                   39904219931052013                                                              00071233946749MARIA DAS GRACA GONCALVES                                                                           ARI LEAO 136 PARQUE UNIAO                                                                           MARE                          RIO DE JANEIRO                                    RJ                    21000000                                                                                                                                                                                                                                                          OM0000002122222222FICA PROX AO ACONCHEGO PROC NA ENTRE  STEFFANY E TIFANY SOLICITA ENTREGA URGENCIA 9738 6003 PREF 022                                                                                                                                                                                                                                                                                                                                                                                                                                                                                                         
01                              37267     172 199 9068607                                                                                   39904119931052013                                                              00002248121300MARIA GEANE AVELINO RAMOS                                                                           RUA TRES 66 02 FRENTE                                                                               VILA DO JOAO                  RIO DE JANEIRO                                    RJ                    21000000                                                                                                                                                                                                                                                          OM0000002122304023PROX AO SUPERMERCADO SUPERMARKTING  TEL 92112311 PROC GEANE OU NILDA                                                                                                                                                                                                                                                                                                                                                                                                                                                                                                                                         
01                              26997     241 199 9029282                                                                                   40018419901062013                                                              00008225865766ANA LUCIA FERREIRA DE SOUZA                                                                         INFANTE DE SAGRES 284                                                                               RIO COMPRIDO                  RIO DE JANEIRO                                    RJ                    20261060                                                                                                                                                                                                                                                          OM0000002132867673TROCA REC SIM FICA NA COMUNIDADE DO TURANO ATRAS DA ESTACIO DE SA ENTREGAR NA ASSOC MORADORES DOP RODO TEL (21)32867673                                                                                                                                                                                                                                                                                                                                                                                                                                                                                      
02                                         742545                        19089     185794    GR ARAPLAC 10PC/P VIENA PLUS TB/BR                                                                  1                      13062013                                                                                                                                                                                                                                                          000000000000000000000000000000000000000100                                                                                                                                                                                                                                                                                                                                                                                                                                                                                                                                                                                                                                                                                                                                                                                                                                                                                                                    
02                                         742546                        31159     157755    G.ROUPA ARAPLAC 10P ATL PLUS TB/GRAF                                                                1                      13062013                                                                                                                                                                                                                                                          000000000000000000000000000000000000000200                                                                                                                                                                                                                                                                                                                                                                                                                                                                                                                                                                                                                                                                                                                                                                                                                                                                                                                    
02                                         742547                        29789     88613     ARM.COLOR.ECLIPSE PLUS 2P4G BAL C/T BR                                                              1                      13062013                                                                                                                                                                                                                                                          000000000000000000000000000000000000000100                                                                                                                                                                                                                                                                                                                                                                                                                                                                                                                                                                                                                                                                                                                                                                                                                                                                                                                    
02                                         742547                        29789     88621     COZ COMP COLOR ECLIPSE TOP BR                                                                       1                      13062013                                                                                                                                                                                                                                                          000000000000000000000000000000000000000200                                                                                                                                                                                                                                                                                                                                                                                                                                                                                                                                                                                                                                                                                                                                                                                                                                                                                                                    
02                                         742548                        45373     155462    G.ROUPA EURO 3P RUBI ESP PL/PT/PL                                                                   1                      13062013                                                                                                                                                                                                                                                          000000000000000000000000000000000000000100                                                                                                                                                                                                                                                                                                                                                                                                                                                                                                                                                                                                                                                                                                                                                                                                                                                                                                                    
02                                         742549                        37267     185264    G.ROUPA ARAMOVEIS 6P2G BRASIL BR/FE                                                                 1                      13062013                                                                                                                                                                                                                                                          000000000000000000000000000000000000000100                                                                                                                                                                                                                                                                                                                                                                                                                                                                                                                                                                                                                                                                                                                                                                                                                                                                                                                    
02                                         742550                        26997     185260    G.ROUPA ARAMOVEIS  4P3G BRASIL BR/FE                                                                1                      13062013                                                                                                                                                                                                                                                          000000000000000000000000000000000000000100                                                                                                                                                                                                                                                                                                                                                                                                                                                                                                                                                                                                                                                                                                                                                                                                                                                                                                                    
99                       000015                                                                                                                                                                                                                                                                                                                                                                                                                                                                                                                                                                                                                                                                                                                                                                                                                                                                                                                                                                                                                                                                                                                                                                                                                                                                                                                                                                                                                         