00                       20130618080833PREVIMONT                     RICARDO ELETRO                                                                                      64282601004457     100646    JULIANA - 14                                                                                                                                                                                                                                                                                                                                                                                                                                                                                                                                                                                                                                                                                                                                                                                                                                                                                                                                                                                                                                                                                                                                                                                                                                      
01                              45002     195 199 9064538                                                                                   41366519915062013                                                              00011249235782ADRIANA GOME DA SILVA                                                                               AV TUCAO 397                                                                                        VILAR DOS TELES               SAO JOAO DE MERITI                                RJ                    25561231                                                                                                                                                                                                                                                          OM0000000000000000PROX A PRACA DO CAMILO E PROX AO BAR DA MUNIQUE FALAR COM INGRID  92997674                                                                                                                                                                                                                                                                                                                                                                                                                                                                                                                                   
01                              44495     195 199 9069866                                                                                   41366719915062013                                                              00014083601795REGINA FONSECA DOA SANTOS                                                                           CARACAS 0 QD 100 LT 25                                                                              VILAR DOS TELES               SAO JOAO DE MERITI                                RJ                    25560380                                                                                                                                                                                                                                                          OM0000002127514771MORRO DAS PEDRAS TEL 94932703 FAVOR FAZER EM ESPECIAL LIGAR ANTES                                                                                                                                                                                                                                                                                                                                                                                                                                                                                                                                            
01                              131986    179 199 9067767                                                                                   41256419914062013                                                              00014281189777MICHELE DE LIMA PORTO                                                                               CORONEL GARCIA PACHECO 83 FRENTE                                                                    PARADA DE LUCAS               RIO DE JANEIRO                                    RJ                    21250590                                                                                                                                                                                                                                                          OM0000000000000000PROX A AVENIDA MERITI PROX A FABRICA DE CIMENTO BRANCO PROC POR SRA MICHELE TEL 142.811.897-77                                                                                                                                                                                                                                                                                                                                                                                                                                                                                                               
01                              27826     198 199 9050026                                                                                   41365619915062013                                                              00092997384753MONICA DA SILVA LOPES                                                                               ANTONIO BELCHIOR 0 LT 57QD 71 CS02 FDS                                                              JARDIM MERITI                 SAO JOAO DE MERITI                                RJ                    25555210                                                                                                                                                                                                                                                          OM0000000000000000PX AO PICINAS BAR PORTAO AO LADO DE UM TRAILLER VERMELHO PRC SRA MONICA                                                                                                                                                                                                                                                                                                                                                                                                                                                                                                                                      
01                              133371    179 199 9045796                                                                                   41555919917062013                                                              00059361476734sandra maria dos santos                                                                             OTAWA 422                                                                                           VIGARIO GERAL                 RIO DE JANEIRO                                    RJ                    21241220                                                                                                                                                                                                                                                          OM0000002133619907TROCA COM RECOLHIMENTO                                                                                                                                                                                                                                                                                                                                                                                                                                                                                                                                                                                       
01                              45854     195 199 9069391                                                                                   41365519915062013                                                              00066638020706LIDIA ROSA                                                                                          SAO JOSE 84 CASA 02                                                                                 VILAR DOS TELES               SAO JOAO DE MERITI                                RJ                    25576100                                                                                                                                                                                                                                                          OM0000000000000000PROX AO COLEGIO HENVIU PROC LIDIA TEL 21 93999763 (21)37570239                                                                                                                                                                                                                                                                                                                                                                                                                                                                                                                                               
01                              52271     203 199 9069290                                                                                   41221519913062013                                                              00082285896034GABRIEL HOMEM CORREA                                                                                FERREIRA CARDOSO 37 SS102                                                                           MARIA DA GRACA                RIO DE JANEIRO                                    RJ                    21050470                                                                                                                                                                                                                                                          OM0000000000000000PROX A ESTACAO DO METRO CEL 21 79151364 CLIENTE ESTA NA RESIDENCIA QUINTA E SABADO FAVOR NA PARTE DA MANHA QUINTA E SABA                                                                                                                                                                                                                                                                                                                                                                                                                                                                                     
01                              20204     175 199 9029334                                                                                   41219919913062013                                                              00002079634445JAILSON BENTO DA SILVA                                                                              CONDE DE BONFIM 193 101                                                                             TIJUCA                        RIO DE JANEIRO                                    RJ                    20520050                                                                                                                                                                                                                                                          OM0000000000000000TEL 83620704 EM FRENTE AO EXTRA E AO LADO DO HORTIFRUTI                                                                                                                                                                                                                                                                                                                                                                                                                                                                                                                                                      
01                              45131     195 199 9069866                                                                                   41366119915062013                                                              00010171941730ANDERSON VIEIRA BRAZ                                                                                TIJUCA 1 LT 6A QD 235                                                                               VILAR DOS TELES               SAO JOAO DE MERITI                                RJ                    25565070                                                                                                                                                                                                                                                          OM0000002175545279NO FINAL DO CAMPINHO PROC EFIGENIA TEL  (21)75545279 21 27861756                                                                                                                                                                                                                                                                                                                                                                                                                                                                                                                                             
01                              135305    179 199 9067767                                                                                   41256019914062013                                                              00003446716408JOSE JACO DE ARAUJO DA SILVA                                                                        PASTOR 28                                                                                           BRAS DE PINA                  RIO DE JANEIRO                                    RJ                    21215110                                                                                                                                                                                                                                                          OM0000002192494330FICA NA RUA DA IGREJA SANTO ANTONIO PROX AO BAR DO MOACIR PROC POR JULIO BAIXINHO TEL - (21)92494330 - (21)33512848                                                                                                                                                                                                                                                                                                                                                                                                                                                                                          
01                              45913     195 199 9069866                                                                                   41365819915062013                                                              00003375775792MARCOS ANTONIO DA SILVA NAPOLEAO                                                                    ERNESTO DE MELO 1 LT 07 A                                                                           VILA SAO JOAO                 SAO JOAO DE MERITI                                RJ                    25570360                                                                                                                                                                                                                                                          OM0000000000000000                                                                                                                                                                                                                                                                                                                                                                                                                                                                                                                                                                                                             
01                              45908     195 199 9064538                                                                                   41366019915062013                                                              00064742415787LUZIA MAGALHAES M DE ARAUJO                                                                         ASSUNCAO 160 CS2 FDS                                                                                VILAR DOS TELES               SAO JOAO DE MERITI                                RJ                    25561410                                                                                                                                                                                                                                                          OM0000000000000000AO LADO DO PISCINAS FESTA NA UA DO CAMPO TRIO DE OURO FALAR COM LUZIA (21)27573130 - (21)76561277                                                                                                                                                                                                                                                                                                                                                                                                                                                                                                            
01                              47411     169 199 9033939                                                                                   41532719917062013                                                              00000470056703ROBSON LUIZ DE FREITAS                                                                              HIPOLITO DA COSTA 82 01                                                                             VILA ISABEL                   RIO DE JANEIRO                                    RJ                    20551040                                                                                                                                                                                                                                                          OM0000000000000000REF PX AO SALAO DO JULIO TEL 77784981                                                                                                                                                                                                                                                                                                                                                                                                                                                                                                                                                                        
01                              47339     169 199 9033939                                                                                   41532819917062013                                                              00005044512869GILSON GOMES DE CARVALHO                                                                            COMENDADOR GERVASIO SEABRA 130                                                                      ALTO DA BOA VISTA             RIO DE JANEIRO                                    RJ                    20531470                                                                                                                                                                                                                                                          OM0000000000000000REF PX A ESTRADA DA GAVEA PEQUENA PX A CASA DO PREFEITO SENTIDO EST DAS CANOAS TEL 93966161                                                                                                                                                                                                                                                                                                                                                                                                                                                                                                                  
01                              136824    179 199 9069861                                                                                   41364719915062013                                                              00011418750719MONIQUE MENDES SOUZA                                                                                TUBIACANGA 100                                                                                      PARQUE ARARUAMA               SAO JOAO DE MERITI                                RJ                    25585210                                                                                                                                                                                                                                                          OM0000000000000000EM FRENTE A IGREJA BATISTA CHAMAR JUNIOR OU MONICA  (21)26532118 - (21)78300864                                                                                                                                                                                                                                                                                                                                                                                                                                                                                                                              
01                              20453     175 199 9064905                                                                                   41532319917062013                                                              00007914333409LUCIVANIA DA SILVA                                                                                  LAUDINOR 244 AV MARACANA                                                                            TIJUCA                        RIO DE JANEIRO                                    RJ                    20530420                                                                                                                                                                                                                                                          OM0000000000000000COMUNIDADE DA INDIANA ENFRENTE AO ANTIGO CARREFUOR PROC DONA LUCIVANIA TEL 80604656                                                                                                                                                                                                                                                                                                                                                                                                                                                                                                                          
01                              45922     195 199 9064538                                                                                   41364819915062013                                                              00077859715791CLEONICE FELIX                                                                                      DOUTOR BRUNO 40 CS3                                                                                 JARDIM SANTO ANTONIO          SAO JOAO DE MERITI                                RJ                    25580310                                                                                                                                                                                                                                                          OM0000000000000000PROX A IGREJA UNIVELSAL NA ESQUINA ANTIGO PE DE AMENDOA FALAR COM CLEONICE OU FRANCLIN  (21)27516680 - (21)88888888                                                                                                                                                                                                                                                                                                                                                                                                                                                                                          
01                              20496     175 199 9124858                                                                                   41532219917062013                                                              00007733723779JEAN CARLOS PEREIRA DA SILVA                                                                        MARIO SERRA 5 FRENTE                                                                                ALTO DA BOA VISTA             RIO DE JANEIRO                                    RJ                    20535340                                                                                                                                                                                                                                                          OM0000000000000000PROX AO DPO MATA MACHADO E DA ASSOCIACAO DOS MORADORES                                                                                                                                                                                                                                                                                                                                                                                                                                                                                                                                                       
01                              20486     175 199 9124858                                                                                   41532519917062013                                                              00083773835787MARIA DA PENHA CIPRIANO                                                                             CASTELO NOVO 145 FUNDOS                                                                             TIJUCA                        RIO DE JANEIRO                                    RJ                    20530680                                                                                                                                                                                                                                                          OM0000002176070872EM FRENTE A CRECHE ABELINHA                                                                                                                                                                                                                                                                                                                                                                                                                                                                                                                                                                                  
01                              45928     195 199 9069391                                                                                   41364619915062013                                                              00013038529770INGRID LIMA NUNES                                                                                   TORRES 1 QDC                                                                                        JARDIM SANTO ANTONIO          SAO JOAO DE MERITI                                RJ                    25580321                                                                                                                                                                                                                                                          OM0000000000000000PROX A UNIVERSAL JARDIM IRIS SOBE A 1 ESQUERDA AO LADO DA ASSEMBLEIA DE DEUS TEL 2127860959 (21)77363313                                                                                                                                                                                                                                                                                                                                                                                                                                                                                                     
01                              18628     248 199 9054557                                                                                   41529819917062013                                                              00007068841759ANDREZA ARAUJO DA SILVA                                                                             BARAO DE SANTO ANGELO 187 FUNDOS                                                                    ENGENHO DE DENTRO             RIO DE JANEIRO                                    RJ                    20720000                                                                                                                                                                                                                                                          OM0000000000000000ACESSO PELA RUA DIAS DA CRUZ A RUA BARAO DE SANTO ANGELO E LADEIRA REFERENCIA ARMAZEN DO FRANGO                                                                                                                                                                                                                                                                                                                                                                                                                                                                                                              
01                              20446     175 199 9124858                                                                                   41532419917062013                                                              00001650665717LUCIANO PIERRE                                                                                      FRANCA JUNIOR 503 CASA                                                                              ANDARAI                       RIO DE JANEIRO                                    RJ                    20510270                                                                                                                                                                                                                                                          OM0000000000000000FINAL RUA MARIA AMALIA PRIMEIRA A ESQUERDA                                                                                                                                                                                                                                                                                                                                                                                                                                                                                                                                                                   
01                              52701     203 199 9069290                                                                                   41173619913062013                                                              00011894755707JANAINA FRANCISCO PEREIRA                                                                           CAMBORIU 27 CASA                                                                                    JACARE                        RIO DE JANEIRO                                    RJ                    20975160                                                                                                                                                                                                                                                          OM0000000000000000                                                                                                                                                                                                                                                                                                                                                                                                                                                                                                                                                                                                             
01                              20478     175 199 9029334                                                                                   41531519917062013                                                              00018521827334OSMAR GOMES DOS SANTOS                                                                              DELGADO DE CARVALHO 76 PORTARIA                                                                     TIJUCA                        RIO DE JANEIRO                                    RJ                    20260280                                                                                                                                                                                                                                                          OM0000000000000000TEL 25872067 - (21)88582068 UMA RUA APOS O MERCADO MUNDIAL NO LGO DA SEGUNDA FEIRA                                                                                                                                                                                                                                                                                                                                                                                                                                                                                                                           
01                              20392     175 199 9064905                                                                                   41531719917062013                                                              00031623190720LUIZ FERNANDO JALLES                                                                                BARAO DE ITAPAGIPE 407 06 APT 101                                                                   TIJUCA                        RIO DE JANEIRO                                    RJ                    20261005                                                                                                                                                                                                                                                          OM0000000000000000VILA ENFRETE A PROFESSOR GABIZO PROC DONA SONIA OU SR LUIZ TEL (21)32342006 - (21)92729722                                                                                                                                                                                                                                                                                                                                                                                                                                                                                                                   
01                              134732    179 199 9033581                                                                                   41361819915062013                                                              00008487868746JAQUELINE MARIA DE OLIVEIRA                                                                         FURQUIM MENDES 462 07                                                                               VIGARIO GERAL                 RIO DE JANEIRO                                    RJ                    21240341                                                                                                                                                                                                                                                          OM0000000000000000RUA CONHECIDA COMO QUEBRETE PERTO DO BARBEIRO GILSON E MOTO TAXI DO QUEBRETE PROC ROBERTA  (21)33619158 - (21)94237128                                                                                                                                                                                                                                                                                                                                                                                                                                                                                       
01                              52869     203 199 9043434                                                                                   41173119913062013                                                              00011457037718FABIANA SANTOS LINO                                                                                 ESPERANCA 41                                                                                        JACARE                        RIO DE JANEIRO                                    RJ                    20970150                                                                                                                                                                                                                                                          OM0000000000000000PROX AO BAR DO BARBUDO NA COMUNIDADE PROC BARBUDO TEL92211168                                                                                                                                                                                                                                                                                                                                                                                                                                                                                                                                                
01                              52969     203 199 9041796                                                                                   41172619913062013                                                              00003533599710ROSANGELA ALVES DUARTE                                                                              BATISTA 1                                                                                           JACARE                        RIO DE JANEIRO                                    RJ                    20970720                                                                                                                                                                                                                                                          OM0000000000000000PROX AO BLOCO DO BACIA PROC SRA CHAIENNE OU SR MANEL URGENCIA NA ENTREGA                                                                                                                                                                                                                                                                                                                                                                                                                                                                                                                                     
01                              37749     172 199 9063547                                                                                   41267019914062013                                                              00066739365415EDMAR DE MOURA                                                                                      MAGNO MARTINS 360 CASA                                                                              FREGUESIA (ILHA DO GOVERNADOR)RIO DE JANEIRO                                    RJ                    21911430                                                                                                                                                                                                                                                          OM0000000000000000NO ANTIGO PONTO FINAL DO 326 EM FRENTE AO CAMPO PROC SRA SONIA OU SRA MARCIA 33634762 85374365                                                                                                                                                                                                                                                                                                                                                                                                                                                                                                               
01                              28248     241 199 9029282                                                                                   41270619914062013                                                              00011774928736JANIELE SERAFIM FELIX                                                                               DO CRUZEIRO 46                                                                                      MANGUEIRA                     RIO DE JANEIRO                                    RJ                    20256010                                                                                                                                                                                                                                                          OM0000000000000000NA LOCALIDADE DA PEDRA AO LADO BAR BABAO PROC DEILSON TEL (21)72138587 - (21)96520367                                                                                                                                                                                                                                                                                                                                                                                                                                                                                                                        
01                              29116     194 199 9053495                                                                                   41361619915062013                                                              00009659611765VALQUIRIA DOS SANTOS NEVES                                                                          DO PORTO VELHO 545 304 BL 02                                                                        CORDOVIL                      RIO DE JANEIRO                                    RJ                    21012140                                                                                                                                                                                                                                                          OM0000002124854072PROX POSTO DE SAUDE CIDADE ALTA CL CIENTE DO PRAZO DE ENTREGA                                                                                                                                                                                                                                                                                                                                                                                                                                                                                                                                                
01                              21922     173 199 9062450                                                                                   41265519914062013                                                              00000110208730VERA LUCIA DOS SANTOS SILVA                                                                         FRANCISCA MATOS 580 302 ILHA DO GOVERNADOR                                                          BANCARIOS                     RIO DE JANEIRO                                    RJ                    21910055                                                                                                                                                                                                                                                          OM0000000000000000PROX AO DEPOSITO DA COCACOLA PERTO DA PRACA TEL  (21)74780220 - (21)71096109                                                                                                                                                                                                                                                                                                                                                                                                                                                                                                                                 
01                              21551     173 199 9066557                                                                                   41266519914062013                                                              00002824143711EDNALVA FRUTUOZO DA SILVA                                                                           RUA DA PRAIA 22 BC DA PAZ                                                                           PORTUGUESA                    RIO DE JANEIRO                                    RJ                    21931619                                                                                                                                                                                                                                                          OM0000002133838304PROX A CICLOVIA APOS A CRECHE OBS CASO CLI PEDE PARA ENTREGAR NO NUMERO 12 CHAMAR SEVERINO (21)68134473 - (21)33838304                                                                                                                                                                                                                                                                                                                                                                                                                                                                                       
01                              37407     242 199 9039554                                                                                   41586219917062013                                                              00012432150708NATASHA GOMES                                                                                       DOUTOR JOSE DE CARVALHO 82                                                                          VILA TIRADENTES               SAO JOAO DE MERITI                                RJ                    25525250                                                                                                                                                                                                                                                          OM0000000000000000NA RUA DA APAE EM FRENTE AO COL SONHO ENCATADO                                                                                                                                                                                                                                                                                                                                                                                                                                                                                                                                                               
01                              18505     248 199 9058793                                                                                   41222319913062013                                                              00089300556720LUCIA MARQUES BARBOSA                                                                               ENGENHEIRO OSCAR DA COSTA 105 CASA 1                                                                ENGENHO DE DENTRO             RIO DE JANEIRO                                    RJ                    20730130                                                                                                                                                                                                                                                          OM0000002134776930PROX AO PONTO FINAL DA LINHA 247 NA RUA DO MERCADINHO NOSSA REDE TEL347769360 OU 99280121                                                                                                                                                                                                                                                                                                                                                                                                                                                                                                                    
01                              46975     169 199 9033939                                                                                   41160519913062013                                                              00005206670774LUCIANA CORREA DE LIMA                                                                              RUA UNIAO 27 SOBRADO                                                                                ACARI                         RIO DE JANEIRO                                    RJ                    21531660                                                                                                                                                                                                                                                          OM0000000000000000REF PX A QUADRA DE AREIA TEL 75966842 68651016                                                                                                                                                                                                                                                                                                                                                                                                                                                                                                                                                               
01                              26160     196 199 9068550                                                                                   41206419913062013                                                              00013108460730BRUNO PEREIRA CALDEIRA                                                                              ACABE 0 23                                                                                          COSTA BARROS                  RIO DE JANEIRO                                    RJ                    21650100                                                                                                                                                                                                                                                          OM0000000000000000NA RUA DO BRIZOLAO TUBIS GOMES NA ESQUENA NO FINAL DA RUA CAPE NO BECO CHAMARPAULO MARILENE                                                                                                                                                                                                                                                                                                                                                                                                                                                                                                                  
01                              29331     194 199 9031173                                                                                   41263419914062013                                                              00090688694772TEREZA VIRGILINO DA SILVA                                                                           VALMIR 19                                                                                           INHAUMA                       RIO DE JANEIRO                                    RJ                    21062110                                                                                                                                                                                                                                                          OM0000002172999051NO FINAL DA RUA CANITAR PROX A ASSOCIACAO DE MORADORES DO MINEIROS PROC SRA TEREZA TEL 72999051                                                                                                                                                                                                                                                                                                                                                                                                                                                                                                              
01                              28363     241 199 9069475                                                                                   41429519915062013                                                              00001647672740ROMILDA DANTAS DOS SANTOS                                                                           RUA JOAQUIM PIZARRO 335                                                                             TIJUCA                        RIO DE JANEIRO                                    RJ                    20261110                                                                                                                                                                                                                                                          OM0000000000000000PONTO DE ENCONTRO NA ESCOLA FREI CASSIANO LIGAR ANTES 69505056 92202879 93191801                                                                                                                                                                                                                                                                                                                                                                                                                                                                                                                             
01                              28242     241 199 9069475                                                                                   41429319915062013                                                              00008209949608MARIANO PROCOPIO DE ABREU FILHO                                                                     MARTINS PENA 22 102                                                                                 TIJUCA                        RIO DE JANEIRO                                    RJ                    20270270                                                                                                                                                                                                                                                          OM0000000000000000TROCA REC SIM ESQUINA DO BAR CACADOR PROX A PRACA AFONSO PENA PROC GUILHERME OU CARLOS ENTREG SABADO 15/06 TEL79344194                                                                                                                                                                                                                                                                                                                                                                                                                                                                                       
01                              18053     265 199 9069804                                                                                   41439519915062013                                                              00013787031707CINTIA DE SOUZA SILVA                                                                               MARIA HELENA 42                                                                                     COLEGIO                       RIO DE JANEIRO                                    RJ                    21236340                                                                                                                                                                                                                                                          OM0000000000000000PROX AO POSTO DE GASOLINA                                                                                                                                                                                                                                                                                                                                                                                                                                                                                                                                                                                    
01                              32555     167 199 9068539                                                                                   41437819915062013                                                              00005959566451CRISTIANE MARTINS                                                                                   MARECHAL BITTENCOURT 226 301                                                                        RIACHUELO                     RIO DE JANEIRO                                    RJ                    20950200                                                                                                                                                                                                                                                          OM0000000000000000FAVOR ENTREGAR O FOGAO NA MESMA DATA DO GUARDA ROUPA FICA PROXIMO DA FACULDADE CCAA TEL(21)39780710 - (21)93753017                                                                                                                                                                                                                                                                                                                                                                                                                                                                                           
01                              27364     241 199 9069475                                                                                   41430319915062013                                                              00035322039791CARLOS CESAR AUGUSTO                                                                                LUIZA 11 01                                                                                         TIJUCA                        RIO DE JANEIRO                                    RJ                    20521070                                                                                                                                                                                                                                                          OM0000000000000000MORRO DO SALGUEIRO NO FINAL DA R GAL ROCA APOS  BAR MAURO TORRAO TEL 77001039 PROC MIUDINHO                                                                                                                                                                                                                                                                                                                                                                                                                                                                                                                  
01                              16785     177 199 121995                                                                                    41439219915062013                                                              00027722112749URSULA MIRA POLL                                                                                    MONSENHOR FELIX 1163 1 APTO 606                                                                     IRAJA                         RIO DE JANEIRO                                    RJ                    21235111                                                                                                                                                                                                                                                          OM0000000000000000EM FRENTE AO MUNDIAL DE IRAJA PROC DONA URSULA TEL 24738646 POR FAVOR AVISAR A CLIENTE UM DIA ANTES DA ENTREGA                                                                                                                                                                                                                                                                                                                                                                                                                                                                                               
01                              53551     203 199 9070166                                                                                   41437719915062013                                                              00096243937704ELIAUREA TEIXEIRA LOPES CUSTODIO                                                                    SANTOS MELO 51 B                                                                                    SAO FRANCISCO XAVIER          RIO DE JANEIRO                                    RJ                    20960030                                                                                                                                                                                                                                                          OM0000000000000000DEPOIS DA VILA OLIMPICA DA MANGUEIRA AO LADO DO PENTIUM BALL TEL 22182609 CEL 95456873                                                                                                                                                                                                                                                                                                                                                                                                                                                                                                                       
01                              17251     280 199 9067818                                                                                   41439419915062013                                                              00002982292777CRISTIANO MARCELANO                                                                                 MARINHO PESSOA 105                                                                                  IRAJA                         RIO DE JANEIRO                                    RJ                    21230230                                                                                                                                                                                                                                                          OM0000000000000000PX A PCA ROSA FERNANDES PX AO CIMITERIO E A RUA DO HOSPITAL DE IRAJA  TEL 36861049 84148190                                                                                                                                                                                                                                                                                                                                                                                                                                                                                                                  
01                              28363     241 199 9069475                                                                                   41431119915062013                                                              00001647672740ROMILDA DANTAS DOS SANTOS                                                                           RUA JOAQUIM PIZARRO 335                                                                             TIJUCA                        RIO DE JANEIRO                                    RJ                    20261110                                                                                                                                                                                                                                                          OM0000000000000000PONTO DE ENCONTRO NA ESCOLA FREI CASSIANO LIGAR ANTES 69505056 92202879 93191801                                                                                                                                                                                                                                                                                                                                                                                                                                                                                                                             
01                              132927    179 199 9045796                                                                                   41551619917062013                                                              00000132096714RENI ZELL CHAGAS                                                                                    ITARARE 105                                                                                         PARQUE BARRETO                SAO JOAO DE MERITI                                RJ                    25581090                                                                                                                                                                                                                                                          OM0000000000000000TROCA COM RECOLHIMENTO                                                                                                                                                                                                                                                                                                                                                                                                                                                                                                                                                                                       
01                              35314     168 199 9036027                                                                                   41551719917062013                                                              00013079858743LEONARDO WILLIAM                                                                                    AV BRASIL 22155                                                                                     BARROS FILHOS                 RIO DE JANEIRO                                    RJ                    21000010                                                                                                                                                                                                                                                          OM0000000000000000TROCA COM RECOLHIMENTO PASSARELA 30 DA AV BRASIL ENTRAR NA RUA DA IGREJA UNIVERSAL FICA ACIMA DO ESCADAO                                                                                                                                                                                                                                                                                                                                                                                                                                                                                                     
01                              20366     175 199 9029334                                                                                   41430819915062013                                                              00098433881787CLEONICE ALVES DA SILVA                                                                             DA INDEPENDENCIA 97 NO TERREIRAO PROX BAR DO MARCINHO                                               TIJUCA                        RIO DE JANEIRO                                    RJ                    20530400                                                                                                                                                                                                                                                          OM0000000000000000TEL 31858349 - (21)84047977 COMUNIDADE DO BOREL NO TERREIRAO ENTREGAR NO BAR DO MARCINHO                                                                                                                                                                                                                                                                                                                                                                                                                                                                                                                     
01                              36771     242 199 9039554                                                                                   41381619915062013                                                              00006978648710MARCELO BERNADO BENTO                                                                               CORONEL MOREIRA CESAR 627                                                                           PAVUNA                        RIO DE JANEIRO                                    RJ                    21655180                                                                                                                                                                                                                                                          OM0000002130129576RUA PRINCIPAL DO VILAGE AO LADO DO BECO DA SUEDE                                                                                                                                                                                                                                                                                                                                                                                                                                                                                                                                                             
01                              22220     173 199 9062450                                                                                   41613119917062013                                                              00010473411741GABRIEL DE MENEZES SANTOS                                                                           CINQUENTA 82 ILHA DO GOVERNADOR                                                                     GALEAO                        RIO DE JANEIRO                                    RJ                    21941430                                                                                                                                                                                                                                                          OM0000002133635071PROX AO HOP DO LORETO DEPOIS DO MURO DA FUNABEM BAR TOA TOA TEL (21)33635071 - (21)72679063                                                                                                                                                                                                                                                                                                                                                                                                                                                                                                                  
01                              27972     198 199 9124857                                                                                   41583319917062013                                                              00095178074734VALDELICE MONTE  DE OLIVEIRA                                                                        LOURENCO CAMPOS 148 03 FDS                                                                          VILA TIRADENTES               SAO JOAO DE MERITI                                RJ                    25520711                                                                                                                                                                                                                                                          OM0000000000000000                                                                                                                                                                                                                                                                                                                                                                                                                                                                                                                                                                                                             
01                              22106     173 199 9062450                                                                                   41612919917062013                                                              00006995479467ALEXANDRE SOUZA QUEIROZ                                                                             DA GUANABARA 1335 12                                                                                FREGUESIA (ILHA DO GOVERNADOR)RIO DE JANEIRO                                    RJ                    21911090                                                                                                                                                                                                                                                          OM0000002133966592PROX AO HOTEL PLAGE NA FREGUESIA NO FINAL DOS PONTOS DE ONIBUS TEL 35948788 OU 96263463                                                                                                                                                                                                                                                                                                                                                                                                                                                                                                                      
01                              35463     236 199 9062288                                                                                   41508019917062013                                                              00066262836772IRENE DE SOUZA DA SILVA A                                                                           REGINA 7                                                                                            VILA TIRADENTES               SAO JOAO DE MERITI                                RJ                    25525283                                                                                                                                                                                                                                                          OM0000000000000000PX AO BAR DO EPITACIO TEL 78282511                                                                                                                                                                                                                                                                                                                                                                                                                                                                                                                                                                           
01                              23875     176 199 9050328                                                                                   41613019917062013                                                              00011210110717NATASHA BEU BORJA DA CUNHA                                                                          TEODORO SALES 1 104 FUNDOS                                                                          CACUIA                        RIO DE JANEIRO                                    RJ                    21930600                                                                                                                                                                                                                                                          OM0000002175030040COLONIA Z 10 PROX AO BAR DO CAMARAO TEL  (21)75030040                                                                                                                                                                                                                                                                                                                                                                                                                                                                                                                                                        
01                              22162     173 199 9066557                                                                                   41612719917062013                                                              00023784121420LISETE BATISTA DE SOUSA                                                                             CATALPA 236 11 BECO S BENTO                                                                         JARDIM CARIOCA                RIO DE JANEIRO                                    RJ                    21921470                                                                                                                                                                                                                                                          OM0000000000000000PROX AO BAR DA DENISE SUBIR A ESCADA CHAMAR LISETE  (21)33860583 - (21)72965242                                                                                                                                                                                                                                                                                                                                                                                                                                                                                                                              
01                              37387     242 199 9039554                                                                                   41583619917062013                                                              00015447869722MONIQUE VITORIA DA SILVA SOUZA                                                                      RUA MANOEL VELOSO 109 A LT 94                                                                       EDEN                          SAO JOAO DE MERITI                                RJ                    25530000                                                                                                                                                                                                                                                          OM0000000000000000PRX AO CIEP JOAO BOSCO APOS APRACA                                                                                                                                                                                                                                                                                                                                                                                                                                                                                                                                                                           
01                              33465     197 199 9028389                                                                                   41508519917062013                                                              00007866144710CRISTINA GARCIA BRAGA                                                                               AUTOMOVEL CLUBE 524 03                                                                              VILAR DOS TELES               SAO JOAO DE MERITI                                RJ                    25515126                                                                                                                                                                                                                                                          OM0000000000000000PROC RAIANE OU RODRIGO TEL 2753 8806 PROX AO BATALHAO DA PM                                                                                                                                                                                                                                                                                                                                                                                                                                                                                                                                                  
01                              22223     173 199 9062450                                                                                   41612519917062013                                                              00011971899712PATRICIA ROBERTA DE FREITAS                                                                         LUISA REGADAS 292 CS 01 ILHA DO GOVERNADOR                                                          BANCARIOS                     RIO DE JANEIRO                                    RJ                    21910460                                                                                                                                                                                                                                                          OM0000000000000000PROX A ESCOLA AMADEL ROCHA TEL (21)33667379 - (21)97973704 NO PORTAO AZUL                                                                                                                                                                                                                                                                                                                                                                                                                                                                                                                                    
01                              36572     212 199 9034037                                                                                   41583819917062013                                                              00035694521749CLAUDIO ELIAS DA SILVA                                                                              SENADOR ALBERTO PASQUALINI 19 CASA FRENTE                                                           COELHO DA ROCHA               SAO JOAO DE MERITI                                RJ                    25550680                                                                                                                                                                                                                                                          OM0000002126991583REF PROX AO CLUBE APOLO PROC  DONA VERA TEL 9696/8083  2699/1583  ENTREGAR  TERCA QUINTA OU SABADO                                                                                                                                                                                                                                                                                                                                                                                                                                                                                                           
01                              20509     175 199 9124858                                                                                   41612619917062013                                                              00010745846785ANGELICA MACIEL MENDES                                                                              MONSENHOR MAGALDI 86 202 FUNDOS                                                                     JARDIM GUANABARA              RIO DE JANEIRO                                    RJ                    21940400                                                                                                                                                                                                                                                          OM0000000000000000DEPOIS DO IATE CLUBE E DO RESTAURANTE CHUA PRIMEIRA ESQUERDA                                                                                                                                                                                                                                                                                                                                                                                                                                                                                                                                                 
01                              37411     242 199 9039554                                                                                   41505819917062013                                                              00002912480710DURVAL SANTOS SILVA                                                                                 FEIRA DE SANTANA 0 L18 Q17                                                                          PARQUE NOVO RIO               SAO JOAO DE MERITI                                RJ                    25585100                                                                                                                                                                                                                                                          OM0000000000000000PRX A OFICINA DO SR HENRIQUE PRX A FAB DOVE                                                                                                                                                                                                                                                                                                                                                                                                                                                                                                                                                                  
01                              22198     173 199 9047063                                                                                   41612419917062013                                                              00044088540778ISABEL CRISTINA MELO DIAS RUSSO                                                                     PARANAPUA 851 302                                                                                   BANCARIOS                     RIO DE JANEIRO                                    RJ                    21910173                                                                                                                                                                                                                                                          OM0000000000000000PROX A PADARIA OCEANO EM CIMA DA LOJA DE INSUFILME 33637695 - 87700355                                                                                                                                                                                                                                                                                                                                                                                                                                                                                                                                       
01                              46019     195 199 9064538                                                                                   41505519917062013                                                              00001323872710SANDRA FERREIRA DA SILVA                                                                            CARACAS 240 240                                                                                     VILAR DOS TELES               SAO JOAO DE MERITI                                RJ                    25560380                                                                                                                                                                                                                                                          OM0000000000000000PROX A PADARIA RIO DE JANANEIRO PROX AO POSTO DE SAUDE MORRO DAS PEDRAS 26990181                                                                                                                                                                                                                                                                                                                                                                                                                                                                                                                             
01                              27867     198 199 9062832                                                                                   41505619917062013                                                              00007586247781RAQUEL FERREIRA M FREITAS                                                                           FRANCISCA PEIXOTO 111                                                                               SAO MATEUS                    SAO JOAO DE MERITI                                RJ                    25520450                                                                                                                                                                                                                                                          OM0000000000000000APOS A DELEGACIA 64 PERTO DA PRACA DE SAO MATEUS .                                                                                                                                                                                                                                                                                                                                                                                                                                                                                                                                                           
01                              22204     173 199 9066557                                                                                   41612219917062013                                                              00008353664720ELENITA DE SOUZA ARAUJO RIOS                                                                        CINQUENTA 89                                                                                        GALEAO                        RIO DE JANEIRO                                    RJ                    21941430                                                                                                                                                                                                                                                          OM0000002133537934FICA POR TRAZ DO HOSPITAL DO LORETO CHAMAR DANIELA OU BIA  21)33537934 - (21)95662041                                                                                                                                                                                                                                                                                                                                                                                                                                                                                                                        
01                              22244     173 199 9062450                                                                                   41611919917062013                                                              00035082216791EDMILSON XAVIER LUCENA GOMES                                                                        DOUTOR ANTONIO DE MEDEIROS 215 ILHA DO GOVERNADOR                                                   BANCARIOS                     RIO DE JANEIRO                                    RJ                    21910120                                                                                                                                                                                                                                                          OM0000000000000000PROX DA CRECHE DO JORGE PEREIRA PROCURAR DONA HELENA NO BARZINHO TEL (21)79368711                                                                                                                                                                                                                                                                                                                                                                                                                                                                                                                            
01                              53513     203 199 9041796                                                                                   41336719915062013                                                              00010534710760CARLA FORTUNATA CUNHA PEREIRA                                                                       AMARO RANGEL 0 BECO DOS CABOCLO 31                                                                  JACARE                        RIO DE JANEIRO                                    RJ                    20970006                                                                                                                                                                                                                                                          OM0000000000000000FINAL DA RUA AMARO RANGEL NO BECO DOS CABOBLOS DO LADO DO BAR ALTO ASTRAL PROC SRA CARLA                                                                                                                                                                                                                                                                                                                                                                                                                                                                                                                     
01                              27860     198 199 9050026                                                                                   41506219917062013                                                              00001115434799CARLA OLIVEIRA DA SILVA                                                                             MAJOR AUGUSTO CESAR 160                                                                             ENGENHEIRO BELFORD            SAO JOAO DE MERITI                                RJ                    25520231                                                                                                                                                                                                                                                          OM0000000000000000EM FRENTE A CICLOVIA PRC SR SEBASTIAO DEP 103 PCS                                                                                                                                                                                                                                                                                                                                                                                                                                                                                                                                                            
