00                       20130603093431PREVIMONT                     RICARDO ELETRO                                                                                      64282601004457     100571    CARLOS - 08                                                                                                                                                                                                                                                                                                                                                                                                                                                                                                                                                                                                                                                                                                                                                                                                                                                                                                                                                                                                                                                                                                                                                                                                                                       
01                              44988     238 199 9045139                                                                                   39969319901062013                                                              00001451633777JOSE ALVES DOS SANTOS NETO                                                                          SOLDADO JOAQUIM LOBO 0 02 CAS 01 BAIRRO BOA ESPQRANCA                                               CAMPO GRANDE                  RIO DE JANEIRO                                    RJ                    23042410                                                                                                                                                                                                                                                          OM0000002124544690TROCA COM RECOLHIMENTO PERTO DO SUPREMRCADO SUPER REDE OU IMPATACO BAIRRO BOA ESPERANCA PROC JOSE ALVES OU MARIA LUIZA                                                                                                                                                                                                                                                                                                                                                                                                                                                                                       
01                              38451     281 199 9055504                                                                                   39933919901062013                                                              00007464197755MOISES DOS SANTOS                                                                                   DO CORTUME 0 RUA SAFIRA N11                                                                         SANTA CRUZ                    RIO DE JANEIRO                                    RJ                    23560130                                                                                                                                                                                                                                                          OM0000000000000000RUA SAFIRA N 11 JESUITAS ENTRAR NA RUA DAS FLORES (21)72381494                                                                                                                                                                                                                                                                                                                                                                                                                                                                                                                                               
01                              36258     279 199 9068623                                                                                   39934019901062013                                                              00094632642720MARCIA THEODORO DE OLIVEIRA                                                                         DOS PALMARES 3635 17 AP 103                                                                         SANTA CRUZ                    RIO DE JANEIRO                                    RJ                    23575275                                                                                                                                                                                                                                                          OM0000000000000000ENTRAR RUA DO SUP EXTRA ULTIMO COND ULTIMO BLOCO PROC A PROPRIA TEL 73714558                                                                                                                                                                                                                                                                                                                                                                                                                                                                                                                                 
01                              36286     279 199 9068623                                                                                   39934219901062013                                                              00018181511468ANTONIO PEREIRA DOS SANTOS                                                                          JORGE CLAUDIO FRANCO 11                                                                             SANTA CRUZ                    RIO DE JANEIRO                                    RJ                    23565055                                                                                                                                                                                                                                                          OM0000002133657866UMA RUA ANTES DO MERCADO DO SR SENA NA RUA DAS PODEROSAS  (21)33657866 - (21)97454464                                                                                                                                                                                                                                                                                                                                                                                                                                                                                                                        
01                              44766     238 199 9033539                                                                                   39934419901062013                                                              00067086675768NEUSA DO NASCIMENTO                                                                                 ITATINGA 3 PRX ARTHU TIRE                                                                           SANTA CRUZ                    RIO DE JANEIRO                                    RJ                    23520521                                                                                                                                                                                                                                                          OM0000000000000000FAVOR LIGAR ANTES 8516 0070 8788 4771                                                                                                                                                                                                                                                                                                                                                                                                                                                                                                                                                                        
01                              36361     279 199 9062454                                                                                   39934519901062013                                                              00014880094730MIKE DOUGLAS FONSECA DE ARAUJO                                                                      SANTO EGIDIO DE LORENZANA 26                                                                        SANTA CRUZ                    RIO DE JANEIRO                                    RJ                    23510210                                                                                                                                                                                                                                                          OM0000000000000000                                                                                                                                                                                                                                                                                                                                                                                                                                                                                                                                                                                                             
01                              24649     217 199 9069308                                                                                   39966019901062013                                                              00005653483702LUIZ CARLOS DA CONCEICAO FERREIRA                                                                   ALMIR PAULO DE LIMA 5 TINGUI                                                                        CAMPO GRANDE                  RIO DE JANEIRO                                    RJ                    23075570                                                                                                                                                                                                                                                          OM0000000000000000ESTR DO TINGUI NA R DA LJ DE MAT DE CONST CAMPEAO FAVOR LIGAR ANTES21)86570839                                                                                                                                                                                                                                                                                                                                                                                                                                                                                                                               
01                              36331     279 199 9055592                                                                                   39925419931052013                                                              00012179266740ALESSANDRA ROCHA                                                                                    B 1 LADO ESQUERDO                                                                                   SEPETIBA                      RIO DE JANEIRO                                    RJ                    23545003                                                                                                                                                                                                                                                          OM0000000000000000NA ESQUINA DA AMENDOEIRA VILA FERNANDA PROX A CASA DA BORRACHA CEL 76333513 34279876 JANETE MAE                                                                                                                                                                                                                                                                                                                                                                                                                                                                                                              
01                              54445     230 199 9031694                                                                                   39932119901062013                                                              00008957713735MAURICIO DA SILVA BELMONT CARDOSO                                                                   LOUZAL TELLES DE MENEZES 0 01 LT 20                                                                 COSMOS                        RIO DE JANEIRO                                    RJ                    23066530                                                                                                                                                                                                                                                          OM0000002124097475TROCA COM RECOLHIMENTO ESTR DO CAMPINHO RETORNO NO BRIZILAO DO CONJ CAMPINHO PX AO COND CAIXA                                                                                                                                                                                                                                                                                                                                                                                                                                                                                                                
01                              36354     279 199 9068623                                                                                   39924819931052013                                                              00059040505772IVANETE GONCALVES                                                                                   DA FLORESTA 750 03                                                                                  SEPETIBA                      RIO DE JANEIRO                                    RJ                    23545412                                                                                                                                                                                                                                                          OM0000000000000000ENTRAR PELA PRAIA ENTRAR RUA DO VALAO DEPOIS PRIMEIRA A DIREITA PROX A LANCHONETE DOCA TEL 33051198                                                                                                                                                                                                                                                                                                                                                                                                                                                                                                          
01                              45513     171 199 9069499                                                                                   39924719931052013                                                              00060516399772HILDA SOARES DE SOUZA                                                                               LAJINHA 0 43 QDA 15                                                                                 GUARATIBA                     RIO DE JANEIRO                                    RJ                    23033090                                                                                                                                                                                                                                                          OM0000002133947574NA AV PILAR DO SUL PROXIMO AO MERCADO MAIA TEL 75921691 33947574                                                                                                                                                                                                                                                                                                                                                                                                                                                                                                                                             
01                              36319     279 199 9068500                                                                                   39924919931052013                                                              00012364820774EVERTON DOS SANTOS NICACIO                                                                          RENATO VASCONCELOS 3 LT 03 QD 10                                                                    SEPITIBA                      RIO DE JANEIRO                                    RJ                    23545003                                                                                                                                                                                                                                                          OM0000000000000000PROX AO CEPOL MADREIRAS ENTR PELA RUA VITORIA REGIA LIG ANT 77027733                                                                                                                                                                                                                                                                                                                                                                                                                                                                                                                                         
01                              36360     279 199 9062138                                                                                   39932419901062013                                                              00070907552749PEDRO DA SILVA M FILHO                                                                              SAPUCAI 703 CA 2                                                                                    SANTA CRUZ                    RIO DE JANEIRO                                    RJ                    23550364                                                                                                                                                                                                                                                          OM0000000000000000AV ISABEL ENTRA NA RUA VISCONDE ARAGUAIA NA TRAVESSA SAPUCAI ANTIGO BECO DO SAPO PROX AIGREJA PROC FRANCIELE 74365801                                                                                                                                                                                                                                                                                                                                                                                                                                                                                        
01                              55049     230 199 9032663                                                                                   39966619901062013                                                              00059292490753SILVANA MARTINS                                                                                     SAO ROMAO 35                                                                                        CAMPO GRANDE                  RIO DE JANEIRO                                    RJ                    23080680                                                                                                                                                                                                                                                          OM0000000000000000RUA ARICURI BAIRRO IPIRANGA EM FRENTE IGREJA BATISTA OU EM FRENTE AO LUSO BRASILEIRO PROC SRA SILVANA 97599399                                                                                                                                                                                                                                                                                                                                                                                                                                                                                               
01                              36425     279 199 9068623                                                                                   39924619931052013                                                              00012650784750RAQUEL DA CUNHA FURTADO                                                                             DIAMANTE 56                                                                                         SEPETIBA                      RIO DE JANEIRO                                    RJ                    23530800                                                                                                                                                                                                                                                          OM0000000000000000EST DE SEPETIBA ENTRAR RUA DA PRATA DEPOIS SEGUNDA A DIREITA 21)31572724 - (21)77922357                                                                                                                                                                                                                                                                                                                                                                                                                                                                                                                      
01                              54912     230 199 9032663                                                                                   39924519931052013                                                              00033263388720MARIA DE FATIMA GOMES DE SOUZA E MELO                                                               VILA GLORIA 0 39   QDA  102                                                                         GUARATIBA                     RIO DE JANEIRO                                    RJ                    23031192                                                                                                                                                                                                                                                          OM0000000000000000EST DO MAGARCA JARDIM MARAVILHA PEGAR PILAR DO SUL RUA LETICIA RUA CAMPOS MOURAO AO LADO OFICINA DO MAIA SRA  FATIMA                                                                                                                                                                                                                                                                                                                                                                                                                                                                                         
01                              36364     279 199 9068327                                                                                   39932819901062013                                                              00080277799520SHEILA TORRES DE SANTANA                                                                            PRADO JUNIOR 720 BLOCO 19 AP104                                                                     SANTA CRUZ                    RIO DE JANEIRO                                    RJ                    23555212                                                                                                                                                                                                                                                          OM0000000000000000                                                                                                                                                                                                                                                                                                                                                                                                                                                                                                                                                                                                             
01                              36366     279 199 9062454                                                                                   39873519931052013                                                              00060296313734JANUARIO SOUZA LEITE                                                                                PRIMEIRO DE JUNHO 99                                                                                SEPETIBA                      RIO DE JANEIRO                                    RJ                    23540160                                                                                                                                                                                                                                                          OM0000002126508507                                                                                                                                                                                                                                                                                                                                                                                                                                                                                                                                                                                                             
01                              27057     211 199 9064770                                                                                   39873619931052013                                                              00013577703750EDUARDO DE SOUZA DA SILVA                                                                           QUARENTA 40                                                                                         BRISAMAR                      ITAGUAI                                           RJ                    23830000                                                                                                                                                                                                                                                          OM0000000000000000NA RUA DA ADEGA FINAL DA RUA PROC PRISCILA 74681824 TROCA JURIDICA SISJUR 377389                                                                                                                                                                                                                                                                                                                                                                                                                                                                                                                             
01                              35981     279 199 9068623                                                                                   39926619931052013                                                              00006954320790VANIA CARLA DE FATIMA CERQUEIRA DE FIGUEREDO                                                        ALICE 40 ESTRADA SAO TACISIO                                                                        SEPETIBA                      RIO DE JANEIRO                                    RJ                    23530310                                                                                                                                                                                                                                                          OM0000000000000000EM FRENTE A AUTO PECAS GELSON TEL 34015833 OU 93886082                                                                                                                                                                                                                                                                                                                                                                                                                                                                                                                                                       
01                              24012     217 199 9069387                                                                                   40032119901062013                                                              00035017104704AURORA LOPES DA COSTA                                                                               CINQUENTA E OITO 208 01                                                                             CESARAO- STA CRUZ             RIO DE JANEIRO                                    RJ                    23595040                                                                                                                                                                                                                                                          OM0000002131570642TROCA COM RECOLHIMENTO AV CESARIO DE MELO ENTR DPO DO CESARAO NA R POSTO DE SAUDE TEL (21)31570642 - (21)85623696                                                                                                                                                                                                                                                                                                                                                                                                                                                                                            
01                              36387     279 199 9068623                                                                                   39926319931052013                                                              00006162694470MARINETE DO NASCIMENTO SILVA                                                                        GENTIL BRAGA 150 PEDRA DE GUARATIBA                                                                 GUARATIBA                     RIO DE JANEIRO                                    RJ                    23032320                                                                                                                                                                                                                                                          OM0000000000000000INDO PELO PINGO DAGUA PROX A PADARIA DEUS E FIEL PROC MARIANO CEL 80401242                                                                                                                                                                                                                                                                                                                                                                                                                                                                                                                                   
01                              44352     238 199 9033539                                                                                   39926719931052013                                                              00007167315680ARIANA TEIXEIRA PENA                                                                                CABUCU DEBAIXO 900 6 CASA9 PRX POSTO ESSO                                                           GUARATIBA                     RIO DE JANEIRO                                    RJ                    23036150                                                                                                                                                                                                                                                          OM0000000000000000PRX POSTO ESSO CONDOMINIO VIDA BOA2 TEL 7877 2023                                                                                                                                                                                                                                                                                                                                                                                                                                                                                                                                                            
01                              48592     243 199 9045278                                                                                   39967619901062013                                                              00003591942731LUCIANA MELO DE MORAES                                                                              BENIAMINO GIGLI 9                                                                                   CAMPO GRANDE                  RIO DE JANEIRO                                    RJ                    23082180                                                                                                                                                                                                                                                          OM0000002186551784PROX AO RADAR DA RIO SAO PAULO PROX AO COLEGIO JAIR TAVARES PROC ALEXANDRE                                                                                                                                                                                                                                                                                                                                                                                                                                                                                                                                   
01                              44850     238 199 9058702                                                                                   39967919901062013                                                              00012248670761LUCIANA DE JESUS CARREIRO                                                                           MORICABA 46                                                                                         SENADOR VASCONCELOS           RIO DE JANEIRO                                    RJ                    23012006                                                                                                                                                                                                                                                          OM0000000000000000PERTO DO HOSPITEAL IASERJ PROXIMNO A PRACA MORICABA PROC LUCIANA OU ROBERTO 88959870 86173034                                                                                                                                                                                                                                                                                                                                                                                                                                                                                                                
01                              45537     171 199 9032680                                                                                   39967819901062013                                                              00009909636751ANA LUCIA MARINHO RAIBOLT                                                                           SANTA CRUZ 11806 CASA 58                                                                            SENADOR AUGUSTO VASCONCELOS   RIO DE JANEIRO                                    RJ                    23010002                                                                                                                                                                                                                                                          OM0000002133463695PROXIMO A ANTIGA CASA DE SHOOW BIG FILD CONDOMINIO COLINAS CASA MARGIRIDA 58                                                                                                                                                                                                                                                                                                                                                                                                                                                                                                                                 
01                              35860     279 199 9062454                                                                                   39925519931052013                                                              00004677105464LIDIANE SILVA                                                                                       FRANCISCO NUNES 87                                                                                  SEPETIBA                      RIO DE JANEIRO                                    RJ                    23530801                                                                                                                                                                                                                                                          OM0000000000000000ENTRAR NA RUA DA PRATA SUBIR A RUA DO CRISTAL TEL  (21)32098607 OU 93248840                                                                                                                                                                                                                                                                                                                                                                                                                                                                                                                                  
01                              36320     279 199 9068500                                                                                   39968019901062013                                                              00076716120734MARILISA G GOMES                                                                                    AVENIDA BRASIL 50751 COND MONTE BLACK BL 13 AP 306                                                  CAMPO GRANDE                  RIO DE JANEIRO                                    RJ                    21000000                                                                                                                                                                                                                                                          OM0000000000000000PROX A FRABRICA DA LILI NA AV BRASIL LIG ANTES 86673031                                                                                                                                                                                                                                                                                                                                                                                                                                                                                                                                                      
01                              24664     217 199 9066930                                                                                   39968519901062013                                                              00002364538742VANIA TARANTO DE SOUZA                                                                              LUZIANIA 13                                                                                         CAMPO GRANDE                  RIO DE JANEIRO                                    RJ                    23087300                                                                                                                                                                                                                                                          OM0000000000000000ATRS DA CASA DE MAT DE CONST CEPA PROC SRA VANIA OU SR CLAUDIO TEL 79256841                                                                                                                                                                                                                                                                                                                                                                                                                                                                                                                                  
01                              44811     238 199 9033539                                                                                   39926019931052013                                                              00044812744334VALDELITA PEREIRA BARROSO                                                                           SILVA PINTO 40 ESTRADA DO MARGACA                                                                   GUARATIBA                     RIO DE JANEIRO                                    RJ                    23035440                                                                                                                                                                                                                                                          OM0000000000000000TEL 31082550                                                                                                                                                                                                                                                                                                                                                                                                                                                                                                                                                                                                 
01                              45499     171 199 9032680                                                                                   39970619901062013                                                              00073949680730ZULMIRA LEAO BARBOSA DA MOTTA                                                                       GAVIAO 11                                                                                           SENADOR VASCONCELOS           RIO DE JANEIRO                                    RJ                    23098450                                                                                                                                                                                                                                                          OM0000002134698172PROXIMO AO CAMPO DO TORRE BAIRRO JARDIM LARANGEIRAS TEL 97663967                                                                                                                                                                                                                                                                                                                                                                                                                                                                                                                                             
01                              44816     238 199 9058702                                                                                   39970319901062013                                                              00009536107724MARIA DE FATIMA ANDREZA DE SENA                                                                     JANIO QUADROS 45                                                                                    CAMPO GRANDE                  RIO DE JANEIRO                                    RJ                    23016330                                                                                                                                                                                                                                                          OM0000002175909588PERTO DA CRECHE DO MONTE SANTO ARNALDO EUGENIO PROC FATIMA 75909588                                                                                                                                                                                                                                                                                                                                                                                                                                                                                                                                          
01                              44673     238 199 9033539                                                                                   39970719901062013                                                              00000879483709RITA DE CASSIA DOS S COSTA CEZARIO                                                                  GENERAL UCHOA CAVALCANTI 256                                                                        SENADOR VASCONCELOS           RIO DE JANEIRO                                    RJ                    23085260                                                                                                                                                                                                                                                          OM0000002131556740REF SENTIDO VASCONCELOS DEPOIS VIADUTO NOVO TERCEIRA RUA ESQUERDA TEL 3155 6740                                                                                                                                                                                                                                                                                                                                                                                                                                                                                                                              
01                              44730     238 199 9058702                                                                                   39970819901062013                                                              00003529306754ANA CRISTINA LICIO                                                                                  PROJETADA G 8                                                                                       CAMPO GRANDE                  RIO DE JANEIRO                                    RJ                    23016310                                                                                                                                                                                                                                                          OM0000002187562085TRAVESA ARUA SANANDUVA ATRAZ DA CRECHE MONTE SANTO PROC BRUNA 88215897 87562085                                                                                                                                                                                                                                                                                                                                                                                                                                                                                                                              
01                              25755     211 199 9065563                                                                                   39336519927052013                                                              00016079215705CAMILA CRISTIANO BARROS                                                                             PEDRO SERVULO DE ARAUJO 56 B                                                                        JARDIM DAS ACASSIAS           SEROPEDICA                                        RJ                    23845000                                                                                                                                                                                                                                                          OM0000000000000000                                                                                                                                                                                                                                                                                                                                                                                                                                                                                                                                                                                                             
01                              54850     230 199 9033795                                                                                   39969919901062013                                                              00044053460700SONIA MARIA DE BRITO                                                                                BELISARIO DOS SANTOS 66 PARQUE ESPERANCA                                                            CAMPO GRANDE                  RIO DE JANEIRO                                    RJ                    23055250                                                                                                                                                                                                                                                          OM0000000000000000SEGUIR AV CESARIO DE MELO EM FRENTE AO COLEGIO ALMIRANTE SALDANHA PROX AO BAR DO TIAO TEL 74023141                                                                                                                                                                                                                                                                                                                                                                                                                                                                                                           
02                                         742851                        44988     152438    ARM.LUCIANE ANGRA 3P VD BX BR                                                                       1                      06062013                                                                                                                                                                                                                                                          000000000000000000000000000000000000000100                                                                                                                                                                                                                                                                                                                                                                                                                                                                                                                                                                                                                                                                                                                                                                                                                                                                                                                    
02                                         742851                        44988     152440    ARM.LUCIANE ANGRA BASC PTO/TRAM                                                                     1                      06062013                                                                                                                                                                                                                                                          000000000000000000000000000000000000000200                                                                                                                                                                                                                                                                                                                                                                                                                                                                                                                                                                                                                                                                                                                                                                                                                                                                                                                    
02                                         742852                        38451     152556    KIT COZ.IRMOL ACUCENA BR/PTO                                                                        1                      06062013                                                                                                                                                                                                                                                          000000000000000000000000000000000000000100                                                                                                                                                                                                                                                                                                                                                                                                                                                                                                                                                                                                                                                                                                                                                                                                                                                                                                                    
02                                         742853                        36258     185263    G.ROUPA ARAMOVEIS 6P2G BRASIL CZ/PTO                                                                1                      06062013                                                                                                                                                                                                                                                          000000000000000000000000000000000000000100                                                                                                                                                                                                                                                                                                                                                                                                                                                                                                                                                                                                                                                                                                                                                                                                                                                                                                                    
02                                         742854                        36286     154743    G.ROUPA EURO 3P RUBI CAST/PTO/CAST                                                                  1                      06062013                                                                                                                                                                                                                                                          000000000000000000000000000000000000000100                                                                                                                                                                                                                                                                                                                                                                                                                                                                                                                                                                                                                                                                                                                                                                                                                                                                                                                    
02                                         742855                        44766     185264    G.ROUPA ARAMOVEIS 6P2G BRASIL BR/FE                                                                 1                      06062013                                                                                                                                                                                                                                                          000000000000000000000000000000000000000100                                                                                                                                                                                                                                                                                                                                                                                                                                                                                                                                                                                                                                                                                                                                                                                                                                                                                                                    
02                                         742856                        36361     154794    CAMA CS EURO MONALISA BR/PTO/BR                                                                     1                      06062013                                                                                                                                                                                                                                                          000000000000000000000000000000000000000100                                                                                                                                                                                                                                                                                                                                                                                                                                                                                                                                                                                                                                                                                                                                                                                                                                                                                                                    
02                                         742857                        24649     185263    G.ROUPA ARAMOVEIS 6P2G BRASIL CZ/PTO                                                                1                      06062013                                                                                                                                                                                                                                                          000000000000000000000000000000000000000300                                                                                                                                                                                                                                                                                                                                                                                                                                                                                                                                                                                                                                                                                                                                                                                                                                                                                                                    
02                                         742858                        36331     185263    G.ROUPA ARAMOVEIS 6P2G BRASIL CZ/PTO                                                                1                      06062013                                                                                                                                                                                                                                                          000000000000000000000000000000000000000100                                                                                                                                                                                                                                                                                                                                                                                                                                                                                                                                                                                                                                                                                                                                                                                                                                                                                                                    
02                                         742859                        54445     183234    G.ROUPA ARAMOVEIS 6P MADRI BR/GR                                                                    1                      06062013                                                                                                                                                                                                                                                          000000000000000000000000000000000000000100                                                                                                                                                                                                                                                                                                                                                                                                                                                                                                                                                                                                                                                                                                                                                                                                                                                                                                                    
02                                         742860                        36354     182316    BALCAO INDEKES BIA BR/GRAF                                                                          1                      06062013                                                                                                                                                                                                                                                          000000000000000000000000000000000000000100                                                                                                                                                                                                                                                                                                                                                                                                                                                                                                                                                                                                                                                                                                                                                                                                                                                                                                                    
02                                         742861                        45513     156271    CAB BOX GELIUS MELISSA 1,40 AMEN/PTO                                                                1                      06062013                                                                                                                                                                                                                                                          000000000000000000000000000000000000000100                                                                                                                                                                                                                                                                                                                                                                                                                                                                                                                                                                                                                                                                                                                                                                                                                                                                                                                    
02                                         742862                        36319     185264    G.ROUPA ARAMOVEIS 6P2G BRASIL BR/FE                                                                 1                      06062013                                                                                                                                                                                                                                                          000000000000000000000000000000000000000100                                                                                                                                                                                                                                                                                                                                                                                                                                                                                                                                                                                                                                                                                                                                                                                                                                                                                                                    
02                                         742863                        36360     185264    G.ROUPA ARAMOVEIS 6P2G BRASIL BR/FE                                                                 1                      06062013                                                                                                                                                                                                                                                          000000000000000000000000000000000000000100                                                                                                                                                                                                                                                                                                                                                                                                                                                                                                                                                                                                                                                                                                                                                                                                                                                                                                                    
02                                         742864                        55049     139759    ARM.COLOR.CLASS SL PAN 4P BR                                                                        1                      06062013                                                                                                                                                                                                                                                          000000000000000000000000000000000000000100                                                                                                                                                                                                                                                                                                                                                                                                                                                                                                                                                                                                                                                                                                                                                                                                                                                                                                                    
02                                         742864                        55049     139759    ARM.COLOR.CLASS SL PAN 4P BR                                                                        1                      06062013                                                                                                                                                                                                                                                          000000000000000000000000000000000000000200                                                                                                                                                                                                                                                                                                                                                                                                                                                                                                                                                                                                                                                                                                                                                                                                                                                                                                                    
02                                         742865                        36425     183254    COZ ARAMOVEIS CRIS BR/PTO                                                                           1                      06062013                                                                                                                                                                                                                                                          000000000000000000000000000000000000000100                                                                                                                                                                                                                                                                                                                                                                                                                                                                                                                                                                                                                                                                                                                                                                                                                                                                                                                    
02                                         742866                        54912     185263    G.ROUPA ARAMOVEIS 6P2G BRASIL CZ/PTO                                                                1                      06062013                                                                                                                                                                                                                                                          000000000000000000000000000000000000000100                                                                                                                                                                                                                                                                                                                                                                                                                                                                                                                                                                                                                                                                                                                                                                                                                                                                                                                    
02                                         742867                        36364     182316    BALCAO INDEKES BIA BR/GRAF                                                                          1                      06062013                                                                                                                                                                                                                                                          000000000000000000000000000000000000000300                                                                                                                                                                                                                                                                                                                                                                                                                                                                                                                                                                                                                                                                                                                                                                                                                                                                                                                    
02                                         742868                        36366     140347    MESA FRITZ 4C MEGA AMEN/PTO                                                                         1                      06062013                                                                                                                                                                                                                                                          000000000000000000000000000000000000000100                                                                                                                                                                                                                                                                                                                                                                                                                                                                                                                                                                                                                                                                                                                                                                                                                                                                                                                    
02                                         742869                        27057     185794    GR ARAPLAC 10PC/P VIENA PLUS TB/BR                                                                  1                      06062013                                                                                                                                                                                                                                                          000000000000000000000000000000000000000100                                                                                                                                                                                                                                                                                                                                                                                                                                                                                                                                                                                                                                                                                                                                                                                                                                                                                                                    
02                                         742870                        35981     185262    G.ROUPA ARAMOVEIS 6P2G BRASIL BR/PTO                                                                1                      06062013                                                                                                                                                                                                                                                          000000000000000000000000000000000000000100                                                                                                                                                                                                                                                                                                                                                                                                                                                                                                                                                                                                                                                                                                                                                                                                                                                                                                                    
02                                         742871                        24012     155995    PAN INDEKES DUP VD JULIA BR/PTO/BR                                                                  1                      06062013                                                                                                                                                                                                                                                          000000000000000000000000000000000000000100                                                                                                                                                                                                                                                                                                                                                                                                                                                                                                                                                                                                                                                                                                                                                                                                                                                                                                                    
02                                         742872                        36387     182574    COZINHA INDEKES BIA BR/ACA                                                                          1                      06062013                                                                                                                                                                                                                                                          000000000000000000000000000000000000000100                                                                                                                                                                                                                                                                                                                                                                                                                                                                                                                                                                                                                                                                                                                                                                                                                                                                                                                    
02                                         742873                        44352     185262    G.ROUPA ARAMOVEIS 6P2G BRASIL BR/PTO                                                                1                      06062013                                                                                                                                                                                                                                                          000000000000000000000000000000000000000100                                                                                                                                                                                                                                                                                                                                                                                                                                                                                                                                                                                                                                                                                                                                                                                                                                                                                                                    
02                                         742874                        48592     185263    G.ROUPA ARAMOVEIS 6P2G BRASIL CZ/PTO                                                                1                      06062013                                                                                                                                                                                                                                                          000000000000000000000000000000000000000100                                                                                                                                                                                                                                                                                                                                                                                                                                                                                                                                                                                                                                                                                                                                                                                                                                                                                                                    
02                                         742875                        44850     185260    G.ROUPA ARAMOVEIS  4P3G BRASIL BR/FE                                                                1                      06062013                                                                                                                                                                                                                                                          000000000000000000000000000000000000000100                                                                                                                                                                                                                                                                                                                                                                                                                                                                                                                                                                                                                                                                                                                                                                                                                                                                                                                    
02                                         742876                        45537     183254    COZ ARAMOVEIS CRIS BR/PTO                                                                           1                      06062013                                                                                                                                                                                                                                                          000000000000000000000000000000000000000100                                                                                                                                                                                                                                                                                                                                                                                                                                                                                                                                                                                                                                                                                                                                                                                                                                                                                                                    
02                                         742877                        35860     185263    G.ROUPA ARAMOVEIS 6P2G BRASIL CZ/PTO                                                                1                      06062013                                                                                                                                                                                                                                                          000000000000000000000000000000000000000100                                                                                                                                                                                                                                                                                                                                                                                                                                                                                                                                                                                                                                                                                                                                                                                                                                                                                                                    
02                                         742878                        36320     185263    G.ROUPA ARAMOVEIS 6P2G BRASIL CZ/PTO                                                                1                      06062013                                                                                                                                                                                                                                                          000000000000000000000000000000000000000100                                                                                                                                                                                                                                                                                                                                                                                                                                                                                                                                                                                                                                                                                                                                                                                                                                                                                                                    
02                                         742879                        24664     185263    G.ROUPA ARAMOVEIS 6P2G BRASIL CZ/PTO                                                                1                      06062013                                                                                                                                                                                                                                                          000000000000000000000000000000000000000100                                                                                                                                                                                                                                                                                                                                                                                                                                                                                                                                                                                                                                                                                                                                                                                                                                                                                                                    
02                                         742880                        44811     185260    G.ROUPA ARAMOVEIS  4P3G BRASIL BR/FE                                                                1                      06062013                                                                                                                                                                                                                                                          000000000000000000000000000000000000000100                                                                                                                                                                                                                                                                                                                                                                                                                                                                                                                                                                                                                                                                                                                                                                                                                                                                                                                    
02                                         742881                        45499     185264    G.ROUPA ARAMOVEIS 6P2G BRASIL BR/FE                                                                 1                      06062013                                                                                                                                                                                                                                                          000000000000000000000000000000000000000100                                                                                                                                                                                                                                                                                                                                                                                                                                                                                                                                                                                                                                                                                                                                                                                                                                                                                                                    
02                                         742882                        44816     183255    COZ ARAMOVEIS CRIS BR/CZ                                                                            1                      06062013                                                                                                                                                                                                                                                          000000000000000000000000000000000000000100                                                                                                                                                                                                                                                                                                                                                                                                                                                                                                                                                                                                                                                                                                                                                                                                                                                                                                                    
