00                       20130603082227PREVIMONT                     RICARDO ELETRO                                                                                      64282601004457     100572    NANCE - 09                                                                                                                                                                                                                                                                                                                                                                                                                                                                                                                                                                                                                                                                                                                                                                                                                                                                                                                                                                                                                                                                                                                                                                                                                                        
01                              45131     171 199 9032662                                                                                   39596419929052013                                                              00061165050749CRISPINIANA SILVA DE JESUS                                                                          SANTA CRUZ 7190 16 APT 201 7190 C                                                                   SENADOR CAMARA                RIO DE JANEIRO                                    RJ                    21830264                                                                                                                                                                                                                                                          OM0000000000000000AO LADO DO PREZUNIC 38396366 73656542                                                                                                                                                                                                                                                                                                                                                                                                                                                                                                                                                                        
01                              34129     245 199 9033142                                                                                   39927219931052013                                                              00002341114377IROMILDO DA SILVA SANTOS                                                                            ISABEL DOMINGUES 176 R VITORIA 08                                                                   GARDENIA AZUL                 RIO DE JANEIRO                                    RJ                    22763627                                                                                                                                                                                                                                                          OM0000002124278739COMUNIDADE DO MARCAO EM FTE VITORIA BAR ATT ENTREGAR SO NO SABADO 01 JUNHO TL 87163014                                                                                                                                                                                                                                                                                                                                                                                                                                                                                                                       
01                              45053     171 199 9032662                                                                                   39596719929052013                                                              00005338839709HERMES RODRIGUES                                                                                    FIGUEIREDO CAMARGO 1524 104                                                                         BANGU                         RIO DE JANEIRO                                    RJ                    21870210                                                                                                                                                                                                                                                          OM0000000000000000ENFRENTE A IGREJA MINISTERIO CREA PADARIA MOCIDADE 32471121 91243359                                                                                                                                                                                                                                                                                                                                                                                                                                                                                                                                         
01                              21102     227 199 9051167                                                                                   39596819929052013                                                              00064321894700MARIA DA PENHA BISPO DA SILVA                                                                       CAPITAO VERDIER 486                                                                                 BANGU                         RIO DE JANEIRO                                    RJ                    21862180                                                                                                                                                                                                                                                          OM0000000000000000                                                                                                                                                                                                                                                                                                                                                                                                                                                                                                                                                                                                             
01                              32210     282 199 9058201                                                                                   39595519929052013                                                              00002677753421CLEBSTON JOSE DOS SANTOS                                                                            PROJETADA B 27 PRACA CAMPO HONRA                                                                    SENADOR CAMARA                RIO DE JANEIRO                                    RJ                    21832147                                                                                                                                                                                                                                                          OM0000000000000000PONTO FINAL DO HONIBUS DA LINHA 705 PROCURAR NININHA  (21)32916561 - (21)94938307                                                                                                                                                                                                                                                                                                                                                                                                                                                                                                                            
01                              45253     171 199 9032662                                                                                   39595619929052013                                                              00000056555792MARIA INES RODRIGUES                                                                                MARAVILHA 721 1 QUADRA 4 RUA G                                                                      BANGU                         RIO DE JANEIRO                                    RJ                    21815205                                                                                                                                                                                                                                                          OM0000000000000000PROX A CAPELA SANTA TEREZINHA RUA G AO LADO MERCADINHO PAI E FILHO LIGAR ANTES DA ENTREGA 31691314 91485368                                                                                                                                                                                                                                                                                                                                                                                                                                                                                                  
01                              45230     171 199 9032662                                                                                   39595719929052013                                                              00002105465730ALESSANDRO CARLOS DA SILVA                                                                          ENGENHEIRA PAULA LOPES 1710 1                                                                       BANGU                         RIO DE JANEIRO                                    RJ                    21825320                                                                                                                                                                                                                                                          OM0000000000000000FINAL DA RUA TIBAGI PROX A VACARIA DONA REGINA JOEL 32916948 65002373                                                                                                                                                                                                                                                                                                                                                                                                                                                                                                                                        
01                              45201     171 199 9069499                                                                                   39595919929052013                                                              00009338979792CLAUDINEIA DIAS DOS SANTOS                                                                          MARINHO REGO 24 14 TRAVESSA 24                                                                      SENADOR CAMARA                RIO DE JANEIRO                                    RJ                    21833120                                                                                                                                                                                                                                                          OM0000002138392374NA AV SANTA CRUZ AO LADO DO PREZUNIC CONDOMINIO ESPERANZA BL 23 AP 403 TEL 91596659 93232857                                                                                                                                                                                                                                                                                                                                                                                                                                                                                                                 
01                              44540     238 199 9058702                                                                                   39594819929052013                                                              00096911387787IRIS LANE CARNEIRO DE CARVALHO                                                                      GENERAL DESCHAMPS CAVALCANTI 359                                                                    REALENGO                      RIO DE JANEIRO                                    RJ                    21755210                                                                                                                                                                                                                                                          OM0000000000000000NO FINAL DA RUA CAPITAO TEXEIRA TRAV COM ACARABE PROC IRIS 91482308 977738803                                                                                                                                                                                                                                                                                                                                                                                                                                                                                                                                
01                              45174     171 199 9069499                                                                                   39595019929052013                                                              00011449670741MICHELE ALVES DA SILVA                                                                              REGENCIA 65                                                                                         REALENGO                      RIO DE JANEIRO                                    RJ                    21760150                                                                                                                                                                                                                                                          OM0000000000000000PROXIMO AO PEIXE FRITO DA RUA PIRAQUARA RUA DO CAMPO DO SAO LUIZ TEL 68349795 34658282                                                                                                                                                                                                                                                                                                                                                                                                                                                                                                                       
01                              45131     171 199 9032662                                                                                   39595319929052013                                                              00061165050749CRISPINIANA SILVA DE JESUS                                                                          SANTA CRUZ 7190 16 APT 201 7190 C                                                                   SENADOR CAMARA                RIO DE JANEIRO                                    RJ                    21830264                                                                                                                                                                                                                                                          OM0000000000000000AO LADO DO PREZUNIC 38396366 73656542                                                                                                                                                                                                                                                                                                                                                                                                                                                                                                                                                                        
01                              44489     171 199 9032691                                                                                   39599319929052013                                                              00008134151795CRISTIANE BORRET FIRMINO                                                                            DO CORAL 71 302 BL 42                                                                               BANGU                         RIO DE JANEIRO                                    RJ                    21870260                                                                                                                                                                                                                                                          OM0000002135864971AO LADO DA ESCOLA CLEMENTINO FRAGA PX AO UPA PONTO CHIC TEL 35864971 87093398                                                                                                                                                                                                                                                                                                                                                                                                                                                                                                                                
01                              17332     248 199 9054557                                                                                   39656819929052013                                                              00003383582779CLAUDIA CARVALHO DAS NEVES                                                                          DO TIJOLO 152 08 AP 303                                                                             PIEDADE                       RIO DE JANEIRO                                    RJ                    20740570                                                                                                                                                                                                                                                          OM0000002124557788ACESSO PELA RUA TORRES DE OLIVEIRA PROXIMO AO VARZEA COUNTRY CLUB SENTIDO AO PRESIDIO ARY FRANCO                                                                                                                                                                                                                                                                                                                                                                                                                                                                                                             
01                              32235     282 199 9062286                                                                                   39755619930052013                                                              00074016962749JOAO CAMELO DE SOUSA                                                                                COMANDANTE JULIO DE MOURA 546 PORTARIO                                                              BARRA DA TIJUCA               RIO DE JANEIRO                                    RJ                    22621252                                                                                                                                                                                                                                                          OM0000002124948490PROX HOTEL BARRA BECH TEL 24948490 93073995 PROC JOAO CAMELO DE SOUSA                                                                                                                                                                                                                                                                                                                                                                                                                                                                                                                                        
01                              51290     203 199 9066931                                                                                   39657219929052013                                                              00007957594794CLAUDIO ROBERTO AREAS                                                                               QUARAIM 8 102                                                                                       PIEDADE                       RIO DE JANEIRO                                    RJ                    21381030                                                                                                                                                                                                                                                          OM0000002131298199PROX A RUA DO IPEM PROC SRA THIANA OU ISIS CEL 94865086                                                                                                                                                                                                                                                                                                                                                                                                                                                                                                                                                      
01                              37176     281 199 9055317                                                                                   39616419929052013                                                              00013209677794ANA CAROLINA PACHU LIRA                                                                             CAMPO DA AMENDOEIRA 30 3                                                                            BARRA DA TIJUCA               RIO DE JANEIRO                                    RJ                    22611200                                                                                                                                                                                                                                                          OM0000002179110103RUA DI CAMPO DE FUTEBOL TEL (21)79110103 - (21)79150785 3152 5188 FALAR COM CAROL OU JOEL                                                                                                                                                                                                                                                                                                                                                                                                                                                                                                                    
01                              30824     245 199 9063349                                                                                   39641719929052013                                                              00036841668553EDILENE MONTEIRO CASTRO                                                                             ANDRE ROCHA 4826 24A SOBRADO                                                                        CURICICA                      RIO DE JANEIRO                                    RJ                    22710561                                                                                                                                                                                                                                                          OM0000000000000000PROXIMO A ESCOLA MUNICIPAL SILVEIRA SAMPAIO TEL 46352715 EDILENE                                                                                                                                                                                                                                                                                                                                                                                                                                                                                                                                             
01                              51404     203 199 9031810                                                                                   39657419929052013                                                              00013832537732WENDEL MONTEIRO FABBIS ZANYOR                                                                       IVAN DE OLIVEIRA LIMA 45 6 AP 201                                                                   PILARES                       RIO DE JANEIRO                                    RJ                    20760600                                                                                                                                                                                                                                                          OM0000002135477894RUA ALVARO CE MIRANDA PROX FABRICA SCOTT PROCURAR ALINE OU MONICA TEL 94146686                                                                                                                                                                                                                                                                                                                                                                                                                                                                                                                               
01                              51128     203 199 9069290                                                                                   39657619929052013                                                              00076556042749MARTHA CHRISTINA ATHAYDE DIAS                                                                       ARTUR VARGAS 42 03                                                                                  PIEDADE                       RIO DE JANEIRO                                    RJ                    21381110                                                                                                                                                                                                                                                          OM0000000000000000PROX SUPERMRKETING SEGUIR A CARDOSO QUINTAO TEL 77429044 CLIENTE ESTA DE FOLGA TERCA QUARTA E QUINTA                                                                                                                                                                                                                                                                                                                                                                                                                                                                                                         
01                              45139     169 199 9033939                                                                                   39657719929052013                                                              00009996912795FRANCILENE VIANA NOBREGA                                                                            MATURI 63                                                                                           QUINTINO BOCAIUVA             RIO DE JANEIRO                                    RJ                    21311390                                                                                                                                                                                                                                                          OM0000002180338132REF PX AIGREJA DE SAO JORGE TEL 80338132 ENTREGAR SEXTA OU SABADO ATE AS 12 HS                                                                                                                                                                                                                                                                                                                                                                                                                                                                                                                               
01                              45144     171 199 9032662                                                                                   39598419929052013                                                              00003442269725LUCIENE DOS SANTOS                                                                                  MARTE 2 3                                                                                           SENADOR CAMARA                RIO DE JANEIRO                                    RJ                    21843804                                                                                                                                                                                                                                                          OM0000000000000000INDO PELA ESTRADA DO TAQUARAL DEPOIS DO BRIZOLAO ENTRAR A DIREITA AO LADO DA PADARIA DO SEU ORLANDO                                                                                                                                                                                                                                                                                                                                                                                                                                                                                                          
01                              34672     168 199 9061604                                                                                   39657819929052013                                                              00010629032777CLAUDIVAN PEREIRA DA SILVA                                                                          CORONEL ALMEIDA 141                                                                                 PIEDADE                       RIO DE JANEIRO                                    RJ                    20756070                                                                                                                                                                                                                                                          OM0000000000000000PROX AO RIVER COND RES JOSE DO PATROCINIO PROC POR ZELADOR CEL 67456045 VIVO                                                                                                                                                                                                                                                                                                                                                                                                                                                                                                                                 
01                              35202     237 199 9040482                                                                                   39598919929052013                                                              00033100519787JORGE DE ONIZIO DOS SANTOS                                                                          ARARI 134 05 APT 308                                                                                BANGU                         RIO DE JANEIRO                                    RJ                    21875260                                                                                                                                                                                                                                                          OM0000000000000000PROX AO MERCADO PREZUNIC                                                                                                                                                                                                                                                                                                                                                                                                                                                                                                                                                                                     
01                              18789     222 199 9033895                                                                                   39756119930052013                                                              00008863374708ALEX SANDRO LOPES                                                                                   TRINTA E UM DE JANEIRO 4                                                                            BARRA DA TIJUCA               RIO DE JANEIRO                                    RJ                    22790500                                                                                                                                                                                                                                                          OM0000000000000000PONTO DE REF EM FRENTE AO SUPEMERCADOS SUPER MARKET  RUA AO LADO AO RIO LAZER                                                                                                                                                                                                                                                                                                                                                                                                                                                                                                                                
01                              45163     171 199 9069499                                                                                   39598819929052013                                                              00053332830791DJAIR CARVALHO DE LIMA                                                                              ARGENTINO PIRES DE OLIVEIRA 327 2                                                                   BANGU VL KENEDY               RIO DE JANEIRO                                    RJ                    21853560                                                                                                                                                                                                                                                          OM0000000000000000ANTIGA RUA R PROXIMO A VILA OLIMPICA RUA EM FRENTE TEL 24055317 - (21)86555318                                                                                                                                                                                                                                                                                                                                                                                                                                                                                                                               
01                              37958     281 199 9055317                                                                                   39617319929052013                                                              00011101950790JANAINA DOS SANTOS                                                                                  AV EMBAIXADOR ABELADO BUENO 977 12                                                                  BARRA DA TIJUCA               RIO DE JANEIRO                                    RJ                    22010222                                                                                                                                                                                                                                                          OM0000000000000000RUA JOSE CARLOS PACE TEL (21)95258725 OU 7140 7909 FALAR COM VITORINO OU JANAINA                                                                                                                                                                                                                                                                                                                                                                                                                                                                                                                             
01                              45224     171 199 9069499                                                                                   39597919929052013                                                              00008353733714ELISANGELA DA SILVEIRA DANTAS                                                                       BOGOTA 387                                                                                          BANGU                         RIO DE JANEIRO                                    RJ                    21840100                                                                                                                                                                                                                                                          OM0000002168688120INDO PELA RUA AUGUSTO FIGUEIREDO ENTRAR DA PADARIA ANTIGA BELILA TEL 68688120 - (21)75053998                                                                                                                                                                                                                                                                                                                                                                                                                                                                                                                 
01                              50239     203 199 9066931                                                                                   39598119929052013                                                              00010781143748LUIZA OLIVEIRA MATOS DA SILVA                                                                       COSTA JUNIOR 11 E NA RUA MACHADO DE ASSIS N 11A                                                     VILA KENNEDY                  RIO DE JANEIRO                                    RJ                    21853280                                                                                                                                                                                                                                                          OM0000002134651306REF E NA METRAL VILA KENNEDY PROC SR RONALDO CEL 67103388 FAVOR LIGAR ANTES DA ENTREGA                                                                                                                                                                                                                                                                                                                                                                                                                                                                                                                       
01                              35523     237 199 9070070                                                                                   39772119930052013                                                              00059727233791EUNICE ARAUJO DE OLIVEIRA                                                                           PIRAQUARA 104                                                                                       REALENGO                      RIO DE JANEIRO                                    RJ                    21755280                                                                                                                                                                                                                                                          OM0000000000000000PROX AO BAR DO DOCA                                                                                                                                                                                                                                                                                                                                                                                                                                                                                                                                                                                          
01                              44872     171 199 9069499                                                                                   39772019930052013                                                              00066381673753JANAINA GALDINO CRUZ                                                                                EST GEN AFONSO DE CARVALHO         625  CASA B 0 RUA A N 5                                          BANGU                         RIO DE JANEIRO                                    RJ                    21725020                                                                                                                                                                                                                                                          OM0000000000000000NA AV BRASIL ENTRAR NA RUA DA MOCIDADE IND P MIGUEL NOVA PROX ANTIGO POSTO DE SAUDE TEL 33090253 - (21)78570013                                                                                                                                                                                                                                                                                                                                                                                                                                                                                              
01                              45207     171 199 9069499                                                                                   39597219929052013                                                              00014631093773NATHALIA CRATS                                                                                      DO ORFEONISTA 10                                                                                    BANGU                         RIO DE JANEIRO                                    RJ                    21842290                                                                                                                                                                                                                                                          OM0000002134221860NA VILA ALIANCA ATRAS DA IGREJA CATOLICA INDO PELO ARUA DESENHISTA TEL 34221860 - (21)74269475                                                                                                                                                                                                                                                                                                                                                                                                                                                                                                               
01                              35169     237 199 9044555                                                                                   39597119929052013                                                              00010022496785ANDERSON LUIS CANDIDO                                                                               ESTRADA GENERAL AMERICANO 330 01                                                                    REALEGO                       RIO DE JANEIRO                                    RJ                    21720140                                                                                                                                                                                                                                                          OM0000000000000000DEPOSITO DO GUANARA                                                                                                                                                                                                                                                                                                                                                                                                                                                                                                                                                                                          
01                              35105     237 199 9040034                                                                                   39771819930052013                                                              00013032366720VICTOR HUGO DOMINGOS PIRES AUGUSTO                                                                  DA AGUA BRANCA 3186 AMERICO AUGUSTO AUTO MOVES                                                      REALENGO                      RIO DE JANEIRO                                    RJ                    21720161                                                                                                                                                                                                                                                          OM0000002133325733                                                                                                                                                                                                                                                                                                                                                                                                                                                                                                                                                                                                             
01                              44727     171 199 9066925                                                                                   39597019929052013                                                              00058717587700JOSE BATISTA DA SILVA                                                                               MARCO SETE 70                                                                                       SENADOR CAMARA                RIO DE JANEIRO                                    RJ                    21833325                                                                                                                                                                                                                                                          OM0000000000000000                                                                                                                                                                                                                                                                                                                                                                                                                                                                                                                                                                                                             
01                              45216     171 199 9069499                                                                                   39597519929052013                                                              00009659392435ANA PAULA HELENO DA SILVA                                                                           MANOEL DE BARROS 625                                                                                SENADOR CAMARA                RIO DE JANEIRO                                    RJ                    21843000                                                                                                                                                                                                                                                          OM0000000000000000PROXIMO AO MERCADO SENADOR ANTIGO FRANGO ASSADO NA EST DO TAQUARAL TEL 80155614 86143265 SANDRA                                                                                                                                                                                                                                                                                                                                                                                                                                                                                                              
01                              32235     282 199 9062286                                                                                   39754519930052013                                                              00074016962749JOAO CAMELO DE SOUSA                                                                                COMANDANTE JULIO DE MOURA 546 PORTARIO                                                              BARRA DA TIJUCA               RIO DE JANEIRO                                    RJ                    22621252                                                                                                                                                                                                                                                          OM0000002124948490PROX HOTEL BARRA BECH TEL 24948490 93073995 PROC JOAO CAMELO DE SOUSA                                                                                                                                                                                                                                                                                                                                                                                                                                                                                                                                        
01                              35346     237 199 9070070                                                                                   39741719930052013                                                              00061083283715ABEL TERTULIANO DE MELO                                                                             SANTA CRUZ 7190 ESPERANCA BL 18 AP 101                                                              SENADOR CAMARA                RIO DE JANEIRO                                    RJ                    21830264                                                                                                                                                                                                                                                          OM0000000000000000PROX PREZUNIC AO LADO                                                                                                                                                                                                                                                                                                                                                                                                                                                                                                                                                                                        
01                              34603     168 199 9031826                                                                                   39655419929052013                                                              00011481705709CLEIDE DA COSTA MACHADO                                                                             DOS CRICHANAS 64                                                                                    CAVALCANTI                    RIO DE JANEIRO                                    RJ                    21370190                                                                                                                                                                                                                                                          OM0000000000000000TRANSVERSAL COM A RUA BARBOSA RODRIGUES E PERTO DA ESTACAO DE CAVALCANTE                                                                                                                                                                                                                                                                                                                                                                                                                                                                                                                                     
01                              32391     282 199 9058784                                                                                   39751619930052013                                                              00000922149755JORGE LUIZ DURTE E SILVA                                                                            GRAVIOLAS 6                                                                                         RIO DAS PEDRAS                RIO DE JANEIRO                                    RJ                    22753050                                                                                                                                                                                                                                                          OM0000000000000000AREINHA RUA DO VALAO PROX A ESTACAO AZUL SEGUNDA RUA A DIREITA DPS DO BAR DOS PROSTITUTOS (21)94604438                                                                                                                                                                                                                                                                                                                                                                                                                                                                                                       
01                              34634     168 199 9064083                                                                                   39658119929052013                                                              00066131510768SIDNEI MADUREIRA PINTO                                                                              ARMANDO CRUZ 162 63  AP 103                                                                         MADUREIRA                     RIO DE JANEIRO                                    RJ                    21310350                                                                                                                                                                                                                                                          OM0000002122694932PROX AO TEM TUDO 22694932 85451915                                                                                                                                                                                                                                                                                                                                                                                                                                                                                                                                                                           
01                              30172     237 199 9069047                                                                                   39770019930052013                                                              00005195636702JEFFERSON NASCIMENTO DE OLIVEIRA                                                                    LELIO BOAVENTURA 23 ENTRADA 49 CASA 23                                                              REALENGO                      RIO DE JANEIRO                                    RJ                    21760520                                                                                                                                                                                                                                                          OM0000000000000000PROX AO MERCADO SUPER COMPRAS PROC SRA CARMINHA TEL 78568635                                                                                                                                                                                                                                                                                                                                                                                                                                                                                                                                                 
01                              17446     248 199 9034135                                                                                   39655119929052013                                                              00007248449709JOSINEIDE A DA SILVA                                                                                RUA TORRES DE OLIVEIRA 378 27 FDS                                                                   PIEDADE                       RIO DE JANEIRO                                    RJ                    20740380                                                                                                                                                                                                                                                          OM0000000000000000PRXIMO A GARAGEM VERDAN EMPRESA DE ONIBUS TEL 94734963                                                                                                                                                                                                                                                                                                                                                                                                                                                                                                                                                       
01                              34121     245 199 9033105                                                                                   39751919930052013                                                              00009970603795FRANCISCO WAGNER ALVES DE SOUZA                                                                     LUIZ CARLOS PRESTES 25                                                                              GARDENIA AZUL                 RIO DE JANEIRO                                    RJ                    22765575                                                                                                                                                                                                                                                          OM0000002124456538REF BAR DO CLADUALDO QT 25 TEL 76100172 24456538                                                                                                                                                                                                                                                                                                                                                                                                                                                                                                                                                             
01                              45368     171 199 9069499                                                                                   39741419930052013                                                              00005257412756VANESSA OLIVEIRA MUNIZ                                                                              SOLIDARIEDADE 19 SEGUNDO ANDAR                                                                      BANGU VL KENEDY               RIO DE JANEIRO                                    RJ                    23000000                                                                                                                                                                                                                                                          OM0000000000000000PROX AO COLEGIO ESTADUAL JORGE ZARU 74214381 93365667                                                                                                                                                                                                                                                                                                                                                                                                                                                                                                                                                        
01                              25119     223 199 9042654                                                                                   39637919929052013                                                              00087454971415JACQUELINE SILVA MOREIRA                                                                            HERACLITO 35 LOTE 06                                                                                CURICICA                      RIO DE JANEIRO                                    RJ                    22780674                                                                                                                                                                                                                                                          OM0000002134163242                                                                                                                                                                                                                                                                                                                                                                                                                                                                                                                                                                                                             
01                              31784     282 199 9058201                                                                                   39750719930052013                                                              00053029810763MARIA DE FATIMA DOS SANTOS SANTANA                                                                  RUA TEREZINHA BRANCO MUZEMA 7 B                                                                     ITANHANGA                     RIO DE JANEIRO                                    RJ                    22753085                                                                                                                                                                                                                                                          OM0000002134198601PROXIMO AO BAR DO MARADONA E A PASTELARIA DO JAPA PONTO DA IGREJINHA PROCURAR PALOMA OU FATIMA  34198601 - 80033218 LIGA                                                                                                                                                                                                                                                                                                                                                                                                                                                                                     
01                              45516     171 199 9069499                                                                                   39770519930052013                                                              00018383599749ANTONIO DANTAS SALDANHA                                                                             CARUMBE 476 5                                                                                       REALENGO                      RIO DE JANEIRO                                    RJ                    21755140                                                                                                                                                                                                                                                          OM0000000000000000NO FINAL DA RUA CAPITA TEIXEIRA SENTIDO PIRAQUARA SEGUNDA VILA AO LADO ESQUERDO TEL)33323323 - (21)93839851                                                                                                                                                                                                                                                                                                                                                                                                                                                                                                  
01                              45412     171 199 9032691                                                                                   39770619930052013                                                              00011818710773RICARDO MARCONDES DE OLIVEIRA                                                                       ENGENHO 820                                                                                         BANGU                         RIO DE JANEIRO                                    RJ                    21840000                                                                                                                                                                                                                                                          OM0000000000000000DEPOIS DO COLEGIO BANGU TEL 34244829 93235410                                                                                                                                                                                                                                                                                                                                                                                                                                                                                                                                                                
01                              45363     171 199 9066925                                                                                   39742119930052013                                                              00031151345768JOSE RAIMUNDO DA SILVA                                                                              DO QUAFA RUA T 183 CASA 02                                                                          VILA KENEDY  BANGU            RIO DE JANEIRO                                    RJ                    21853050                                                                                                                                                                                                                                                          OM0000002124057855EM FRENTE A VILA OLIMPICA  (21)24057855 - (21)75699416                                                                                                                                                                                                                                                                                                                                                                                                                                                                                                                                                       
01                              35488     237 199 9066882                                                                                   39770919930052013                                                              00006997695744LUCIARA MARIA DA SILVA                                                                              PROFESSOR JOSE RODRIGUES 102 201                                                                    REALENGO                      RIO DE JANEIRO                                    RJ                    21760480                                                                                                                                                                                                                                                          OM0000000000000000ENTREGAR PROXIMO AO UPA DE JARDIN NOVO                                                                                                                                                                                                                                                                                                                                                                                                                                                                                                                                                                       
01                              17005     265 199 9069804                                                                                   39751219930052013                                                              00078598745715KATIA REGINA BAPTISTA CARNEIRO DA SILVA                                                             CAPITU 324                                                                                          JACAREPAGUA                   RIO DE JANEIRO                                    RJ                    22750040                                                                                                                                                                                                                                                          OM0000000000000000FINAL DA RUA ITUVERAVA A ESQUERDA EM FRENTE A ENTRADA DE SERVICO DO CONDOMINO ELDOURADO                                                                                                                                                                                                                                                                                                                                                                                                                                                                                                                      
01                              45480     171 199 9032662                                                                                   39742019930052013                                                              00008711611766IVAN ANDERSON DE ARUDA                                                                              CESAR BAHAR 22 QD 415                                                                               BANGU                         RIO DE JANEIRO                                    RJ                    21825420                                                                                                                                                                                                                                                          OM0000000000000000SUBINDO ARUA BOIOBI 77037229                                                                                                                                                                                                                                                                                                                                                                                                                                                                                                                                                                                 
01                              31648     282 199 9058201                                                                                   39867319931052013                                                              00010704704730FRANCISCA ANALIA BEZERRA PEREIRA                                                                    RUA BARETA 8 01VILA XIMENES                                                                         RIO DAS PEDRAS                RIO DE JANEIRO                                    RJ                    22753046                                                                                                                                                                                                                                                          OM0000002182877624NA RUA DA ORTOBOM E EM FRENTE AO HORTIFRUTI PROC ANALIA (21)82877624 - (21)81950267 ENTREG SABADO 25 05                                                                                                                                                                                                                                                                                                                                                                                                                                                                                                      
01                              45404     171 199 9032662                                                                                   39742219930052013                                                              00078137578749ULISSES MATTOS PEIXOTO MANSINI                                                                      MANOEL NOGUEIRA DE SA 1298                                                                          REALENGO                      RIO DE JANEIRO                                    RJ                    21745290                                                                                                                                                                                                                                                          OM0000000000000000PROX A IGREJA NOSSA SENHORA DE FATIMA LOJA DE FRANGO EM FRENTE 33315887 88209676                                                                                                                                                                                                                                                                                                                                                                                                                                                                                                                             
01                              31485     282 199 9062286                                                                                   39867119931052013                                                              00078474841704IRISMAR ALVES DE SOUZA                                                                              JACAREPAGUA 251 302 FDS                                                                             ITANHANGA                     RIO DE JANEIRO                                    RJ                    22753030                                                                                                                                                                                                                                                          OM0000002182583692MUZEMA AO LD DO BAR DO GABARITO TEL 82583692 82924699 PROC LEANDRA                                                                                                                                                                                                                                                                                                                                                                                                                                                                                                                                           
01                              44906     171 199 9069499                                                                                   39771219930052013                                                              00008426827756FLAVIA VASCONCELOS SANTOS                                                                           PORTO BRILHANTE 95                                                                                  PADRE MIGUEL                  RIO DE JANEIRO                                    RJ                    21860030                                                                                                                                                                                                                                                          OM0000000000000000NA RUA PORTO NACIONAL AO LADO DA IGREJA CRISTO RESUCITADO NO FINAL DA RUA A ULTIMA CASA TEL35948287 - (21)74288077                                                                                                                                                                                                                                                                                                                                                                                                                                                                                           
01                              54499     230 199 9033795                                                                                   39588119929052013                                                              00013951049723NATHALIA DE ALMEIDA SAN TANNA                                                                       GRAHAM BELL 21                                                                                      SANTISSIMO                    RIO DE JANEIRO                                    RJ                    23010040                                                                                                                                                                                                                                                          OM0000000000000000ATRAS DO COLEGIO EVARISTO DE MORAES SEGUIR AV SANTA CRUZ EM FRENTE O CAVALO DE ACO TEL 68477288                                                                                                                                                                                                                                                                                                                                                                                                                                                                                                              
01                              32275     282 199 9058201                                                                                   39753019930052013                                                              00004483485350PRISCILA ALVES MARTINS                                                                              ANA MARIA 29 1 ANDAR                                                                                ITANHANGA                     RIO DE JANEIRO                                    RJ                    22641190                                                                                                                                                                                                                                                          OM0000000000000000(21)78591838 - (21)83137782MORRO DO BANCO PROXIMO A O 24 HRS ENTREGA ESPECIAL PRCORURAR PRISCILA                                                                                                                                                                                                                                                                                                                                                                                                                                                                                                             
01                              45356     203 199 9031810                                                                                   39868819931052013                                                              00011615498702ISABEL CRISTINA GARCIA                                                                              LUIS VARGAS 40 07                                                                                   PIEDADE                       RIO DE JANEIRO                                    RJ                    20751340                                                                                                                                                                                                                                                          OM0000002132730601TROCA COM RECOLHIMENTO FICA PROX AO PARAPLEGICO TEL 32730601                                                                                                                                                                                                                                                                                                                                                                                                                                                                                                                                                 
01                              17773     248 199 122728                                                                                    39656619929052013                                                              00013572137780CESAR AUGUSTO SILVA DE SOUZA                                                                        CLARIMUNDO DE MELO 293 05                                                                           PIEDADE                       RIO DE JANEIRO                                    RJ                    20740320                                                                                                                                                                                                                                                          OM0000000000000000PROX MERCADO PREMIUN CAMPAINHA DO LADO DA GARAGEM                                                                                                                                                                                                                                                                                                                                                                                                                                                                                                                                                            
01                              51454     203 199 9031810                                                                                   39656319929052013                                                              00009110742794HUDSON DAMIAO DOS SANTOS CHAVES                                                                     RUA FRANCISCA ZIEZE 147                                                                             PILARES                       RIO DE JANEIRO                                    RJ                    20750040                                                                                                                                                                                                                                                          OM0000000000000000SUBIR RUA DA PADARIA YORK NA ABOLICAO PROCURAR CAPOEIRA TEL 77475522                                                                                                                                                                                                                                                                                                                                                                                                                                                                                                                                         
01                              25516     241 199 9069475                                                                                   39752419930052013                                                              00014471308718TIAGO CEZAR MARCOS                                                                                  RUA DA ASSEMBLEIA 67                                                                                GARDENIA AZUL                 RIO DE JANEIRO                                    RJ                    22763627                                                                                                                                                                                                                                                          OM0000000000000000AO LADO DA FABRICA DO GUARAVITA NA COMUNIDADE DO MARCAO PROC TIAGO TEL (21)76442582 - (21)77359158 ENT APOS 27 MAIO                                                                                                                                                                                                                                                                                                                                                                                                                                                                                          
01                              45138     169 199 9033939                                                                                   39655719929052013                                                              00009996912795FRANCILENE VIANA NOBREGA                                                                            MATURI 63                                                                                           QUINTINO BOCAIUVA             RIO DE JANEIRO                                    RJ                    21311390                                                                                                                                                                                                                                                          OM0000002180338132REF PX AIGREJA DE SAO JORGE TEL 80338132 ENTREGAR SEXTA OU SABADO ATE AS 12 HS                                                                                                                                                                                                                                                                                                                                                                                                                                                                                                                               
01                              29531     282 199 9065532                                                                                   39752519930052013                                                              00004425443403DIANA HENRIQUE DA SILVA                                                                             FLOR DE VENEZA 53                                                                                   RIO DAS PEDRAS                RIO DE JANEIRO                                    RJ                    22753053                                                                                                                                                                                                                                                          OM0000000000000000ESQUINA COM O MERCADO ALIANCA PROS SRA DILAINE OU SR MARCONDES  (21)79770529                                                                                                                                                                                                                                                                                                                                                                                                                                                                                                                                 
01                              34812     168 199 9061604                                                                                   39797019930052013                                                              00016809484744MARCELE DA SILVA JOSE MOTTA                                                                         MANOEL MACHADO 0 RUA MORCE 189                                                                      VAZ LOBO                      RIO DE JANEIRO                                    RJ                    23063347                                                                                                                                                                                                                                                          OM0000000000000000NA RUA DA CASA DE TINTA EM FRENTE AO LARGO DE VAZ LOBO PROX AO MOTO TAXI PROC ANISINHO                                                                                                                                                                                                                                                                                                                                                                                                                                                                                                                       
01                              45230     171 199 9032662                                                                                   39593619929052013                                                              00002105465730ALESSANDRO CARLOS DA SILVA                                                                          ENGENHEIRA PAULA LOPES 1710 1                                                                       BANGU                         RIO DE JANEIRO                                    RJ                    21825320                                                                                                                                                                                                                                                          OM0000000000000000                                                                                                                                                                                                                                                                                                                                                                                                                                                                                                                                                                                                             
01                              45107     171 199 9032662                                                                                   39593319929052013                                                              00060282835768MARINALVA SANTOS ROCHA                                                                              JOAQUIM CALADO 20 VILA KENEDY                                                                       BANGU                         RIO DE JANEIRO                                    RJ                    21853540                                                                                                                                                                                                                                                          OM0000002124752474PROX A PRACA DO BARRAO E RAMPA 24752474 97368653                                                                                                                                                                                                                                                                                                                                                                                                                                                                                                                                                             
01                              45214     171 199 9069499                                                                                   39593219929052013                                                              00013043934709DENISE CRISTINA OLIVEIRA FERREIRA                                                                   AGRICOLA 64 FUNDOS                                                                                  BANGU                         RIO DE JANEIRO                                    RJ                    21810090                                                                                                                                                                                                                                                          OM0000000000000000PROXIMO A AV SANTA CRUZ ENTRAR PROXIMO AO HOSPITAL SAO LOURECO TEL 36863247 - (21)76343838                                                                                                                                                                                                                                                                                                                                                                                                                                                                                                                   
01                              51777     203 199 9041796                                                                                   39769219930052013                                                              00087009064768REGINA CELIA DANTAS DA SILVA                                                                        CATAGUASES 534 FUNDOS                                                                               OSWALDO CRUZ                  RIO DE JANEIRO                                    RJ                    21340250                                                                                                                                                                                                                                                          OM0000002124510013AO LADO DA LOJA TOQUE A CAMPANHIA PROC SRA ADRIANA LIGAR NO DIA DA ENTREGA PARA A CLIENTE 21 24010013 87527383                                                                                                                                                                                                                                                                                                                                                                                                                                                                                               
01                              32425     245 199 9033141                                                                                   39727319930052013                                                              00097445991700RONALDO DO CARMO                                                                                    EZEQUIEL 338 BL 05 APT 205                                                                          CIDADE DE DEUS                RIO DE JANEIRO                                    RJ                    22763520                                                                                                                                                                                                                                                          OM0000000000000000FINAL DA ESTR DO GABINAL VIRAR A DIREITA AC JUNIOR TEL (21)33424872 - (21)85318993                                                                                                                                                                                                                                                                                                                                                                                                                                                                                                                           
